:020000040800F2
:10000000E806002005010008C94400086F38000810
:10001000C5440008110F0008EF4900080000000067
:10002000000000000000000000000000494500083A
:100030007D0F000800000000CD4400084B4500087B
:100040001F0100081F0100081F0100081F01000810
:100050001F0100081F0100081F0100081F01000800
:100060001F0100081F0100081F0100086D0F000894
:100070001F0100081F0100081F0100081F010008E0
:100080001F0100081F0100081F0100081F010008D0
:100090001F0100081F0100081F0100081F010008C0
:1000A0001F0100081F0100081F0100081F010008B0
:1000B0001F0100081F0100081F0100081F010008A0
:1000C0001F0100081F0100081F0100081F01000890
:1000D0001F0100081F0100081F0100081F01000880
:1000E0001F0100081F0100081F010008DFF810D0E1
:1000F00000F060FC0048004779590008AFF3008029
:10010000E80600200648804706480047FEE7FEE76D
:10011000FEE7FEE7FEE7FEE7FEE7FEE7FEE7FEE7B7
:10012000D7450008ED000008202A04DB203A21FA18
:1001300002F00021704721FA02F3D040C2F1200200
:100140009140084319467047D2B201E000F8012BF4
:10015000491EFBD270470022F6E710B513460A4647
:1001600004461946FFF7F0FF204610BDF0B480EAC0
:100170000102D40F4200B2EB410F02D20246084600
:1001800011464A0042D0C30DDDB2C1F3C752AD1AC9
:10019000202D35DAC1F3160141F4000204B15242B8
:1001A000C5F1200602FA06F12A411044B3EBD05FF4
:1001B00023D0C4B1012DA0EBC35009DCF0BC4FF03B
:1001C000004202EAC352DBB200F5000000F01FBBA0
:1001D000400000F1807000EBC350A0F1807040EA55
:1001E000D170490009E0490841EAC071A0EBC35051
:1001F00000F50000400800EBC350F0BC00F0FEBA70
:100200006142012202EB4101001BF6E7F0BC70479E
:1002100081F00041AAE780F00040A7E780EA0102F0
:1002200010B502F00043400022D04A001FD0010E5A
:1002300001EB1261C0F35600C2F3560240F4000015
:1002400042F40002A0FB022000047F39140400D015
:10025000401C50EA124001D44000491EC2B20C06B4
:1002600004EBD010401C4008802A02D003E000209C
:1002700010BD20F00100002900DA0020184310BD55
:1002800030B480EA010202F0004530F0004221F073
:10029000004013D090B1C30DD40DC2F31601C0F3CA
:1002A0001600E41A41F4000140F400027D3491424A
:1002B00001D3641C00E04900002C02DA30BC0020AD
:1002C00070474FF400000023914201D3891A034381
:1002D00040084FEA4101F7D151B1914202D14FF0AC
:1002E000004105E002D24FF0010101E06FF0010191
:1002F00003EBC450284430BC00F080BA2DE9FE4F17
:10030000804681EA0300C00F0C46009021F00041B6
:1003100023F00045B8EB0200A94105D24046214632
:1003200090461C460B46024623F00040104347D03F
:10033000270DC7F30A00C3F30A510290401A019037
:1003400040286BDAC3F3130040F4801B00989246F8
:1003500020B10023D2EB030A63EB0B0B0198594643
:10036000C0F14002504600F028FA06460D465046BD
:100370005946019A00F030FA10EB08006141002460
:1003800087EA115284EAE7731A4340D0009A62B3B5
:10039000019A012A4FEA075215DC001B61EB0201AA
:1003A0004FF0004202EA0752CDE90042001C41F53D
:1003B000801132462B4600F067FA03B0BDE8F08F9B
:1003C00040462146F9E7001B61EB0201001C41F5A4
:1003D000801300185B412018A2F5001747EB0301BA
:1003E00040EAD570B6196D4111E06D084FEA360646
:1003F00045EAC0754FEA0752001B61EB0201001C81
:1004000041F5801149084FEA300000195141324648
:100410002B4603B0BDE8F04F00F027BA0098012248
:1004200040000023D0EB020263EBE073009821460A
:100430004FEAE074B8EB000061EB0401E9E783F0F8
:1004400000435BE781F0004158E72DE9FE4F81EA68
:10045000030404F0004421F0004100944FF0000B2D
:1004600023F0004350EA01045ED052EA03045BD05B
:10047000C3F30A54C1F30A552C44A4F2F334019493
:10048000A0FB0254C1F3130141F48011C3F3130321
:1004900043F4801301FB024400FB034E840A970AD5
:1004A00044EA815447EA8357A4FB076802958D0A02
:1004B00005FB07854FEA932C04FB0C542705029D8E
:1004C0004FEA065847EA1637B5EB08056EEB070CFE
:1004D000870E920E47EA811742EA8312A7FB0201B8
:1004E000B6EB0B0164EB00042B0D43EA0C335E18F2
:1004F00044EB1C50DA465146E7FB0201C5F31304F6
:100500004FEA0B3343EA14534FEA0432019C43EAA7
:100510000603A4F10C040294009CCDE900B400F0A1
:10052000B3F903B0BDE8F08F00200146F9E72DE9EB
:10053000F04D81EA030404F0004B21F0004514461D
:100540004FF0000A23F0004150EA050220D054EA9F
:1005500001021DD0C5F30A570246C5F31303C1F3C8
:100560001300C1F30A5640F4801543F48013A7EB3F
:100570000608101BD64608F2FD3873EB050002D3BF
:1005800008F1010801E092185B41B8F1000F03DAAD
:1005900000200146BDE8F08D00204FF48011064692
:1005A00084460EE0171B73EB050705D3121B63EBA4
:1005B000050306434CEA010C49084FEA3000921843
:1005C0005B4150EA0107EDD152EA030012D082EA02
:1005D000040083EA0501084305D0101BAB4106D295
:1005E0000122002306E000224FF0004302E06FF0FA
:1005F000010253101AEB06004CEB085110EB0A00F5
:1006000041EB0B01BDE8F04D00F02FB9C10F80EABE
:10061000E0700844CA079623002100F0F8B80EB530
:10062000C10F80EAE0700844CA07002140F233435A
:100630008DE80E000A460B4600F026F903B000BD17
:1006400020F00040C10DC0F3160040F400007F29E7
:1006500001DA00207047962903DCC1F19601C840F9
:10066000704796398840704770B5C1F30A5201F05F
:1006700000450024C1F3130140F2FF3341F480111F
:100680009A4201DA002070BD40F233439A42A2F24E
:10069000334203DC5242FFF747FD00E090402C4319
:1006A000F1D0404270BD00F0004230F000400AD06E
:1006B000C10D01F56071C0F3160042EA0151C20894
:1006C00040071143704700200146704701F0004386
:1006D00030B421F0004150EA010206D00A0DA2F523
:1006E0006072C1F31301002A02DC30BC00207047A5
:1006F000440F44EAC104C100E01830BC00EBC25012
:1007000000F07CB8002801DBC0F10040002901DBCB
:10071000C1F1004181427047002801DBC0F1004077
:10072000002901DBC1F100418842704730B50B461A
:10073000014600202022012409E021FA02F59D4211
:1007400005D303FA02F5491B04FA02F52844151EE5
:10075000A2F10102F1DC30BD2DE9F05F0546002079
:1007600092469B4688460646814640241BE0284622
:10077000414647462246FFF7D7FC53465A46C01A21
:10078000914110D311461846224600F016F82D1A52
:1007900067EB01084F4622460120002100F00DF8CA
:1007A00017EB00094E41201EA4F10104DFDC48468E
:1007B00031462A464346BDE8F09F202A04DB203A12
:1007C00000FA02F1002070479140C2F1200320FAA4
:1007D00003F3194390407047202A06DBCB17203AD9
:1007E00041FA02F043EAE07306E041FA02F3D04036
:1007F000C2F1200291400843194670470029A8BF62
:100800007047401C490008BF20F00100704710B439
:10081000B0FA80FC00FA0CF050EA010404BF10BCEE
:10082000704749B1CCF1200421FA04F411FA0CF11B
:1008300018BF012121430843A3EB0C01CB1D4FEA54
:1008400000614FEA102042BF002010BC704700EB4F
:10085000C35010440029A4BF10BC7047401C49007D
:1008600008BF20F0010010BC704710B5141E73F1D2
:10087000000408DA401C41F1000192185B411A4360
:1008800001D120F0010010BD2DE9F04D92469B46AC
:1008900011B1B1FA81F202E0B0FA80F22032904652
:1008A000FFF78BFF04460F4640EA0A0041EA0B01BE
:1008B00053465A46084313D0114653EA010019D053
:1008C000C8F140025046FFF72FFC05460E46504641
:1008D00059464246FFF771FF084305D0012004E066
:1008E00020463946BDE8F08D0020054346EAE07613
:1008F0002C4337430A986305E40AA0EB0800002262
:10090000FD0A44EA47540A3002D500200146E9E7CF
:10091000010510196941DDE9084500196941BDE883
:10092000F04DA2E770B521F0004303430CD0C1F3B2
:100930000A550024D5EB040564EB0403D617AD1A61
:10094000B34102DB0020014670BD201841EB02518B
:1009500070BDC1F30A52C1F3130140F2FF3341F4F9
:1009600080119A4202DA00200146704740F2334378
:100970009A42A2F2334202DC5242FFF7D5BBFFF7A4
:100980001CBF000030B5041E71F1000404DB4FF001
:100990000044404264EB0101141E73F1000405DBC6
:1009A0001C464FF00043524263EB0403994208BFD8
:1009B000904230BD064C074D06E0E06840F0010370
:1009C00094E8070098471034AC42F6D3FFF792FB47
:1009D000085B0008285B0008420005D0C0F3C7523E
:1009E0005242914201DC0020704700EBC150704739
:1009F0002DE9F04D00231A461B1A8A4103DB002023
:100A00000146BDE8F08DC1F30A52C1F3130141F470
:100A100080154FF0000BD10702D100186D41521E16
:100A20000027044640F2FF11384601EB620A3E46B9
:100A30008046024600204FF48011FFF775FBC21973
:100A40007141BB1846EB0100B4EB030C75EB000CD5
:100A500004D3E41A65EB000517460E46241908F185
:100A600001006D4180463428E3DDF91946EB0600AC
:100A7000091BA84103D24FF0FF32134601E00022C8
:100A800013461BEB070046EB0A51BDE8F04DFFF79C
:100A9000ECBE70B5044600252068806800F00100B7
:100AA00018B32068806820F001002168886001F098
:100AB00069FA054613E001F065FA401B02280ED9D9
:100AC0002068806800F0010048B1A06A40F0100082
:100AD000A062E06A40F00100E062012070BD206881
:100AE000806800F001000028E5D10020F6E7000052
:100AF00010B5044600F026F8044A0549054800F000
:100B000041FA034A07CA84E8070010BDA69BC43B0C
:100B1000C0020020B402002010B503F0B4F903A015
:100B200003F068FF00F056F910BD0000D0A3D7BC59
:100B3000D6D0A3ACA3ACC7EBB5C8B4FD2E2E2E0DFA
:100B40000A0000002DE9F05F824A911E881E03F022
:100B500056F9804A921D911E881E03F072F97D4855
:100B6000001F00887C490988401A00B27949091F92
:100B700008800846408878494988401A00B275497B
:100B8000091F48800846808873498988401A00B246
:100B90007049091F88800846C0886F49C988401A73
:100BA00000B26C49091FC880084600896A49098952
:100BB000401A00B26749091F088108464089664902
:100BC0004989401A00B26349091F4881B1F9000000
:100BD000FFF71CFD04462146604800F09BF95F4981
:100BE0008868FFF72DFD00B25A49091F0880B1F946
:100BF0000200FFF70BFD044621465848183000F06C
:100C000089F95649086AFFF71BFD00B25149091FCF
:100C10004880B1F90400FFF7F9FC044621464F482B
:100C2000303000F077F94B49091FB1F90600FFF7A2
:100C3000F6FC06464FF03332494BFFF706FC804680
:100C400089464849B1F90000FFF7E9FC06464FF034
:100C50003332454BFFF7F9FB824642464B46FFF7DE
:100C60004DFB0446FFF700FD00B23A49091FC8805A
:100C70000846C0883B4908803649091FB1F9080079
:100C8000FFF7CDFC06464FF03332354BFFF7DDFB67
:100C900004460D463349B1F90200FFF7C0FC064691
:100CA0004FF03332304BFFF7D0FB804622462B46C5
:100CB000FFF724FB8246FFF7D7FC00B22549091F46
:100CC000088108460089274948802249091FB1F94F
:100CD0000A00FFF7A4FC06464FF03332204BFFF723
:100CE000B4FB04460D461F49B1F90400FFF797FC19
:100CF00006464FF033321C4BFFF7A7FB80462246D7
:100D00002B46FFF7FBFA8246FFF7AEFC00B2114913
:100D1000091F4881084640891249888013A003F0C2
:100D200069FE0C48001FB0F90430B0F90220B0F998
:100D3000001014A003F05EFE0648001FB0F90A3050
:100D4000B0F90820B0F9061018A003F053FEBDE872
:100D5000F09F0000B8020020CC02002034000020E8
:100D60003333C33F100000203333EB3FD0A3D7BC55
:100D7000B2A2C2CBB2A8BAF3B5C4D6B5CEAAA3BAB2
:100D80000D0A000078BCD3CBD9B6C8A3BA25640934
:100D90000979BCD3CBD9B5C4A3BA256409097ABCF7
:100DA000D3CBD9B6C8A3BA25640D0A0078BDC7CB8A
:100DB000D9B6C8A3BA2564090979BDC7CBD9B5C4CA
:100DC000A3BA256409097ABDC7CBD9B6C8A3BA2589
:100DD000640D0A001FB5002002900390009001905E
:100DE0001E2458E053E0414A911E881E03F029F862
:100DF0003E480A380088BDF80810401A00B2ADF825
:100E000000003A480A384088BDF80A10401A00B27B
:100E1000ADF8020035480A388088BDF80C10401A39
:100E200000B2ADF80400BDF90430BDF90220BDF9EF
:100E300000102FA003F0DEFD2C480A38C088ADF862
:100E400008002A480A380089ADF80A0027480A38FD
:100E50004089ADF80C00BDF9000010F1140F16DD4B
:100E6000BDF90000142812DABDF9020010F1140FC8
:100E70000DDDBDF90200142809DABDF9040010F1F6
:100E8000140F04DDBDF90400142800DA00E0AAE71D
:100E900000BF601E44B2002CA4DC144A921F911EB5
:100EA000881E02F0ACFF114A911E881E02F0C9FF95
:100EB0000E480A380088134908800C480A384088D0
:100EC00048800A480A388088A0F5804000B28880AF
:100ED00006480A38C088C88004480A380089088152
:100EE00002480A38408948811FBD0000BE02002028
:100EF000CEF3B2EEA3BA2564090925640909256475
:100F00000D0A0000CC02002010B503F075F810BDEA
:100F100000BFFEE72DE9F04104460D462169206837
:100F2000FFF724F9606061696068FFF71FF9064602
:100F300031466068FFF7A4F9E0602846A168FFF732
:100F400067F90746E168FFF769F90646A168FFF708
:100F50000DF9A0604FF07E50E168FFF759F90646A1
:100F60006168FFF75BF92060BDE8F08110B50248C9
:100F700000F05CFD10BD0000B4000020704772B6A8
:100F800000BFFEE707B59CB04FF07C511E98FFF7FD
:100F900045F90A90FE4880680690FD480068059073
:100FA0000699FFF73BF90890F948C0680690F848A1
:100FB000406805900699FFF731F907900899FFF707
:100FC00027F94FF080410990FFF728F91990F04870
:100FD000C0680690EE48806805900699FFF71EF9F4
:100FE0000890EB4840680690E9480068059006992B
:100FF000FFF714F907900899FFF7B8F84FF0804110
:101000000990FFF70BF91A90E14880680590E048D5
:10101000806804900599FFF701F90790DC48406863
:101020000590DB48406804900599FFF7F7F80690B3
:101030000799FFF79BF84FF080410890FFF7EEF813
:101040004FF07E510990FFF7E6F81B90D148B0F9B8
:1010500004000490FFF7DAFA0690CE48B0F90400D5
:101060000490FFF7D3FA05900699FFF7D7F8089098
:10107000C848B0F902000290FFF7C8FA0490C548CA
:10108000B0F902000290FFF7C1FA03900499FFF74C
:10109000C5F80690BF48B0F900000290FFF7B6FA15
:1010A0000490BC48B0F900000290FFF7AFFA03903B
:1010B0000499FFF7B3F805900699FFF757F80790E2
:1010C0000899FFF753F8099003F002FA0B901C9867
:1010D000B0F900000890FFF799FA09900B99FFF713
:1010E0009DF816901C98B0F902000890FFF78EFA50
:1010F00009900B99FFF792F817901C98B0F904002B
:101100000890FFF783FA09900B99FFF787F818907A
:101110001A980790189806900799FFF77FF809909A
:101120001B980790179806900799FFF777F8089093
:101130000999FFF76DF810901B9807901698069084
:101140000799FFF76BF8099019980790189806907F
:101150000799FFF763F808900999FFF759F811907C
:1011600019980790179806900799FFF757F8099074
:101170001A980790169806900799FFF74FF808906D
:101180000999FFF745F81290109808908248016875
:101190000898FFF743F809908048006801460890D6
:1011A0000998FEF7E3FF7D490860119808907A4896
:1011B00001680898FFF732F80990784840680146BE
:1011C00008900998FEF7D2FF744948601298089079
:1011D000714801680898FFF721F809906F48806806
:1011E000014608900998FEF7C1FF6C498860109885
:1011F000014606906A480068FFF710F808901C98AE
:10120000B0F906000590FFF701FA66490690FFF76E
:1012100005F807900899FEF7A9FF09905F48006854
:10122000014608900998FEF7A1FF13901198014616
:1012300006905B480068FEF7F1FF08901C98B0F933
:1012400008000590FFF7E2F956490690FEF7E6FF21
:1012500007900899FEF78AFF0990504840680146B8
:1012600008900998FEF782FF1490129801460690A4
:101270004B480068FEF7D2FF08901C98B0F90A00AE
:101280000590FFF7C3F947490690FEF7C7FF07909F
:101290000899FEF76BFF0990404880680146089066
:1012A0000998FEF763FF1590159806903848C068B6
:1012B00005900699FEF7B2FF089014980490344800
:1012C000806803900499FEF7A9FF069030484068B3
:1012D00080F0004004901398014603900498FEF7B4
:1012E0009DFF05900699FEF793FF07900899FEF77A
:1012F0008FFF09900A99FEF791FF0F9015980690BD
:101300002348806805900699FEF788FF0890149896
:1013100004901F48C06803900499FEF77FFF069071
:10132000139804901A48006803900499FEF776FF1A
:1013300005900699FEF76CFF07900899FEF716FFD7
:1013400009900A99FEF76AFF0E90159806901048CA
:10135000406805900699FEF761FF08901498049084
:101360000B48006803900499FEF758FF0690139805
:1013700004900748C06803900499FEF74FFF05905A
:101380000699FEF7F3FE07900899FEF741FF0BE080
:1013900024000020B402002020000020D8020020F9
:1013A0001C0000202E9E8B3A09900A99FEF736FF0A
:1013B0000D9015980690C248006805900699FEF7B2
:1013C0002DFF089014980490BD484068039004993C
:1013D000FEF724FF0690BA48806880F00040049031
:1013E0001398014603900498FEF718FF059006999C
:1013F000FEF7BCFE07900899FEF7B8FE09900A991F
:10140000FEF70CFF0C90AE48006809900F99FEF7AC
:10141000ADFEAB4908600846406809900E99FEF79A
:10142000A5FEA74948600846806809900D99FEF717
:101430009DFEA34988600846C06809900C99FEF794
:1014400095FE9F49C8600846C06806900846C06877
:1014500005900699FEF7E2FE08909948806804908E
:101460009748806803900499FEF7D8FE0690944848
:10147000406802909248406801900299FEF7CEFEC3
:1014800004908F48006802908D480068019002998E
:10149000FEF7C4FE03900499FEF768FE05900699D6
:1014A000FEF764FE07900899FEF760FE099003F0CE
:1014B0000FF80B908248006809900B99FEF7AEFE7A
:1014C0007F4908600846406809900B99FEF7A6FE20
:1014D0007B4948600846806809900B99FEF79EFE9C
:1014E000774988600846C06809900B99FEF796FE18
:1014F0007349C86008464068014602904FF080403A
:10150000FEF78CFE03906E48C06801460290039877
:10151000FEF784FE05906A480068014602904FF08D
:101520008040FEF77BFE039065488068014602908C
:101530000398FEF773FE04900599FEF769FE099083
:101540005F480068014602904FF08040FEF766FE5B
:1015500003905B484068014602900398FEF75EFEE8
:10156000059057488068014602904FF08040FEF792
:1015700055FE03905248C068014602900398FEF75A
:101580004DFE04900599FEF7F1FD08904C488068E7
:10159000014602904FF08040FEF740FE039048481D
:1015A0008068014602900398FEF738FE0590444893
:1015B0004068014601904FF08040FEF72FFE0290F8
:1015C0003F484068014601900298FEF727FE4FF021
:1015D0007E510390FEF71FFE04900599FEF718FE5A
:1015E00007901C98B0F90A000490FFF70FF83549EE
:1015F0000590FEF713FE06904FF07E510698FFF718
:101600008BF804D330490698FFF77CF80DD21E9969
:101610000698FEF703FE05901D9880680146049029
:101620000598FEF7A3FD1D9988600998FFF73BF820
:10163000CDE9000103F0FAFE4FF00052234BCDE953
:101640000201FEF702FFCDE90401FFF73FF81D9903
:101650000860DDE9071004F021F81D490590FEF748
:10166000DDFD1D9948601C98B0F904000290FEF75A
:10167000CDFF03900799FEF7D1FD05901C98B0F9B6
:1016800002000090FEF7C2FF01900899FEF7C6FD28
:1016900003901C98B0F900000090FEF7B7FF01908E
:1016A0000999FEF7BBFD02900399FEF75FFD0490D8
:1016B0000599FEF75BFD074908601FB000BD0000FB
:1016C00024000020F6FF793D000080BFDCA54C40DF
:1016D000E12E65421800002038B5024600230020A4
:1016E000009000BF92F82400012801D1022038BDEB
:1016F000012082F8240000BF4868072812D2106831
:10170000406B0C79641E04EB84051F24AC40A0439D
:101710000D796D1E05EB85050C68AC4020431468FF
:10172000606327E048680D2812D21068006B0C79BE
:10173000E41F04EB84051F24AC40A0430D79ED1F8A
:1017400005EB85050C68AC4020431468206311E06C
:101750001068C06A0C790D3C04EB84051F24AC4072
:10176000A0430D790D3D05EB85050C68AC40204389
:101770001468E06208680A2812D31068C0680C7800
:101780000A3C04EB44050724AC40A0430D780A3D15
:1017900005EB45058C68AC4020431468E0600FE021
:1017A000106800690C7804EB44050724AC40A043A2
:1017B0000D7805EB45058C68AC402043146820612A
:1017C0000868102802D00868112827D1174C106823
:1017D000A0421ED11068806800F40000F0B91068C3
:1017E000806840F400001468A0600868102815D1D3
:1017F0000F4800680F4CB0FBF4F000EB8000400095
:10180000009002E00098401E009000980028F9D156
:1018100004E0906A40F020009062012300BF0020A5
:1018200082F8240000BF184661E700000024014050
:101830000C00002040420F002DE9F0410446002733
:1018400000250026A84614B90120BDE8F081A06853
:1018500010B1207D00B100BFA06A30B90020E06265
:1018600084F82400204600F089F82046FFF711F99B
:101870000746A06A00F01000002873D1002F71D134
:10188000A06A20F4885040F00200A062E16960681C
:101890000843217B40EA41000643A068B0F5807F01
:1018A00002D0A068012802D14FF4807000E000202F
:1018B0000543207D012811D1207B38B9A069401E45
:1018C0004FF4006141EA4030054307E0A06A40F070
:1018D0002000A062E06A40F00100E06220684068F9
:1018E00020F46940284321684860206880682149C5
:1018F0000840304321688860A068B0F5807F02D03E
:10190000A068012802D14FF4807000E00020B0F5FB
:10191000807F03D1208A401E4FEA00582068C06AA9
:1019200020F4700040EA08002168C86220688068DE
:1019300011490840B04208D10020E062A06A20F0BE
:10194000020040F00100A06211E0A06A20F0020055
:1019500040F01000A062E06A40F00100E062012760
:1019600005E0FFE7A06A40F01000A06201273846BA
:101970006BE70000FDF7E1FFFE0E1FFF10B586B01C
:1019800004460020029003900490059022492068AC
:1019900088423ED100BF2148806940F400701F4951
:1019A00088610846806900F40070019000BF00BFA4
:1019B00000BF0846806940F00800886108468069D9
:1019C00000F00800019000BF00BF02200290032039
:1019D000039002A9124800F03FF91248124908602A
:1019E000002048600021104881608021C1604900CA
:1019F000016189004161202181610902C16100F01A
:101A0000E3F808B1FFF7BBFA00BF07482062446261
:101A100000BF06B010BD00000024014000100240CD
:101A2000000C014008000240B400002070B50446DC
:101A3000E06B05682068066894F840100420884030
:101A40002840002846D006F00400002842D0206834
:101A5000006800F0200028B92068006820F0040029
:101A60002168086057492068884201D1042027E096
:101A7000544914312068884201D1402020E0514966
:101A800028312068884201D1001519E04D493C31C8
:101A90002068884202D14FF4804011E0494950311A
:101AA0002068884202D14FF4802009E04549643122
:101AB0002068884202D14FF4800001E04FF080603E
:101AC000404908394860E06A00287AD02046E16A37
:101AD000884776E094F84010022088402840A0B360
:101AE00006F0020088B32068006800F0200040B9CA
:101AF0002068006820F00A0021680860012084F84E
:101B0000210030492068884201D1022028E02D4977
:101B100014312068884201D1202021E02949283150
:101B20002068884201D140151AE026493C312068DE
:101B3000884202D14FF4005012E02249503120680F
:101B4000884203D14FF400300AE017E01D496431A8
:101B50002068884202D14FF4001001E04FF000707D
:101B600018490839486000BF002084F8200000BFF1
:101B7000A06A30B32046A16A884722E094F840105A
:101B8000082088402840E0B106F00800C8B120686D
:101B9000006820F00E002168086094F840100120D1
:101BA0008840E16B48600120A06384F8210000BFF9
:101BB000002084F8200000BF206B10B12046216B6C
:101BC000884770BD080002400146002209B9012083
:101BD0007047164B0868C01A1423B0FBF3F080005E
:101BE000086412480838C863022081F82100086898
:101BF000026843F6F0708243D1E901031843CB68D1
:101C000018430B6918434B6918438B691843CB6918
:101C1000184302430868026000208863012081F8AD
:101C20002100002081F8200000BFD1E70800024019
:101C300070B5044600F0A6F906462546681C10B1AA
:101C400004480078054400BF00F09CF9801BA842BE
:101C5000FAD370BD080000202DE9F84703460022A2
:101C600094466EE14FF0010808FA02F4D1F80080C2
:101C700008EA0400A0427DD1DFF8DCA2D1F804809C
:101C8000A8EB0A09D0453AD014DCB8F1030F50D0C4
:101C900009DCB8F1000F31D0B8F1010F1CD0B8F158
:101CA000020F49D120E0B8F1110F18D0B8F1120F8E
:101CB00042D11EE0B9F5881F25D006DCB9F5803F7A
:101CC00020D0B9F5801F37D11AE0B9F5001F18D020
:101CD000B9F5041F30D117E0D1F80CC02DE0D1F8D0
:101CE0000C8008F1040C28E0D1F80C8008F1080CF5
:101CF00023E0D1F80C8008F10C0C1EE000BF00BFFF
:101D000000BF00BF00BF00BFD1F80880B8F1000FCE
:101D100002D14FF0040C0BE0D1F80880B8F1010FAC
:101D200003D14FF0080C1C6102E04FF0080C5C611D
:101D300003E04FF0000C00E000BF00BFFF2801D817
:101D4000984601E003F104084646FF2802D84FEA0E
:101D5000820803E0A2F108084FEA88084746D6F84F
:101D600000804FF00F0909FA07F928EA09080CFA70
:101D700007F900E088E048EA0908C6F80080D1F8D1
:101D8000048008F08058B8F1805F7DD100BFDFF893
:101D9000CC81D8F8188048F00108DFF8C091C9F864
:101DA0001880C846D8F8188008F00108CDF80080DF
:101DB00000BF00BF4FEAB9384FEA920958F82950DE
:101DC0004FEA82784FEA18794FF00F0808FA09F8BD
:101DD00025EA0805DFF88881434502D14FF0000865
:101DE00016E0DFF88081434502D14FF001080FE093
:101DF000DFF87481434502D14FF0020808E0DFF8B4
:101E00006C81434502D14FF0030801E04FF0040814
:101E10004FEA82794FEA197908FA09F848EA050584
:101E2000DFF84C814FEA920948F82950D1F8048034
:101E300008F48018B8F5801F0AD1DFF83881D8F887
:101E4000008048EA0008DFF82C91C9F8008009E01A
:101E5000DFF82081D8F8008028EA0008DFF8149124
:101E6000C9F80080D1F8048008F40018B8F5001F04
:101E700010D1DFF8008108F10408D8F8008048EAA2
:101E80000008DFF8F09000E05AE009F10409C9F811
:101E900000800DE0DFF8DC8008F10408D8F800804D
:101EA00028EA0008DFF8CC9009F10409C9F800809D
:101EB000D1F8048008F40038B8F5003F0ED1DFF8FF
:101EC000B480A8F10408D8F8008048EA0008DFF8D8
:101ED000A490A9F10409C9F800800DE0DFF894800E
:101EE000A8F10408D8F8008028EA0008DFF88490F8
:101EF000A9F10409C9F80080D1F8048008F48038F9
:101F0000B8F5803F0ED1DFF86C80A8F10808D8F84A
:101F1000008048EA0008DFF85C90A9F10809C9F8D8
:101F200000800DE0DFF84C80A8F10808D8F80080A8
:101F300028EA0008DFF83C90A9F10809C9F80080F8
:101F4000521CD1F8008028FA02F8B8F1000F7FF493
:101F500089AEBDE8F88700000000111000100240B3
:101F600000080140000C0140001001400014014035
:101F700008000140080401400AB1016101E00B04BE
:101F800003617047014800687047000000000020AE
:101F900070B504460CB9012070BD94F83D0028B915
:101FA000002084F83C00204600F03EFB242084F80A
:101FB0003D002068006820F001002168086020686A
:101FC000006840F40040216808602068006820F440
:101FD00000402168086000F097FD05465C49606894
:101FE000884206D85B48854201D2012007E00020E4
:101FF00005E05948854201D2012000E00020012877
:1020000000D1C9E75548B5FBF0F62068406820F0DC
:102010003F003043216848604D496068884201D8DC
:10202000701C07E04FF4967070434FF47A71B0FB68
:10203000F1F0401C2168096A21F03F010843216842
:10204000086243496068884214D8681E6168490084
:10205000B0FBF1F0401CC0F30B00042801D20420B7
:102060003DE0681E61684900B0FBF1F0401CC0F320
:102070000B0034E0A06838B9681E616801EB4101CB
:10208000B0FBF1F0401C0AE0681E616801EBC10280
:1020900002EB0111B0FBF1F0401C40F48040C0F3B2
:1020A0000B0008B901201AE0A06848B9681E6168F1
:1020B00001EB4101B0FBF1F0401CC0F30B000CE060
:1020C000681E616801EBC10202EB0111B0FBF1F087
:1020D000401CC0F30B0040F4804040F400402168F5
:1020E000C9694CF6FF72914308432168C861D4E97D
:1020F000070108432168096821F0C00108432168ED
:102100000860D4E9031008432168896848F2FF3267
:102110009143084321688860D4E905010843216898
:10212000C96821F0FF0108432168C8602068006881
:1021300040F001002168086000202064202084F81D
:102140003D000020206384F83E0000BF24E700002B
:10215000A086010080841E0000093D0040420F005F
:102160002DE9FE4F04460F4690469946DDE90CAB3B
:102170000E9E00200290FFF705FF054694F83D00F3
:10218000202872D119230122CA492046009501F066
:10219000E2FC10B10220BDE8FE8F00BF94F83C00C5
:1021A000012801D10220F6E7012084F83C0000BF9D
:1021B0002068006800F0010028B92068006840F03D
:1021C0000100216808602068006820F40060216830
:1021D0000860222084F83D00402084F83E00002062
:1021E0002064C4F824A0A4F82AB0608D2085B248E9
:1021F000E0624B46424639462046CDE9006501F093
:1022000057FB08B10120C6E7208D88B900BF002028
:10221000019020684069019020688069019000BFAA
:1022200000BF2068006840F40070216808604BE03F
:10223000208D01281AD12068006820F48060216870
:10224000086072B600BF00200190206840690190CC
:1022500020688069019000BF00BF2068006840F4DA
:1022600000702168086062B62EE020E1208D02280F
:1022700019D12068006840F400602168086072B6D7
:1022800000BF0020019020684069019020688069AB
:10229000019000BF00BF2068006820F480602168C2
:1022A000086062B610E02068006840F48060216831
:1022B000086000BF002001902068406901902068FC
:1022C0008069019000BF00BFE2E0208D03287DD827
:1022D000208D012815D12A463146204601F017FDF0
:1022E00008B1012057E720680069616A0870606AD8
:1022F000401C6062208D401E2085608D401E6085E0
:10230000C6E0208D02282CD1334600226B4920469E
:10231000009501F020FC08B101203CE772B620686E
:10232000006840F400702168086020680069616AF4
:102330000870606A401C6062208D401E2085608DA0
:10234000401E608562B620680069616A0870606A34
:10235000401C6062208D401E2085608D401E60857F
:1023600096E03346002255492046009501F0F3FBE4
:1023700008B101200FE72068006820F48060216820
:10238000086072B620680069616A0870606A401C63
:102390006062208D401E2085608D401E608548480B
:1023A00000681921B0FBF1F04FF47A71B0FBF1F045
:1023B000C0EBC00000EB8000029000BF0298401EFE
:1023C00002900298A8B90020206300E039E02020A4
:1023D00084F83D00002084F83E00206C40F020008E
:1023E000206462B600BF002084F83C0000BF0120DA
:1023F000D1E620684069C0F380000028DED0206864
:10240000006840F400702168086020680069616A13
:102410000870606A401C6062208D401E2085608DBF
:10242000401E608562B620680069616A0870606A53
:10243000401C6062208D401E2085608D401E60859E
:1024400026E02A463146204601F061FC08B1012011
:10245000A1E620680069616A0870606A401C6062D9
:10246000208D401E2085608D401E6085206840695B
:10247000C0F3800060B120680069616A0870606A1A
:10248000401C6062208D401E2085608D401E60854E
:10249000208D00287FF419AF202084F83D00002013
:1024A00084F83E0000BF84F83C0000BF73E60220C1
:1024B00071E60000020010000000FFFF04000100B0
:1024C0000C0000202DE9FC5F04460F46904699461B
:1024D000DDE90CAB0E9EFFF755FD054694F83D0077
:1024E00020287DD1192301224D492046009501F075
:1024F00032FB10B10220BDE8FC9F00BF94F83C0005
:10250000012801D10220F6E7012084F83C0000BF39
:102510002068006800F0010028B92068006840F0D9
:102520000100216808602068006820F400602168CC
:102530000860212084F83D00402084F83E000020FF
:102540002064C4F824A0A4F82AB0608D2085354802
:10255000E0624B46424639462046CDE9006501F02F
:1025600057FA08B10120C6E731E02A463146204635
:1025700001F012FC50B1206C042805D120680068DD
:1025800040F40070216808600120B4E7606A0078B8
:1025900021680861606A401C6062208D401E2085B1
:1025A000608D401E608520684069C0F3800070B176
:1025B000208D60B1606A007821680861606A401C03
:1025C0006062208D401E2085608D401E6085208DBC
:1025D0000028CAD12A463146204601F089FA00E097
:1025E0001CE050B1206C042805D12068006840F43C
:1025F00000702168086001207DE72068006840F4D1
:10260000007021680860202084F83D00002084F8D4
:102610003E0000BF84F83C0000BF6CE702206AE780
:10262000020010000000FFFF10B586B00446002035
:10263000029003900490059015492068884225D1A6
:1026400000BF1448806940F00800124988610846BC
:10265000806900F00800019000BF00BFC020029018
:10266000122003900320059002A90B48FFF7F4FA0B
:1026700000BF0848C06940F400100649C861084618
:10268000C06900F40010019000BF00BF06B010BD8B
:102690000054004000100240000C01400348006854
:1026A0000349097808440149086070470000002088
:1026B0000800002010B50848006840F010000649E6
:1026C0000860032000F0A8F80F2000F007F800F0E1
:1026D0002BF8002010BD00000020024070B5044619
:1026E0000E4800784FF47A71B1FBF0F00C4909689C
:1026F000B1FBF0F5284600F091FC08B1012070BD57
:10270000102C07D200222146501E00F047F8054841
:10271000046001E00120F2E70020F0E7080000205B
:102720000C0000200400002008B500BF114880699B
:1027300040F001000F4988610846806900F00100FF
:10274000009000BF00BF00BF0846C06940F0805045
:10275000C8610846C06900F08050009000BF00BF0B
:1027600000BF0549486820F0E06040F00070486014
:1027700000BF08BD001002400000014001460846AD
:10278000002809DB00F01F0301229A4043099B0047
:1027900003F1E023C3F8002100BF70472DE9F05F8B
:1027A00080460D461646002702F05CF9074639467A
:1027B0002A46334601F00700C0F1070ABAF1040FB8
:1027C00002D94FF0040A01E0C0F1070AD14600F136
:1027D000040ABAF1070F02D24FF0000A01E0A0F19B
:1027E000030AD4464FF0010A0AFA09FAAAF1010ACB
:1027F0000AEA020A0AFA0CFA4FF0010B0BFA0CFB78
:10280000ABF1010B0BEA030B4AEA0B0421464046ED
:1028100002F030F9BDE8F09F00BF00F00702064B60
:1028200019684FF6FF031940044B0B4343EA02219A
:10283000014B196000BF70470CED00E00000FA0585
:10284000F8B5044600260025207800F00100002895
:102850006BD000274348C06900F0805070B900BFBA
:102860004048C06940F080503E49C8610846C06990
:1028700000F08050009000BF00BF01273A48006878
:1028800000F48070B0B93848006840F48070364970
:102890000860FFF777FB064606E0FFF773FB801B37
:1028A000642801D90320F8BD2F48006800F4807027
:1028B0000028F2D02B48006A00F440752DB3A088A0
:1028C00000F44070A84220D02648006A20F44075E9
:1028D000012026490860002008602248056205F0B2
:1028E000010090B1FFF74EFB064608E0FFF74AFBF8
:1028F000801B41F28831884201D90320D3E719486F
:10290000006A00F002000028F0D01648006A20F4A7
:1029100040706168084313490862012F04D10846DA
:10292000C06920F08050C86100BF207800F002002C
:10293000022807D10B48406820F44040A1680843B2
:1029400008494860207800F01000102807D1054899
:10295000406820F48000E168084302494860002094
:10296000A1E7000000100240007000404004424215
:1029700070B504460D460CB9012070BD5A48006878
:1029800000F00700A8420ED25748006820F0070068
:102990002843554908600846006800F00700A8422F
:1029A00001D00120E9E7207800F0020002281DD1C3
:1029B000207800F00400042805D14C48406840F419
:1029C000E0604A494860207800F00800082805D1F6
:1029D0004648406840F46050444948604348406875
:1029E00020F0F000A168084340494860207800F0DA
:1029F000010078B36068012806D13C48006800F403
:102A0000003090B90120B8E76068022806D1374845
:102A1000006800F0007040B90120AEE7334800685C
:102A200000F0020008B90120A7E73048406820F014
:102A30000300616808432D494860FFF7A3FA064682
:102A400009E0FFF79FFA801B41F28831884202D9E2
:102A5000032092E707E02548406800F00C00616819
:102A6000B0EB810FEDD12048006800F00700A842CC
:102A70000ED91D48006820F0070028431A49086055
:102A80000846006800F00700A84201D0012074E762
:102A9000207800F00400042807D11448406820F48E
:102AA000E060E168084311494860207800F00800C0
:102AB000082808D10D48406820F46050216940EA98
:102AC000C1000A49486000F03FF808494968C1F36D
:102AD0000311074A515CC84006490860064800686F
:102AE000FFF7FCFD002048E70020024000100240F4
:102AF0009A5A00080C0000200400002001480068D9
:102B0000704700000C00002000B5FFF7F7FF0449F4
:102B10004968C1F30221034A515CC84000BD00006E
:102B200000100240AA5A000800B5FFF7E7FF044969
:102B30004968C1F3C221034A515CC84000BD00008E
:102B400000100240AA5A000870B50021002200249B
:102B500000230020134D696801F00C05F5B1042D28
:102B600002D0082D19D101E00F4819E00F4DC1F333
:102B70008346AB5D01F4803555B10A4D6D68C5F3F0
:102B800040450B4E725D084D5D43B5FBF2F402E02B
:102B9000084D03FB05F4204602E000BF024800BFD9
:102BA00000BF70BD0010024000127A00885A000871
:102BB000985A000800093D00F8B504460CB90120F8
:102BC000F8BD207800F00100002878D0F84840686F
:102BD00000F00C0004280CD0F548406800F00C0010
:102BE000082811D1F248406800F48030B0F5803FE9
:102BF0000AD1EF48006800F4003000285FD0606818
:102C000000285CD10120DBE700BF6068B0F5803FA1
:102C100006D1E748006840F48030E549086028E0C4
:102C2000606858B9E248006820F48030E0490860E4
:102C30000846006820F4802008601AE06068B0F55B
:102C4000A02F0BD1DA48006840F48020D8490860F2
:102C50000846006840F4803008600AE0D448006804
:102C600020F48030D24908600846006820F48020B3
:102C7000086000BF606888B1FFF784F9054606E088
:102C8000FFF780F9401B642801D9032098E7C84862
:102C9000006800F400300028F2D010E0FFF772F96D
:102CA000054606E0FFF76EF9401B642801D90320B2
:102CB00086E7BF48006800F400300028F2D1207891
:102CC00000F00200022857D1B948406800F00C001B
:102CD00050B1B748406800F00C00082818D1B4483B
:102CE000406800F4803098B9B148006800F00200F4
:102CF00020B12069012801D0012061E7AC480068BB
:102D000020F0F800616940EAC100A949086033E099
:102D10002069E8B10120A7490860FFF733F90546AB
:102D200006E0FFF72FF9401B022801D9032047E7EF
:102D30009F48006800F002000028F2D09C4800681C
:102D400020F0F800616940EAC1009949086013E089
:102D5000002098490860FFF715F9054606E0FFF7DF
:102D600011F9401B022801D9032029E79048006887
:102D700000F002000028F2D1207800F008000828B6
:102D80002DD1A069B8B101208B490860FFF7FAF88E
:102D9000054606E0FFF7F6F8401B022801D903209C
:102DA0000EE78348406A00F002000028F2D00120BC
:102DB00001F0B6FB13E000207F490860FFF7E2F85E
:102DC000054606E0FFF7DEF8401B022801D9032084
:102DD000F6E67748406A00F002000028F2D1207839
:102DE00000F00400042873D100277148C06900F086
:102DF000805070B900BF6E48C06940F080506C4987
:102E0000C8610846C06900F08050009000BF00BF54
:102E100001276A48006800F48070B0B9674800680C
:102E200040F4807065490860FFF7ACF8054606E09D
:102E3000FFF7A8F8401B642801D90320C0E65F48CB
:102E4000006800F480700028F2D000BFE06801281C
:102E500006D15748006A40F001005549086227E052
:102E6000E06858B95248006A20F0010050490862F1
:102E70000846006A20F00400086219E0E0680528AE
:102E80000BD14B48006A40F00400494908620846EB
:102E9000006A40F0010008620AE04548006A20F03C
:102EA0000100434908620846006A20F004000862F5
:102EB00000BFE068A0B1FFF765F8054609E0FFF73D
:102EC00061F8401B41F28831884202D9032077E63D
:102ED00022E03748006A00F002000028EFD012E03C
:102EE000FFF750F8054608E0FFF74CF8401B41F2A9
:102EF0008831884201D9032062E62D48006A00F03B
:102F000002000028F0D1012F05D12948C06920F026
:102F100080502749C86100BFE069C8B324484068B1
:102F200000F00C00082860D0E069022848D1002099
:102F300020490866FFF726F8054606E0FFF722F865
:102F4000401B022801D903203AE61948006800F026
:102F500000700028F2D1206AB0F5803F07D11448F4
:102F6000406820F40030A168084311494860D4E962
:102F7000080108430E49496821F4741108430C49BB
:102F8000486001200B490866FEF7FCFF054607E094
:102F90003DE0FEF7F7FF401B022801D903200FE6B2
:102FA0000348006800F000700028F2D02FE0000015
:102FB0000010024000004242800442420070004083
:102FC000002014490866FEF7DDFF054606E0FEF71F
:102FD000D9FF401B022801D90320F1E50E48006803
:102FE00000F000700028F2D111E0E069012800D162
:102FF000E6E50948466806F48031206A814204D13A
:1030000006F47011606A814201D00120D8E50020E9
:10301000D6E50000000042420010024070B50446B0
:103020002546681EB0F1807F01D301200FE0681EA5
:103030004FF0E02148610F214FF0FF3001F01AFD01
:1030400000204FF0E021886107200861002070BD5A
:1030500010B50346002200BF93F83C00012801D1BF
:10306000022010BD012083F83C0000BF22F0FF00C9
:10307000CC6840EA040222F440708C6840EA040202
:1030800022F480604C6840EA040222F400600C687C
:1030900040EA040222F480500C6940EA040222F45F
:1030A00000504C6940EA040222F48040CC6940EAB6
:1030B00004021868426400BF002083F83C0000BF8F
:1030C00000BFCEE730B502460B4600BF92F83C0089
:1030D000012801D1022030BD012082F83C0000BF50
:1030E000022082F83D00106844681068816824F06E
:1030F00070041868044310684460104D1068A842BA
:103100000BD01068B0F1804F07D00D4D1068A84269
:1031100003D00C4D1068A84205D121F080015868F9
:10312000014310688160012082F83D0000BF00204B
:1031300082F83C0000BF00BFCDE70000002C01403A
:10314000000400400008004010B504460CB90120FE
:1031500010BD94F83D0028B9002084F83C002046BA
:1031600000F026F8022084F83D00211D206801F0BF
:1031700033FA012084F8460000BF84F83E000121A4
:103180003F200155402001554120015500BF00BF9F
:10319000012084F842004320015544200155452078
:1031A000015500BF012084F83D000020D0E7000059
:1031B00008B5244A016891420DD100BF22498969AE
:1031C00041F40061204A91611146896901F400616E
:1031D000009100BF35E00168B1F1804F0DD100BF13
:1031E0001949C96941F00101174AD1611146C969FC
:1031F00001F00101009100BF23E0144A01689142EF
:103200000DD100BF1049C96941F002010E4AD161D8
:103210001146C96901F00201009100BF11E00C4A9A
:10322000016891420DD100BF0749C96941F004010D
:10323000054AD1611146C96901F00401009100BF3E
:1032400000BF08BD002C01400010024000040040F7
:10325000000800402DE9F04104460D46002700BF5C
:1032600094F83C00012802D10220BDE8F081012041
:1032700084F83C0000BF022084F83D002068866886
:1032800026F0770626F47F46206886602868502856
:1032900033D00CDC202850D004DC00284BD0102880
:1032A00051D149E0302849D040284CD139E060283C
:1032B0002DD0702807D0B0F5805F03D0B0F5005F47
:1032C00041D10DE041E0D5E902136A68206801F0C0
:1032D000CEF92068866846F077062068866034E07C
:1032E000D5E902136A68206801F0C1F92068806896
:1032F00040F480402168886027E0EA6869682068B7
:1033000001F086FA5021206801F0BCF91DE0EA685E
:103310006968206801F08FFA6021206801F0B2F935
:1033200013E0EA686968206801F072FA40212068B9
:1033300001F0A8F909E000BF00BF00BF29682068BC
:1033400001F0A0F901E0012700BF00BF012084F8CF
:103350003D0000BF002084F83C0000BF384684E7F1
:1033600010B586B0044600200290039004900590AA
:103370003C492068884217D100BF3B48806940F033
:103380000400394988610846806900F00400019012
:1033900000BF00BF0815029002200390059002A90B
:1033A0003248FEF759FC5BE02068B0F1804F16D13F
:1033B00000BF2D48806940F004002B498861084611
:1033C000806900F00400019000BF00BF022002905D
:1033D0000390059002A92548FEF73EFC40E02449F1
:1033E0002068884221D100BF1F48806940F0080052
:1033F0001D4988610846806900F00800019000BFFF
:1034000000BF1020029002200390059002A91948E5
:10341000FEF722FC00BF1849486820F4406040F0E5
:10342000E06040F4006048601AE014492068884277
:1034300016D100BF0C48806940F008000A49886135
:103440000846806900F00800019000BF00BF4815E1
:10345000029002200390059002A90648FEF7FCFBAB
:1034600006B010BD002C01400010024000080140D1
:1034700000040040000C0140000001400008004032
:103480002DE9F04104460D461646002700BF94F88A
:103490003C00012802D10220BDE8F081012084F81F
:1034A0003C0000BF36B1042E1BD0082E31D00C2EAC
:1034B0005ED145E02946206801F0EEF82068806979
:1034C00040F00800216888612068806920F00400CD
:1034D00021688861206880692969084321688861BA
:1034E00048E02946206801F007F92068806940F427
:1034F0000060216888612068806920F4806021680C
:10350000886120688069296940EA01202168886112
:1035100030E02946206801F023F92068C06940F0B6
:1035200008002168C8612068C06920F00400216893
:10353000C8612068C069296908432168C86119E029
:103540002946206801F040F92068C06940F4006015
:103550002168C8612068C06920F480602168C86162
:103560002068C069296940EA01202168C86101E03A
:10357000012700BF00BF00BF002084F83C0000BF4F
:10358000384689E710B504460CB9012010BD94F8FF
:103590003D0028B9002084F83C00204600F025F8C2
:1035A000022084F83D00211D206801F015F801205B
:1035B00084F8460000BF84F83E0001213F200155F9
:1035C000402001554120015500BF00BF012084F873
:1035D000420043200155442001554520015500BFBC
:1035E000012084F83D000020D0E7704770B5044604
:1035F0000D4615B994F83E000BE0042D02D13F2092
:10360000005D06E0082D02D14020005D01E0412070
:10361000005D012801D0012070BD1DB9022084F891
:103620003E000EE0042D03D102213F20015508E0A9
:10363000082D03D102214020015502E00221412042
:10364000015501222946206801F000F81949206837
:10365000884201D1012000E0002028B12068406CA0
:1036600040F40040216848641249206888420BD029
:103670002068B0F1804F07D00F492068884203D0FE
:103680000E49206888420CD12068806800F0070647
:10369000062E0CD02068006840F001002168086008
:1036A00005E02068006840F0010021680860002003
:1036B000B2E70000002C0140000400400008004078
:1036C00010B504460CB9012010BDA06900B100E09E
:1036D00000BF94F8410028B9002084F8400020463B
:1036E00000F02AF8242084F841002068C06820F403
:1036F00000502168C860204601F0B2F820680069D7
:1037000020F49040216808612068406920F02A0078
:10371000216848612068C06840F400502168C86092
:1037200000206064202084F8410084F842000020DA
:10373000606300BFC8E7000010B586B004460020F3
:1037400002900390049005901949206888422DD179
:1037500000BF1848C06940F400301649C8610846E7
:10376000C06900F40030019000BF00BF00BF0846F0
:10377000806940F0040088610846806900F0040018
:10378000019000BF00BF042002900220039003209C
:10379000059002A90848FEF75FFA08200290002071
:1037A0000390049002A90448FEF756FA06B010BD33
:1037B0000044004000100240000801402DE9F84F8D
:1037C00004460E46174699464FF0000A94F8410009
:1037D00020284AD106B117B90120BDE8F88F002092
:1037E0006064212084F84100FEF7CCFB8246A78468
:1037F000E784A068B0F5805F04D1206910B9002586
:10380000B04602E035464FF000081BE05346002268
:1038100080212046CDF8009001F0A0F808B10320E7
:10382000DBE745B9B8F80000C0F30800216848603C
:1038300008F1020803E02878216848606D1CE08CDC
:10384000401EE084E08C0028E0D153460022402155
:103850002046CDF8009001F081F808B10320BCE7C4
:10386000202084F841000020B7E70220B5E700BF20
:10387000FEE7014608684069C0F38020B0B16FF4EC
:1038800080600A68506100200863202081F83D00B4
:10389000002081F83E00086C40F00400086400BF7E
:1038A000002081F83C0000BF012070470020FCE7A9
:1038B0002DE9F84304460F4615469946DDE908868A
:1038C0002068006840F48060216808602068006813
:1038D00040F4807021680860434600224FF00111D7
:1038E0002046009600F037F960B12068006800F4C7
:1038F0008070B0F5807F02D14FF400702064032007
:10390000BDE8F88307F0FE002168086133464246AF
:103910003E49204600F07EF908B10120F0E700BFE3
:103920000020009020684069009020688069009025
:1039300000BF00BF32464146204600F02DFA50B18C
:10394000206C042805D12068006840F400702168CC
:1039500008600120D4E7B9F1010F03D1E8B2216872
:10396000086117E0C5F30720216808613246414627
:10397000204600F011FA50B1206C042805D12068CF
:10398000006840F40070216808600120B8E7E8B2E0
:103990002168086132464146204600F0FDF950B1E9
:1039A000206C042805D12068006840F4007021686C
:1039B00008600120A4E72068006840F48070216856
:1039C0000860434600224FF001112046009600F0A7
:1039D000C2F858B12068006800F48070B0F5807FAC
:1039E00002D14FF400702064032089E7F8B240F060
:1039F000010021680861334642460449204600F030
:103A000009F908B101207BE7002079E702000100F5
:103A10002DE9F8430446884615469946DDE90867CE
:103A20002068006840F480702168086033460022F6
:103A30004FF001112046009700F08DF860B120682A
:103A4000006800F48070B0F5807F02D14FF4007000
:103A500020640320BDE8F88308F0FE0021680861B7
:103A60003B4632462149204600F0D4F808B10120F7
:103A7000F0E700BF002000902068406900902068B7
:103A80008069009000BF00BF3A463146204600F0F2
:103A900083F950B1206C042805D12068006840F4F7
:103AA0000070216808600120D4E7B9F1010F03D14B
:103AB000E8B22168086117E0C5F3072021680861B2
:103AC0003A463146204600F067F950B1206C042890
:103AD00005D12068006840F400702168086001206A
:103AE000B8E7E8B2216808610020B3E702000100EE
:103AF00070B504460D46164625E02046FFF7B9FE90
:103B000008B1012070BD681CE8B1FEF73BFA801BCC
:103B1000A84200D8BDB920684069C0F3800090B9C0
:103B200000202063202084F83D00002084F83E001F
:103B3000206C40F02000206400BF002084F83C008E
:103B400000BF0120DEE720684069C0F38000002844
:103B5000D3D00020D6E72DE9F04104460D461746A4
:103B60001E46DDF8188038E0701CA8B3FEF70AFA8C
:103B7000A0EB0800B04200D876BBC5F3074001288F
:103B80000AD120684069A9B20840A9B2884201D18F
:103B900001200BE0002009E020688069A9B20840FC
:103BA000A9B2884201D1012000E00020B84214D11E
:103BB00000202063202084F83D00002084F83E008F
:103BC000206C40F02000206400BF002084F83C00FE
:103BD00000BF0120BDE8F081FFE7C5F307400128E1
:103BE0000AD120684069A9B20840A9B2884201D12F
:103BF00001200BE0002009E020688069A9B208409C
:103C0000A9B2884201D1012000E00020B842ABD027
:103C10000020DFE72DE9F04104460D4616461F4619
:103C200058E020684069C0F38020E8B1206800684F
:103C300040F40070216808606FF48060216848617A
:103C400000202063202084F83D00002084F83E00FE
:103C5000206C40F00400206400BF002084F83C0089
:103C600000BF0120BDE8F081701C90B3FEF78AF917
:103C7000C01BB04200D866BBC5F3074001280AD17B
:103C800020684069A9B20840A9B2884201D1012048
:103C90000BE0002009E020688069A9B20840A9B2C1
:103CA000884201D1012000E0002090B9002020636B
:103CB000202084F83D00002084F83E00206C40F075
:103CC0002000206400BF002084F83C0000BF0120D9
:103CD000C8E7FFE7C5F3074001280AD1206840691B
:103CE000A9B20840A9B2884201D101200BE000200E
:103CF00009E020688069A9B20840A9B2884201D1D0
:103D0000012000E0002000288BD00020AAE770B539
:103D100004460D46164637E020684069C0F300109F
:103D2000A0B16FF0100021684861002020632020BE
:103D300084F83D00002084F83E00206C206400BF21
:103D4000002084F83C0000BF012070BDFEF71AF986
:103D5000801BA84200D8BDB920684069C0F380101C
:103D600090B900202063202084F83D00002084F8D2
:103D70003E00206C40F02000206400BF002084F84A
:103D80003C0000BF0120E0E720684069C0F38010DC
:103D90000028C1D00020D8E770B504460D4616466D
:103DA00025E02046FFF765FD08B1012070BD681CC5
:103DB000E8B1FEF7E7F8801BA84200D8BDB920683B
:103DC0004069C0F3C01090B900202063202084F81F
:103DD0003D00002084F83E00206C40F0200020646C
:103DE00000BF002084F83C0000BF0120DEE720680F
:103DF0004069C0F3C0100028D3D00020D6E77CB5BE
:103E000004460D461646062269463B2000F082F81D
:103E10009DF801009DF8001040EA012000B22080CA
:103E20009DF803009DF8021040EA012000B22880AE
:103E30009DF805009DF8041040EA012000B2308092
:103E40007CBD7CB504460D461646062269464320D5
:103E500000F060F89DF801009DF8001040EA012094
:103E600000B220809DF803009DF8021040EA012076
:103E700000B228809DF805009DF8041040EA01205A
:103E800000B230807CBD08B50020009080216B20FE
:103E900000F052F8642001F053FD00216B2000F087
:103EA0004BF8032000F064F8002000F059F80021DE
:103EB000382000F041F80021232000F03DF80021D7
:103EC0006A2000F039F86946752000F011F89DF875
:103ED000000068280AD101216B2000F02DF8642031
:103EE00000F06BF800216C2000F026F808BD0000FF
:103EF0003EB504460D464FF4FA6001210B462246BA
:103F0000CDE900510290D0210148FEF729F93EBDCC
:103F1000F8000020FEB504460D4616464FF4FA6040
:103F200001232246D021CDE9005602900148FEF738
:103F300017F9FEBDF800002013B584B004464FF415
:103F4000FA60012105AA0B46CDE900210290224624
:103F5000D0210248FEF7B6FA06B010BDF8000020E6
:103F600010B50446E006010E1C20FFF7E5FF10BD6A
:103F700010B50446E006010E1B20FFF7DDFF10BD63
:103F800070B504460025BC2C01DB012510E0622C35
:103F900001DB02250CE02A2C01DB032508E0142CB0
:103FA00001DB042504E00A2C01DB052500E00625E1
:103FB00029461A20FFF7C0FF70BD70B504460025E2
:103FC000B4F57A7F02DD4FF47A7402E0042C00DA53
:103FD00004244FF47A7090FBF4F0401EC5B22946D9
:103FE0001920FFF7A9FF264604EBD671C1F34F0055
:103FF000FFF7C6FF70BD000010B508210748FFF7A6
:10400000F5FA04210648FFF7F1FA00210548FFF709
:10401000EDFA0C210448FFF7E9FA10BD4C0100202D
:1040200094010020DC010020240200200EB50020B5
:104030000090019002901248124908600021114836
:10404000816001210173002101754FF46021C1617C
:1040500000200C49486001210A480161FDF7ECFB92
:1040600008B1FCF78CFF092000900120019002901C
:1040700069460448FDF730FB08B1FCF780FF0EBD30
:10408000002401408400002008B500BF0A484069B0
:1040900040F00100084948610846406900F001000D
:1040A000009000BF00BF002207210B20FEF776FB27
:1040B0000B20FEF763FB08BD0010024000B585B081
:1040C0000020019002900390049000BF2D48806969
:1040D00040F010002B4988610846806900F010000C
:1040E000009000BF00BF00BF0846806940F020007C
:1040F00088610846806900F02000009000BF00BF82
:1041000000BF0846806940F0040088610846806965
:1041100000F00400009000BF00BF00BF08468069A7
:1041200040F0080088610846806900F008000090AF
:1041300000BF00BF01224FF440411348FDF71CFFB0
:1041400001224FF4C0511148FDF716FF4FF44040D3
:10415000019001200290002003900320049001A907
:104160000948FDF779FD4FF4C050019001200290FD
:10417000002003900320049001A90448FDF76CFD82
:1041800005B000BD00100240000C014000080140D5
:1041900010B50B480B4908600B48486000210948DE
:1041A0008160C1604FF48041016100214161816102
:1041B000C1610162FDF7ECFE08B1FCF7E0FE10BD45
:1041C00000540040F8000020A086010000B595B022
:1041D000002011901290139014900F9010901C21B9
:1041E00008A8FBF7B8FF20216846FBF7B4FF2B486F
:1041F0002B4908600320486000212948816040F273
:10420000E731C1600021016141618161FEF79CFFDE
:1042100008B1FCF7B4FE4FF48050119011A920486A
:10422000FFF718F808B1FCF7AAFE1D48FFF7AAF936
:1042300008B1FCF7A4FE00200F9010900FA91848B9
:10424000FEF740FF08B1FCF79AFE602008900020BE
:1042500009900A900B900C900D900E90082208A9DE
:104260000F48FFF70DF908B1FCF789FE0020009018
:1042700001900290039004904FF4005005900020AC
:10428000079069460648FEF7E3FE08B1FCF777FEA3
:104290000348FFF765F815B000BD0000002C014091
:1042A0004C01002000B58DB0002009900A900B90C1
:1042B0000C90079008901C216846FBF74CFF4FF0CC
:1042C00080401F4908600320486000211C4881602D
:1042D00040F2E731C160002101618161FEF734FFE6
:1042E00008B1FCF74CFE4FF48050099009A914481E
:1042F000FEF7B0FF08B1FCF742FE1148FFF742F9A4
:1043000008B1FCF73CFE00200790089007A90C4874
:10431000FEF7D8FE08B1FCF732FE602000900020C6
:10432000019002900490042269460548FFF7A8F81E
:1043300008B1FCF724FE0248FFF712F80DB000BDEB
:104340009401002000B58DB0002009900A900B90D8
:104350000C90079008901C216846FBF7FCFE204853
:10436000204908600320486000211E48816040F217
:10437000E731C160002101618161FEF7E5FE08B10E
:10438000FCF7FDFD4FF48050099009A91548FEF790
:1043900061FF08B1FCF7F3FD1248FFF7F3F808B12D
:1043A000FCF7EDFD00200790089007A90D48FEF7E7
:1043B00089FE08B1FCF7E3FD602000900020019029
:1043C00002900490002269460648FFF759F808B1A8
:1043D000FCF7D5FD0348FEF7C3FF0DB000BD00009C
:1043E00000040040DC01002000B58DB000200990E1
:1043F0000A900B900C90079008901C216846FBF7E0
:10440000AAFE2048204908600320486000211E4879
:10441000816040F2E731C160002101618161FEF7F6
:1044200093FE08B1FCF7ABFD4FF48050099009A949
:104430001548FEF70FFF08B1FCF7A1FD1248FFF782
:10444000A1F808B1FCF79BFD00200790089007A990
:104450000D48FEF737FE08B1FCF791FD6020009093
:1044600000200190029004900C2269460648FFF754
:1044700007F808B1FCF783FD0348FEF771FF0DB0A4
:1044800000BD0000000800402402002010B50B48C9
:104490000B4908604FF4E130486000210848816012
:1044A000C16001610C21416100218161C161FFF79F
:1044B00007F908B1FCF763FD10BD0000004400409F
:1044C0006C02002000BFFEE700BFFEE7704700005F
:1044D0002DE9F05F04464FF07F594FF07C512046A4
:1044E000FBF79CFE824625462E460C48A0EB66064E
:1044F000354629465046FBF791FE83462946FBF791
:104500008DFE80464946FBF786FE07462946FBF7A7
:1045100085FE05462846BDE8F09F0000DF59375F5D
:1045200008B508490968C9084FF47A72B1FBF2F17D
:104530004143009100BF00BF00994A1E009200292C
:10454000F9D108BD0C000020704710B5FEF7A6F8A1
:1045500010BD00B593B0282109A8FBF7FCFD14217C
:1045600004A8FBF7F8FD0020009001900290039052
:104570000120099000040A9000200B9001200D906A
:1045800002201090C10311914FF4E011129109A87B
:10459000FEF712FB08B1FCF7F2FC0F20049002209A
:1045A0000590002006904FF480600790002008904E
:1045B000022104A8FEF7DCF908B1FCF7E0FC0220B8
:1045C0000090800302906846FEF73AF908B1FCF7C4
:1045D000D6FC13B000BD704710B50268184B984266
:1045E00008D0B0F1804F05D0164B984202D0164B40
:1045F000984203D122F070024B681A43104B984244
:1046000008D0B0F1804F05D00E4B984202D00E4B2F
:10461000984203D122F44072CB681A4322F08003FF
:104620004C6943EA040202608B68C3620B688362D0
:10463000034B984201D10B6903630123436110BD11
:10464000002C0140000400400008004030B501F09B
:104650001F05012404FA05F3046A9C430462046AFA
:1046600001F01F0502FA05F52C43046230BD30B598
:104670000C46816821F47F4142EA03252543294302
:10468000816030BD0A46816821F0700142F0070365
:10469000194381607047000030B5026A056A25F051
:1046A000010505624368846924F0700424F0030462
:1046B0000D682C4322F002028D682A430D4DA8425A
:1046C00006D100BF22F00802CD682A4322F004027E
:1046D000084DA84207D123F4807323F400734D6979
:1046E0002B438D692B43436084614D6845630262AF
:1046F00030BD0000002C014030B5026A056A25F08B
:10470000100505624368846924F4E04424F440748D
:104710000D6844EA052422F020028D6842EA051261
:104720000E4DA84207D100BF22F08002CD6842EAB8
:10473000051222F04002094DA84209D123F48063FA
:1047400023F400634D6943EA85038D6943EA8503D9
:10475000436084614D688563026230BD002C014076
:1047600030B5026A056A25F4807505624368C4693C
:1047700024F0700424F003040D682C4322F400722A
:104780008D6842EA05220F4DA84207D100BF22F4EE
:104790000062CD6842EA052222F48062094DA842F7
:1047A00009D123F4805323F400534D6943EA0513E0
:1047B0008D6943EA05134360C4614D68C5630262B5
:1047C00030BD0000002C014030B5036A056A25F4B5
:1047D000805505624468C26922F4E04222F44072C6
:1047E0000D6842EA052223F400538D6843EA05333D
:1047F000064DA84204D124F480444D6944EA85144E
:104800004460C2614D680564036230BD002C014004
:1048100030B50B461446026A056A25F001050562AB
:10482000816921F0F00141EA041122F00A021A43E1
:104830008161026230BD30B50B461446026A056ADA
:1048400025F010050562816921F4704141EA0431C7
:1048500022F0A00242EA03128161026230BD000030
:1048600070B504462168096921F44051E26811439A
:10487000226811612269A1681143626941EA020557
:104880002168C96841F20C62914329432268D160D2
:104890002168496921F44071A2691143226851617C
:1048A0002D4A2168914202D1FEF73EF901E0FEF760
:1048B0002BF900EBC00101EB001162689200B1FB23
:1048C000F2F100EBC00202EB001263689B00B2FB46
:1048D000F3F26423B2FBF3F202EBC20303EB021226
:1048E000A1EB8201322202EB01116422B1FBF2F151
:1048F00001F0F00100EBC00202EB001263689B00C4
:10490000B2FBF3F26423B2FBF3F201EB021200EB11
:10491000C00101EB001163689B00B1FBF3F100EBF8
:10492000C00303EB00136668B600B3FBF6F364261E
:10493000B3FBF6F303EBC30606EB0313A1EB830112
:10494000322303EB01116423B1FBF3F101F00F01FA
:1049500011442268916070BD003801402DE9F0419A
:1049600004460D4617469846069E34E0701C88B3F0
:104970002EB1FDF707FBA0EB0800B0422BD900BF1A
:1049800000BF21680C3151E8001F21F4D07021686C
:104990000C3141E80002002AF3D100BF00BF00BF84
:1049A0002168143151E8001F21F001002168143101
:1049B00041E80002002AF3D100BF202084F8410022
:1049C00084F8420000BF002084F8400000BF0320AC
:1049D000BDE8F081FFE7206800682840A84201D1C7
:1049E000012000E00020B842C0D00020F0E700BF66
:1049F000FEE700000FB4054B10B503A9044A029866
:104A000000F090F910BC5DF814FB00005D5900083F
:104A10007C000020490050EAC12018BF04204A0D44
:104A200018BF40F0010040F2FF72B2EB515F08BFC7
:104A300040F00200012808BF05207047410008022D
:104A400018BF04200A0E18BF40F001004FF07F424B
:104A500032EA010108BF40F00200012808BF05202A
:104A60007047000002480068C0F302207047000051
:104A70000CED00E010B5002804DB0A07130E054A10
:104A8000135406E00A07140E034A00F00F031B1F1D
:104A9000D45410BD00E400E018ED00E02DE9F04131
:104AA0004F1E00EBC7010446D1E9000115461E4622
:104AB00037F006020DD02A463346FBF7C6FC7F1EB0
:104AC00004EBC703D3E90023FBF718FC37F0060219
:104AD000F1D1022F25D0042F13D0062F18BFBDE827
:104AE000F0812A463346FBF7B0FCD4E90A23FBF7F2
:104AF00005FC2A463346FBF7A8FCD4E90823FBF75C
:104B0000FDFB2A463346FBF7A0FCD4E90623FBF75E
:104B1000F5FB2A463346FBF798FCD4E90423FBF760
:104B2000EDFB2A463346FBF790FCD4E90223FBF762
:104B3000E5FB2A463346FBF788FCD4E90023BDE8B1
:104B4000F041FBF7DBBB0122FBF7ECBE0022134672
:104B500010461146FBF7EBBC024A00201107FBF799
:104B6000E1BE000001FDFFFFFBF700BB6FF05E013F
:104B70000807FBF731BF02E008C8121F08C1002A6E
:104B8000FAD170477047002001E001C1121F002ACE
:104B9000FBD1704701490860704700008000002089
:104BA0002DE9FF5F82B00021DDE90430020DDDF860
:104BB00040B0034318D044F61050A2F2FF324243F3
:104BC0001514119801281FD0A5EB0B00401C5FEABB
:104BD000000A4FF000064E4FDFF83891B0465046BD
:104BE00015D5CAF1000413E0119801244AA3012845
:104BF00001D16FEA0B010298119AC0E90031C0E9B6
:104C0000024206B0BDE8F09FCBF10000DFE70446AA
:104C10000021404A491842EB0450CDE9001012E04F
:104C2000E00707D032463B4640464946FBF70DFCBD
:104C30008046894632463B4610461946FBF705FC3E
:104C400006460F466410002CEAD1DDE90401DDE9D7
:104C50000023BAF1000F06DAFBF7F7FB42464B469A
:104C6000FBF7F3FB05E0FBF762FC42464B46FBF724
:104C70005EFC04460E460022284BFBF783FE03D859
:104C80004FF0FF30014607E00022254B2046314619
:104C9000FBF734FBFBF75DFE102409E0002C0ADB78
:104CA0000A220023FBF758FD039B30321A55641E7D
:104CB00050EA0102F2D1641C039AC4F111031444B6
:104CC000119A012A03D0012208430DD10AE00843BA
:104CD00004D000204FF0110B119072E7A3EB0B05ED
:104CE0006D1E0DE05B4504DD4FF0000205F101058E
:104CF00004E003DA4FF00002A5F10105002AECD030
:104D000002981199C0E90231C0E9004579E7000035
:104D1000000014400000F03F300000000000F043AD
:104D20000000E03F2DE9FF4F95B09A4688460646C1
:104D30000025EEE1252877D100242746F94A0121F4
:104D4000039400E0044316F8013F203B01FA03F00E
:104D50001042F7D130782A2811D06FF02F03307825
:104D6000A0F13002092A16D8039A44F0020402EB9B
:104D7000820203EB42021044761C0390EFE758F8DE
:104D8000042B0392002A03DA504244F400540390A7
:104D900044F00204761C30782E2816D116F8010F44
:104DA00044F004042A280DD06FF02F023078A0F1CF
:104DB0003003092B09D807EB870302EB4303C7181D
:104DC000761CF3E758F8047B761C30786C280FD0FB
:104DD00006DC4C2817D068280DD06A2814D104E0CE
:104DE000742810D07A280FD10DE044F400140AE0A2
:104DF00044F4801401E044F440147278824202D1F9
:104E000004F58014761C761C307866280BD013DCF1
:104E1000582877D009DC002875D04528F6D04628D8
:104E2000F4D047281AD193E118E0632835D06428DC
:104E300079D0652812D18BE1702873D008DC6728FF
:104E4000F1D069286FD06E280DD06F2806D1ACE064
:104E500073282CD0752874D0782853D052461799CF
:104E600090476D1C54E1C4F30250022809D0032876
:104E70000DD0D8F8001004280DD00D6008F10408FA
:104E800046E1D8F80010EA17C1E90052F6E7D8F871
:104E900000100D80F2E70D70F0E718F8041B8DF894
:104EA000001000208DF80100EB46012003E058F8C7
:104EB00004BB4FF0FF3061074FF0000102D40DE05A
:104EC00009F101018946B9420FDA8145F8DB1BF887
:104ED00009100029F4D108E009F101018946814255
:104EE000FADB1BF809100029F6D103985346A0EB12
:104EF000090721463846179A00F080FA284400EB4B
:104F0000090507E044E008E10DE01BF8010B5246FB
:104F100017999047B9F10109F7D25346214638460F
:104F2000179AF2E039E00A21C4F302524FF0000B65
:104F30000091022A06D058F8040BC117032A09D0A1
:104F40000AE023E008F1070020F00702F2E802017E
:104F5000904605E000B2C117042A01D140B2C11742
:104F6000002906DA0A460021404261EB02012D22A7
:104F700002E0220504D52B228DF80420012203E053
:104F8000E20701D02022F7E7914657E00A2100E02E
:104F900010214FF0000B00910BE010214FF0000B9F
:104FA00044F004040827009103E008204FF0000BB0
:104FB0000090C4F30252022A05D058F8040B0021D5
:104FC000032A08D008E008F1070020F00702F2E801
:104FD0000201904603E080B2042A00D1C0B24FF033
:104FE000000922072AD53278702A07D0DDF800C0E0
:104FF0008CF0100C5CEA0B0C05D00EE040228DF812
:105000000420012208E050EA010306D030238DF885
:1050100004308DF8052002229146009B83F008039E
:1050200053EA0B030AD150EA010201D1620705D508
:1050300030228DF804204FF001097F1E3278582A63
:1050400004D039A20C920CAA02920BE03BA2F9E721
:105050005B46009AFBF780FB0C9B9B5C029A521EFE
:105060000292137050EA0102F2D1029804A9081AC0
:1050700000F1200B600702D524F4803400E0012702
:105080005F4502DDA7EB0B0000E0002000EB0B0109
:10509000009003984944401A0390E00306D4534615
:1050A0002146179A039800F0A9F90544002706E065
:1050B00001A85246C05D179990476D1C7F1C4F4553
:1050C000F6DBE0030CD553462146179A039800F00F
:1050D00095F9054404E030205246179990476D1C1D
:1050E0000099481E00900029F5DC08E0029802991A
:1050F00052460078491C0291179990476D1CBBF1EC
:105100000001ABF1010BF1DC5BE100F065F9054456
:10511000761C307800287FF40DAE19B02846BDE823
:10512000F08F000009280100303132333435363732
:1051300038396162636465660000000030313233E3
:105140003435363738394142434445460000000083
:10515000600700D4062708F1070020F00700F0E8F8
:105160000223804603F0004C5FEA0C0001D097A0B8
:1051700009E0200501D596A005E0E00701D095A043
:1051800001E0AFF24C001390307823F00043652823
:105190000CD006DC452809D046281DD047287FD1F1
:1051A0003BE0662818D067287AD136E00021112F1D
:1051B00001DB112000E0781CCDE9000104A90CA856
:1051C000FFF7EEFCDDE90D010C9A4FF0000B07F143
:1051D0000109109200914EE04FF000400097CDE998
:1051E000011004A90CA8FFF7DBFCDDE90D020C9B04
:1051F0000F994FF0000B91461093009211B9791C52
:1052000000EB0109B7EB090003D4C0F1FF3B07F144
:105210000109A9EB0700019042E0012F00DA012704
:105220000021112F01DD112000E03846CDE90001F9
:1052300004A90CA8FFF7B4FCDDE90D010C9A00915C
:105240004FF0000BB946109221070FD4009A4A453F
:1052500003DA914601E0A9F10109B9F1010F05DD79
:10526000109AA9F10101515C3029F4D0B84202DA58
:1052700010F1040F03DA0121CDE9011010E000283C
:1052800003DC8344A9EB000102E0411C494500DD39
:105290008946A0EB0B00401C01904FF000400290AB
:1052A000200705D40198484502DB4FF0FF300190FC
:1052B00000208DF84B0002980DF14B07B0F1004F24
:1052C00025D002200C902B200D90029800280CDA9B
:1052D000404202902D200D9007E00A210298FBF732
:1052E00025FA3031029007F8011D0C99481E0C90E8
:1052F0000029F2DC02980028EFD1791E0D98087081
:10530000307800F0200040F0450007F8020D11A8A9
:10531000C01BC01D02901398007800B1012000EB63
:105320000901019801EBE071029801440398401AC9
:10533000401E0390E00306D453462146179A039873
:1053400000F05CF805441398007818B1524617999C
:1053500090476D1CE00323D553462146179A0398C6
:1053600000F04CF805441BE0BBF1000F07DB009890
:10537000584504DD1098179910F80B0001E01799B3
:1053800030205246904701980BF1010B401E05F169
:105390000105019004D12E205246179990476D1CAB
:1053A000B9F10001A9F10109DEDC05E017F8010BF4
:1053B0005246179990476D1C0299481E0290002989
:1053C000F4DC53462146179A03989EE62D00000010
:1053D0002B000000200000002DE9F04104460025CC
:1053E0001E461746880404D405E039462020B047FD
:1053F0006D1C641EF9D52846BDE8F0812DE9F04109
:10540000044600251E469046C80301D5302700E01B
:105410002027880404D505E041463846B0476D1C76
:10542000641EF9D52846BDE8F08100002DE9F04D55
:105430008D4F21F0004A86B005460C46BA452ADB5E
:10544000AAEB070028430AD08848824501DC1AD11C
:10545000CDB106B02846BDE8F04DFFF774BB844AD5
:10546000844B2846FAF7F1FF07460E46824A834BE3
:1054700028462146FAF7E9FF06B03A463346BDE82A
:10548000F04DFAF73BBF0120FFF784FB06B0BDE803
:10549000F04DFFF75BBB7A48824542DABAF1795F9B
:1054A0000BDA2846FFF7B6FA042808BFFFF754FBCB
:1054B000284606B02146BDE8F08D2A460B46104628
:1054C000FAF7C3FF834602466E480E460B46062196
:1054D0007844FFF7E3FA5A463346FAF7B6FF8046B8
:1054E00069488A465A46334604217844FFF7D6FA7B
:1054F0005A463346FAF7A9FF00223B46FAF7FEFE6A
:1055000002460B4640465146FBF711F82A46234611
:10551000FAF79BFF06B02A462346BDE8F04DFAF79E
:10552000EDBE284624F0004100223D463B46FAF7F6
:1055300089FF4FF0FF32FBF7F5F906460246534864
:105540000F460B4606217844FFF7A8FA32463B4641
:10555000FAF77BFFCDE900014D4832463B46042176
:105560007844FFF79BFA32463B46FAF76EFF00227B
:105570002B46FAF7C3FE834602913046394600F0C7
:105580005DFA804643480D46504517DCDDE90001D1
:105590005A46029BFAF7CBFF42462B46FAF755FFD5
:1055A00042462B46FAF7AAFE0122FBF7BBF9304A26
:1055B000304BFAF744FF304A304B4CE04FF0000AD2
:1055C00052460B464046FAF799FECDE90310524683
:1055D0002B4610461946FAF738FF32463B46FAF793
:1055E00031FFDDE90332FAF7A2FF06460F46DDE997
:1055F00000015A46029BFAF79AFF83460091012266
:1056000030463946FBF78EF9194A1A4BFAF71AFF5A
:1056100006460F46012240462946FBF783F95A46C3
:10562000009BFAF712FF32463B46FAF708FF0646A0
:105630000F46012250462946FBF774F90E4DDFF85C
:1056400058802A464346FAF7FDFE32463B46FAF7B3
:10565000F9FE2A464346FAF7F5FE002CD8BF81F042
:10566000004106B0BDE8F08D0000F03F0000F07F83
:10567000075C143326A6913C182D4454FB21F93FB6
:105680000000E03FE4050000FA0500006E050000A0
:10569000840500003333EF3FFB21E93F2DE9F0475C
:1056A0004FF0684202EB40030C460546B3F1654FEC
:1056B0003CBF02EB4102B2F1654F80F0CD8000BFEC
:1056C000C0F3C752C1F3C753D21A1B2A06DD10F02C
:1056D000004F14BF87488848BDE8F08712F11A0FC1
:1056E0002FDA11F0004F06D010F0004F0CBF8348A6
:1056F0008348BDE8F08721462846FAF7C1FD0646F3
:10570000FFF79CF9042808BFFFF730FA2846FFF797
:1057100095F905462046FFF791F904463046FFF714
:105720008DF9042D18BF052D08D1042C18BF052CA8
:1057300004D1002804BF0220FFF72CFA3046BDE850
:10574000F0874200B2EB410F25D910F0004F19BF8E
:105750006C4F6D4E6D4F6E4E224685F000441546DF
:105760000A4680F0004110460A1A5200B2F1807FCA
:105770003ED248406749DFF8A0A110F0004F18D092
:105780004FF03F483846FAF743FD0746514630464A
:10579000FAF73EFD17E011F0004F04BF0026374630
:1057A000E2D010F0004F19BF5C4F5D4E5D4F5E4E72
:1057B000DAE74FF07C583846FAF7D8FC07465146EE
:1057C0003046FAF7D3FC064641462846FAF726FD4E
:1057D0002146FAF7CBFC824621464046FAF71EFDE9
:1057E0002946FAF718FD5146FAF74AFD044604E047
:1057F00021462846FAF744FD04460146FAF70EFD15
:1058000080464A49FAF70AFD4949FAF7AFFC414692
:10581000FAF704FD4749FAF7A9FC4146FAF7FEFCFE
:105820004549FAF7A3FC4146FAF7F8FC4349FAF771
:105830009DFC054641462046FAF7F0FC2946FAF75A
:10584000EDFC3146FAF792FC2146FAF78FFC394617
:10585000BDE8F047FAF78ABC4FF07F42B2EB400F49
:1058600028BFB2EB410F03D2BDE8F047FFF77CB988
:1058700040EA01035B0008BF44F0FF410AD0B2EBED
:10588000400F08BFB2EB410F06D125F0804024F055
:10589000804105460C4613E7B2EB400F12BF5FEAAA
:1058A000410345F0FF4004F000413FF409AFB2EB83
:1058B000410F12BF5FEA400205F0004044F0FF4193
:1058C0003FF4FEAE4A0092EA40033FF5F9AE002AEB
:1058D000ACBF4FF09F464FF03E563146FAF79EFC64
:1058E000054631462046FAF799FC044628462146EB
:1058F000E6E60000DB0FC9BFDB0FC93FDB0F494005
:10590000DB0F49C00000C9BF22AAFDB90000C93F92
:1059100022AAFD390060ED3EC30ACE37000049C01F
:1059200022AA7DBA0000494022AA7D3A2DAD65BD6C
:105930008FB8D53D0FB511BE61C84C3EA8AAAABE0E
:10594000054A42430923B2FBF3F100BF00BF0A1E20
:10595000A1F10101FAD170474019010013B50C46BD
:105960004FF47A73012269460248FDF727FF009839
:105970001CBD00006C02002088B0FCF79BFEFEF707
:10598000E8FDFEF79BFBFEF77FFBFEF77FFDFEF7D2
:10599000FFFBFEF71BFCFEF785FCFEF7D3FCFEF7D2
:1059A00023FDFEF743FBFBF7B7F8FBF7ADFA15A0B5
:1059B000FFF720F8002005900690079020E002A84D
:1059C000FBF796F802A807C805AB07C30798FAF7D4
:1059D0006AFE04460D460698FAF765FE06460F462F
:1059E0000598FAF760FE804642460B4608A0CDE9CE
:1059F0000067CDE90245FEF7FDFF0A20FCF718F924
:105A0000DDE70000626567696E2E2E2E0D0A00002C
:105A1000B8A9D1F6BDC7A3BA252E31660909BAE1E6
:105A2000B9F6BDC7A3BA252E31660909C6ABBABD02
:105A3000BDC7A3BA252E31660D0A00002DE9F0413D
:105A400006460F46FAF7D4FF041E0D4618BF012084
:105A5000284320F00040C0F17F6000F1E040C00F1B
:105A60000ED0301C18BF0120384320F00040C0F198
:105A70007F6000F1E040C00F04BF0120FFF78AF80B
:105A800020462946BDE8F0810203040506070809FF
:105A90000A0B0C0D0E0F1010010200000000000098
:105AA00000000102030406070809000000000102CB
:105AB0000304000000000000555555555555C53FDD
:105AC0007D6FEB0312D6D4BF5544880E55C1C93F34
:105AD0003B8F68B52882A4BF88B20175E0EF493FCB
