:020000040800F2
:10000000A806002005010008B92D00088326000875
:10001000B52D0008E90600086B3300080000000059
:10002000000000000000000000000000E92E0008B1
:10003000FD06000800000000BD2D0008EB2E0008A2
:100040001F0100081F0100081F0100081F01000810
:100050001F0100081F0100081F0100081F01000800
:100060001F0100081F0100081F010008ED0600081D
:100070001F0100081F0100081F0100081F010008E0
:100080001F0100081F0100081F0100081F010008D0
:100090001F0100081F0100081F0100081F010008C0
:1000A0001F0100081F0100081F0100081F010008B0
:1000B0001F0100081F0100081F0100081F010008A0
:1000C0001F0100081F0100081F0100081F01000890
:1000D0001F0100081F0100081F0100081F01000880
:1000E0001F0100081F0100081F010008DFF810D0E1
:1000F00000F0BAFA00480047913C0008AFF30080D6
:10010000A80600200648804706480047FEE7FEE7AD
:10011000FEE7FEE7FEE7FEE7FEE7FEE7FEE7FEE7B7
:10012000772F0008ED000008202A04DB203A21FA8E
:1001300002F00021704721FA02F3D040C2F1200200
:100140009140084319467047D2B201E000F8012BF4
:10015000491EFBD270470022F6E710B513460A4647
:1001600004461946FFF7F0FF204610BD2DE9FE4F6B
:10017000804681EA0300C00F0C46009021F0004148
:1001800023F00045B8EB0200A94105D240462146C4
:1001900090461C460B46024623F00040104347D0D1
:1001A000270DC7F30A00C3F30A510290401A0190C9
:1001B00040286BDAC3F3130040F4801B009892468A
:1001C00020B10023D2EB030A63EB0B0B01985946D5
:1001D000C0F14002504600F098F906460D465046E0
:1001E0005946019A00F0A0F910EB08006141002483
:1001F00087EA115284EAE7731A4340D0009A62B347
:10020000019A012A4FEA075215DC001B61EB02013B
:100210004FF0004202EA0752CDE90042001C41F5CE
:10022000801132462B4600F0A0F903B0BDE8F08FF4
:1002300040462146F9E7001B61EB0201001C41F535
:10024000801300185B412018A2F5001747EB03014B
:1002500040EAD570B6196D4111E06D084FEA3606D7
:1002600045EAC0754FEA0752001B61EB0201001C12
:1002700041F5801149084FEA3000001951413246DA
:100280002B4603B0BDE8F04F00F060B900980122A2
:1002900040000023D0EB020263EBE073009821469C
:1002A0004FEAE074B8EB000061EB0401E9E783F08A
:1002B00000435BE781F0004158E72DE9FE4F81EAFA
:1002C000030404F0004421F0004100944FF0000BBF
:1002D00023F0004350EA01045ED052EA03045BD0ED
:1002E000C3F30A54C1F30A552C44A4F2F334019425
:1002F000A0FB0254C1F3130141F48011C3F31303B3
:1003000043F4801301FB024400FB034E840A970A66
:1003100044EA815447EA8357A4FB076802958D0A93
:1003200005FB07854FEA932C04FB0C542705029D1F
:100330004FEA065847EA1637B5EB08056EEB070C8F
:10034000870E920E47EA811742EA8312A7FB020149
:10035000B6EB0B0164EB00042B0D43EA0C335E1883
:1003600044EB1C50DA465146E7FB0201C5F3130487
:100370004FEA0B3343EA14534FEA0432019C43EA39
:100380000603A4F10C040294009CCDE900B400F033
:10039000ECF803B0BDE8F08F00200146F9E72DE945
:1003A000F04D81EA030404F0004B21F000451446AF
:1003B0004FF0000A23F0004150EA050220D054EA31
:1003C00001021DD0C5F30A570246C5F31303C1F35A
:1003D0001300C1F30A5640F4801543F48013A7EBD1
:1003E0000608101BD64608F2FD3873EB050002D351
:1003F00008F1010801E092185B41B8F1000F03DA3F
:1004000000200146BDE8F08D00204FF48011064623
:1004100084460EE0171B73EB050705D3121B63EB35
:10042000050306434CEA010C49084FEA30009218D4
:100430005B4150EA0107EDD152EA030012D082EA93
:10044000040083EA0501084305D0101BAB4106D226
:100450000122002306E000224FF0004302E06FF08B
:10046000010253101AEB06004CEB085110EB0A0086
:1004700041EB0B01BDE8F04D00F068B830B50B461C
:10048000014600202022012409E021FA02F59D42C4
:1004900005D303FA02F5491B04FA02F52844151E98
:1004A000A2F10102F1DC30BD2DE9F05F054600202C
:1004B00092469B4688460646814640241BE02846D5
:1004C000414647462246FFF72FFE53465A46C01A7A
:1004D000914110D311461846224600F016F82D1A05
:1004E00067EB01084F4622460120002100F00DF87D
:1004F00017EB00094E41201EA4F10104DFDC484641
:1005000031462A464346BDE8F09F202A04DB203AC4
:1005100000FA02F1002070479140C2F1200320FA56
:1005200003F3194390407047202A06DBCB17203A8B
:1005300041FA02F043EAE07306E041FA02F3D040E8
:10054000C2F12002914008431946704710B5141EAD
:1005500073F1000408DA401C41F1000192185B417C
:100560001A4301D120F0010010BD2DE9F04D924653
:100570009B4611B1B1FA81F202E0B0FA80F220326A
:100580009046FFF7C2FF04460F4640EA0A0041EAE0
:100590000B0153465A46084313D0114653EA010053
:1005A00019D0C8F140025046FFF7BEFD05460E4681
:1005B000504659464246FFF7A8FF084305D00120A0
:1005C00004E020463946BDE8F08D0020054346EAA8
:1005D000E0762C4337430A986305E40AA0EB080051
:1005E0000022FD0A44EA47540A3002D500200146A1
:1005F000E9E7010510196941DDE90845001969417C
:10060000BDE8F04DA2E7C1F30A52C1F3130140F275
:10061000FF3341F480119A4202DA0020014670470C
:1006200040F233439A42A2F2334202DC5242FFF7D5
:100630007BBDFFF76ABF000030B5041E71F10004F6
:1006400004DB4FF00044404264EB0101141E73F1DF
:10065000000405DB1C464FF00043524263EB0403E9
:10066000994208BF904230BD064C074D06E0E06855
:1006700040F0010394E8070098471034AC42F6D3E9
:10068000FFF738FD483D0008683D000870B5044696
:1006900000252068806800F0010018B32068806899
:1006A00020F001002168886000F082FC054613E01C
:1006B00000F07EFC401B02280ED92068806800F004
:1006C000010048B1A06A40F01000A062E06A40F06A
:1006D0000100E062012070BD2068806800F0010028
:1006E0000028E5D10020F6E700BFFEE710B502487C
:1006F00000F0B2F910BD000050000020704772B643
:1007000000BFFEE738B5024600230020009000BF7E
:1007100092F82400012801D1022038BD012082F87E
:10072000240000BF4868072812D21068406B0C797B
:10073000641E04EB84051F24AC40A0430D796D1E9C
:1007400005EB85050C68AC4020431468606327E026
:1007500048680D2812D21068006B0C79E41F04EB76
:1007600084051F24AC40A0430D79ED1F05EB8505E2
:100770000C68AC4020431468206311E01068C06A24
:100780000C790D3C04EB84051F24AC40A0430D798B
:100790000D3D05EB85050C68AC4020431468E06214
:1007A00008680A2812D31068C0680C780A3C04EB69
:1007B00044050724AC40A0430D780A3D05EB4505F0
:1007C0008C68AC4020431468E0600FE0106800695A
:1007D0000C7804EB44050724AC40A0430D7805EBEE
:1007E00045058C68AC4020431468206108681028D7
:1007F00002D00868112827D1174C1068A0421ED1DA
:100800001068806800F40000F0B91068806840F457
:1008100000001468A0600868102815D10F4800680F
:100820000F4CB0FBF4F000EB80004000009002E0C1
:100830000098401E009000980028F9D104E0906ACA
:1008400040F020009062012300BF002082F82400C5
:1008500000BF184661E70000002401400C000020A2
:1008600040420F002DE9F0410446002700250026F4
:10087000A84614B90120BDE8F081A06810B1207D20
:1008800000B100BFA06A30B90020E06284F8240003
:10089000204600F089F82046FFF7F8FE0746A06AD8
:1008A00000F01000002873D1002F71D1A06A20F44D
:1008B000885040F00200A062E16960680843217B33
:1008C00040EA41000643A068B0F5807F02D0A068EE
:1008D000012802D14FF4807000E000200543207D04
:1008E000012811D1207B38B9A069401E4FF4006166
:1008F00041EA4030054307E0A06A40F02000A062D2
:10090000E06A40F00100E0622068406820F469403D
:1009100028432168486020688068214908403043A6
:1009200021688860A068B0F5807F02D0A0680128A7
:1009300002D14FF4807000E00020B0F5807F03D139
:10094000208A401E4FEA00582068C06A20F47000D8
:1009500040EA08002168C8622068806811490840A0
:10096000B04208D10020E062A06A20F0020040F00E
:100970000100A06211E0A06A20F0020040F0100027
:10098000A062E06A40F00100E062012705E0FFE7B5
:10099000A06A40F01000A062012738466BE7000013
:1009A000FDF7E1FFFE0E1FFF10B586B004460020E4
:1009B00002900390049005902249206888423ED11D
:1009C00000BF2148806940F400701F4988610846D3
:1009D000806900F40070019000BF00BF00BF0846AE
:1009E000806940F0080088610846806900F00800CE
:1009F000019000BF00BF022002900320039002A9D3
:100A0000124800F03FF9124812490860002048607F
:100A10000021104881608021C16049000161890086
:100A20004161202181610902C16100F0E3F808B150
:100A3000FFF765FE00BF07482062446200BF06B0B2
:100A400010BD00000024014000100240000C0140D5
:100A5000080002405000002070B50446E06B0568B5
:100A60002068066894F84010042088402840002838
:100A700046D006F00400002842D02068006800F04C
:100A8000200028B92068006820F004002168086070
:100A900057492068884201D1042027E05449143185
:100AA0002068884201D1402020E051492831206847
:100AB000884201D1001519E04D493C312068884237
:100AC00002D14FF4804011E04949503120688842FA
:100AD00002D14FF4802009E0454964312068884202
:100AE00002D14FF4800001E04FF0806040490839A6
:100AF0004860E06A00287AD02046E16A884776E0BC
:100B000094F84010022088402840A0B306F002006C
:100B100088B32068006800F0200040B920680068B1
:100B200020F00A0021680860012084F82100304983
:100B30002068884201D1022028E02D491431206824
:100B4000884201D1202021E02949283120688842AB
:100B500001D140151AE026493C312068884202D173
:100B60004FF4005012E0224950312068884203D1EE
:100B70004FF400300AE017E01D49643120688842D4
:100B800002D14FF4001001E04FF00070184908390D
:100B9000486000BF002084F8200000BFA06A30B386
:100BA0002046A16A884722E094F840100820884037
:100BB0002840E0B106F00800C8B12068006820F0C5
:100BC0000E002168086094F8401001208840E16B15
:100BD00048600120A06384F8210000BF002084F851
:100BE000200000BF206B10B12046216B884770BDEC
:100BF000080002400146002209B901207047164B47
:100C00000868C01A1423B0FBF3F08000086412488F
:100C10000838C863022081F821000868026843F69A
:100C2000F0708243D1E901031843CB6818430B6984
:100C300018434B6918438B691843CB691843024327
:100C40000868026000208863012081F821000020EC
:100C500081F8200000BFD1E70800024070B50446CB
:100C600000F0A6F906462546681C10B10448007835
:100C7000054400BF00F09CF9801BA842FAD370BD68
:100C8000080000202DE9F8470346002294466EE153
:100C90004FF0010808FA02F4D1F8008008EA0400D5
:100CA000A0427DD1DFF8DCA2D1F80480A8EB0A09CC
:100CB000D0453AD014DCB8F1030F50D009DCB8F1BC
:100CC000000F31D0B8F1010F1CD0B8F1020F49D19B
:100CD00020E0B8F1110F18D0B8F1120F42D11EE088
:100CE000B9F5881F25D006DCB9F5803F20D0B9F5CD
:100CF000801F37D11AE0B9F5001F18D0B9F5041FCD
:100D000030D117E0D1F80CC02DE0D1F80C8008F1FB
:100D1000040C28E0D1F80C8008F1080C23E0D1F88D
:100D20000C8008F10C0C1EE000BF00BF00BF00BF2C
:100D300000BF00BFD1F80880B8F1000F02D14FF01A
:100D4000040C0BE0D1F80880B8F1010F03D14FF08B
:100D5000080C1C6102E04FF0080C5C6103E04FF0EE
:100D6000000C00E000BF00BFFF2801D8984601E05A
:100D700003F104084646FF2802D84FEA820803E040
:100D8000A2F108084FEA88084746D6F800804FF0DD
:100D90000F0909FA07F928EA09080CFA07F900E02F
:100DA00088E048EA0908C6F80080D1F8048008F015
:100DB0008058B8F1805F7DD100BFDFF8CC81D8F8D2
:100DC000188048F00108DFF8C091C9F81880C846BB
:100DD000D8F8188008F00108CDF8008000BF00BFE7
:100DE0004FEAB9384FEA920958F829504FEA827809
:100DF0004FEA18794FF00F0808FA09F825EA0805B4
:100E0000DFF88881434502D14FF0000816E0DFF893
:100E10008081434502D14FF001080FE0DFF8748173
:100E2000434502D14FF0020808E0DFF86C814345EA
:100E300002D14FF0030801E04FF004084FEA827935
:100E40004FEA197908FA09F848EA0505DFF84C81F4
:100E50004FEA920948F82950D1F8048008F4801824
:100E6000B8F5801F0AD1DFF83881D8F8008048EA49
:100E70000008DFF82C91C9F8008009E0DFF8208134
:100E8000D8F8008028EA0008DFF81491C9F800803B
:100E9000D1F8048008F40018B8F5001F10D1DFF86D
:100EA000008108F10408D8F8008048EA0008DFF85B
:100EB000F09000E05AE009F10409C9F800800DE063
:100EC000DFF8DC8008F10408D8F8008028EA000880
:100ED000DFF8CC9009F10409C9F80080D1F804804A
:100EE00008F40038B8F5003F0ED1DFF8B480A8F15F
:100EF0000408D8F8008048EA0008DFF8A490A9F1B7
:100F00000409C9F800800DE0DFF89480A8F1040816
:100F1000D8F8008028EA0008DFF88490A9F10409D5
:100F2000C9F80080D1F8048008F48038B8F5803F13
:100F30000ED1DFF86C80A8F10808D8F8008048EAE4
:100F40000008DFF85C90A9F10809C9F800800DE0FD
:100F5000DFF84C80A8F10808D8F8008028EA0008DB
:100F6000DFF83C90A9F10809C9F80080521CD1F8BB
:100F7000008028FA02F8B8F1000F7FF489AEBDE8CE
:100F8000F887000000001110001002400008014026
:100F9000000C014000100140001401400800014015
:100FA000080401400AB1016101E00B0403617047CC
:100FB00001480068704700000000002070B504463A
:100FC0000CB9012070BD94F83D0028B9002084F8C8
:100FD0003C00204600F0DAF8242084F83D00206828
:100FE000006820F00100216808602068006840F473
:100FF0000040216808602068006820F400402168F3
:10100000086000F033FB05465C496068884206D8FA
:101010005B48854201D2012007E0002005E05948E5
:10102000854201D2012000E00020012800D1C9E75B
:101030005548B5FBF0F62068406820F03F0030438B
:10104000216848604D496068884201D8701C07E0FB
:101050004FF4967070434FF47A71B0FBF1F0401C7E
:101060002168096A21F03F01084321680862434969
:101070006068884214D8681E61684900B0FBF1F0CE
:10108000401CC0F30B00042801D204203DE0681E80
:1010900061684900B0FBF1F0401CC0F30B0034E084
:1010A000A06838B9681E616801EB4101B0FBF1F03E
:1010B000401C0AE0681E616801EBC10202EB0111ED
:1010C000B0FBF1F0401C40F48040C0F30B0008B9C5
:1010D00001201AE0A06848B9681E616801EB41016F
:1010E000B0FBF1F0401CC0F30B000CE0681E61681F
:1010F00001EBC10202EB0111B0FBF1F0401CC0F3A7
:101100000B0040F4804040F400402168C9694CF66F
:10111000FF72914308432168C861D4E9070108437D
:101120002168096821F0C001084321680860D4E9FA
:10113000031008432168896848F2FF32914308434D
:1011400021688860D4E9050108432168C96821F055
:10115000FF0108432168C8602068006840F0010072
:101160002168086000202064202084F83D000020D1
:10117000206384F83E0000BF24E70000A086010041
:1011800080841E0000093D0040420F0010B586B06B
:1011900004460020029003900490059015492068B1
:1011A000884225D100BF1448806940F008001249E8
:1011B00088610846806900F00800019000BF00BF08
:1011C000C0200290122003900320059002A90B4832
:1011D000FFF758FD00BF0848C06940F400100649F9
:1011E000C8610846C06900F40010019000BF00BF4C
:1011F00006B010BD0054004000100240000C014039
:1012000003480068034909780844014908607047A9
:10121000000000200800002010B50848006840F0D9
:10122000100006490860032000F0A8F80F2000F025
:1012300007F800F02BF8002010BD0000002002404D
:1012400070B504460E4800784FF47A71B1FBF0F0A7
:101250000C490968B1FBF0F5284600F053FE08B1CF
:10126000012070BD102C07D200222146501E00F034
:1012700047F80548046001E00120F2E70020F0E7AC
:10128000080000200C0000200400002008B500BF6A
:101290001148806940F001000F4988610846806963
:1012A00000F00100009000BF00BF00BF0846C06909
:1012B00040F08050C8610846C06900F0805000903E
:1012C00000BF00BF00BF0549486820F0E06040F063
:1012D0000070486000BF08BD0010024000000140DF
:1012E00001460846002809DB00F01F0301229A404E
:1012F00043099B0003F1E023C3F8002100BF7047BE
:101300002DE9F05F80460D461646002702F040F8B2
:10131000074639462A46334601F00700C0F1070A5E
:10132000BAF1040F02D94FF0040A01E0C0F1070A34
:10133000D14600F1040ABAF1070F02D24FF0000AB9
:1013400001E0A0F1030AD4464FF0010A0AFA09FAB3
:10135000AAF1010A0AEA020A0AFA0CFA4FF0010B92
:101360000BFA0CFBABF1010B0BEA030B4AEA0B0483
:101370002146404602F014F8BDE8F09F00BF00F09F
:101380000702064B19684FF6FF031940044B0B4345
:1013900043EA0221014B196000BF70470CED00E0E9
:1013A0000000FA05F8B5044600260025207800F074
:1013B000010000286BD000274348C06900F080502E
:1013C00070B900BF4048C06940F080503E49C861D4
:1013D0000846C06900F08050009000BF00BF0127A0
:1013E0003A48006800F48070B0B93848006840F4AA
:1013F000807036490860FFF7DBFD064606E0FFF720
:10140000D7FD801B642801D90320F8BD2F48006850
:1014100000F480700028F2D02B48006A00F4407578
:101420002DB3A08800F44070A84220D02648006A5E
:1014300020F44075012026490860002008602248F9
:10144000056205F0010090B1FFF7B2FD064608E025
:10145000FFF7AEFD801B41F28831884201D903209D
:10146000D3E71948006A00F002000028F0D01648BF
:10147000006A20F440706168084313490862012F34
:1014800004D10846C06920F08050C86100BF2078B0
:1014900000F00200022807D10B48406820F44040C9
:1014A000A168084308494860207800F0100010281F
:1014B00007D10548406820F48000E16808430249EC
:1014C00048600020A1E700000010024000700040CA
:1014D0004004424270B504460D460CB9012070BD6F
:1014E0005A48006800F00700A8420ED2574800682A
:1014F00020F007002843554908600846006800F0BE
:101500000700A84201D00120E9E7207800F002009E
:1015100002281DD1207800F00400042805D14C4891
:10152000406840F4E0604A494860207800F00800D4
:10153000082805D14648406840F460504449486056
:101540004348406820F0F000A168084340494860E3
:10155000207800F0010078B36068012806D13C488B
:10156000006800F4003090B90120B8E760680228F4
:1015700006D13748006800F0007040B90120AEE79E
:101580003348006800F0020008B90120A7E730489E
:10159000406820F00300616808432D494860FFF768
:1015A00007FD064609E0FFF703FD801B41F2883185
:1015B000884202D9032092E707E02548406800F0FE
:1015C0000C006168B0EB810FEDD12048006800F09D
:1015D0000700A8420ED91D48006820F007002843E4
:1015E0001A4908600846006800F00700A84201D0C8
:1015F000012074E7207800F00400042807D1144883
:10160000406820F4E060E1680843114948602078B0
:1016100000F00800082808D10D48406820F4605008
:10162000216940EAC1000A49486000F03FF80849D2
:101630004968C1F30311074A515CC8400649086074
:1016400006480068FFF7FCFD002048E70020024044
:10165000001002402E3D00080C0000200400002075
:1016600001480068704700000C00002000B5FFF73B
:10167000F7FF04494968C1F30221034A515CC8409D
:1016800000BD0000001002403E3D000800B5FFF71D
:10169000E7FF04494968C1F3C221034A515CC840CD
:1016A00000BD0000001002403E3D000870B5002162
:1016B0000022002400230020134D696801F00C056E
:1016C000F5B1042D02D0082D19D101E00F4819E021
:1016D0000F4DC1F38346AB5D01F4803555B10A4D22
:1016E0006D68C5F340450B4E725D084D5D43B5FB1B
:1016F000F2F402E0084D03FB05F4204602E000BFCF
:10170000024800BF00BF70BD0010024000127A0006
:101710001C3D00082C3D000800093D00F8B50446BA
:101720000CB90120F8BD207800F00100002878D025
:10173000F848406800F00C0004280CD0F5484068D8
:1017400000F00C00082811D1F248406800F4803005
:10175000B0F5803F0AD1EF48006800F4003000285F
:101760005FD0606800285CD10120DBE700BF6068C3
:10177000B0F5803F06D1E748006840F48030E54985
:10178000086028E0606858B9E248006820F48030BA
:10179000E04908600846006820F4802008601AE0EC
:1017A0006068B0F5A02F0BD1DA48006840F48020C3
:1017B000D84908600846006840F4803008600AE0B4
:1017C000D448006820F48030D24908600846006898
:1017D00020F48020086000BF606888B1FFF7E8FB54
:1017E000054606E0FFF7E4FB401B642801D903200F
:1017F00098E7C848006800F400300028F2D010E0F4
:10180000FFF7D6FB054606E0FFF7D2FB401B642836
:1018100001D9032086E7BF48006800F400300028A3
:10182000F2D1207800F00200022857D1B948406870
:1018300000F00C0050B1B748406800F00C000828D8
:1018400018D1B448406800F4803098B9B1480068B5
:1018500000F0020020B12069012801D0012061E7D9
:10186000AC48006820F0F800616940EAC100A9496D
:10187000086033E02069E8B10120A7490860FFF75C
:1018800097FB054606E0FFF793FB401B022801D9B2
:10189000032047E79F48006800F002000028F2D0CC
:1018A0009C48006820F0F800616940EAC10099494D
:1018B000086013E0002098490860FFF779FB0546AF
:1018C00006E0FFF775FB401B022801D9032029E73A
:1018D0009048006800F002000028F2D1207800F063
:1018E000080008282DD1A069B8B101208B490860F3
:1018F000FFF75EFB054606E0FFF75AFB401B022898
:1019000001D903200EE78348406A00F00200002856
:10191000F2D0012001F054FA13E000207F49086062
:10192000FFF746FB054606E0FFF742FB401B022897
:1019300001D90320F6E67748406A00F0020000284B
:10194000F2D1207800F00400042873D100277148F8
:10195000C06900F0805070B900BF6E48C06940F0A7
:1019600080506C49C8610846C06900F08050009002
:1019700000BF00BF01276A48006800F48070B0B95A
:101980006748006840F4807065490860FFF710FB05
:10199000054606E0FFF70CFB401B642801D9032035
:1019A000C0E65F48006800F480700028F2D000BFF5
:1019B000E068012806D15748006A40F00100554907
:1019C000086227E0E06858B95248006A20F0010038
:1019D000504908620846006A20F00400086219E0D5
:1019E000E06805280BD14B48006A40F004004949E3
:1019F00008620846006A40F0010008620AE04548B3
:101A0000006A20F00100434908620846006A20F09D
:101A10000400086200BFE068A0B1FFF7C9FA0546FC
:101A200009E0FFF7C5FA401B41F28831884202D92C
:101A3000032077E622E03748006A00F00200002821
:101A4000EFD012E0FFF7B4FA054608E0FFF7B0FA6E
:101A5000401B41F28831884201D9032062E62D48BB
:101A6000006A00F002000028F0D1012F05D12948BA
:101A7000C06920F080502749C86100BFE069C8B341
:101A80002448406800F00C00082860D0E069022873
:101A900048D1002020490866FFF78AFA054606E08B
:101AA000FFF786FA401B022801D903203AE61948BD
:101AB000006800F000700028F2D1206AB0F5803F85
:101AC00007D11448406820F40030A1680843114948
:101AD0004860D4E9080108430E49496821F47411AB
:101AE00008430C49486001200B490866FFF760FA7B
:101AF000054607E03DE0FFF75BFA401B022801D9ED
:101B000003200FE60348006800F000700028F2D0C0
:101B10002FE00000001002400000424280044242D8
:101B200000700040002014490866FFF741FA05469E
:101B300006E0FFF73DFA401B022801D90320F1E53A
:101B40000E48006800F000700028F2D111E0E06952
:101B5000012800D1E6E50948466806F48031206A8C
:101B6000814204D106F47011606A814201D00120E3
:101B7000D8E50020D6E500000000424200100240F7
:101B800010B504460CB9012010BD606A38B9606810
:101B9000B0F5827F00D105E00021E16102E0002183
:101BA000216161610021A16294F8510028B90020EF
:101BB00084F85000204600F043F8022084F85100D9
:101BC0002068006820F0400021680860A08800F4C8
:101BD0008270218901F404410843A18901F4006164
:101BE0000843217C01F002010843217D01F001013D
:101BF0000843218B01F400710843217F01F0380173
:101C000008432021095D01F080010843218D01F482
:101C100000510843216808600421A06901EA1040CE
:101C2000216848602068C06920F400602168C861AC
:101C300000206065012084F851000020A4E7000026
:101C400010B586B0044600200290039004900590E1
:101C50001949206888422DD100BF1848806940F496
:101C60008050164988610846806900F480500190D0
:101C700000BF00BF00BF0846806940F004008861D3
:101C80000846806900F00400019000BF00BFA0205A
:101C90000290022003900320059002A90848FEF755
:101CA000F1FF4020029000200390049002A9044814
:101CB000FEF7E8FF06B010BD003001400010024002
:101CC000000801402DE9FF5F0446884691461D4605
:101CD0000E9E012002900020019000BF94F8500059
:101CE000012803D1022004B0BDE8F09F012084F850
:101CF000500000BFFFF75CF9074694F851B06068E8
:101D00000390AA46BBF1010F0BD00398B0F5827F78
:101D100004D1A06810B9BBF1040F02D002200190D9
:101D2000E9E0B8F1000F03D0B9F1000F00D015B908
:101D300001200190DFE094F85100042802D0052032
:101D400084F8510000206065C4F83890E587A587C5
:101D5000C4F83080E586A586206460642068006849
:101D600000F04000402805D02068006840F04000A6
:101D700021680860E068B0F5006F4DD1606810B16F
:101D8000BAF1010F09D1206B00882168C860206B6F
:101D9000801C2063E08E401EE08636E0206880686C
:101DA00000F00200022810D1E08E70B102980128E4
:101DB0000BD1206B00882168C860206B801C2063D9
:101DC000E08E401EE086002002902068806800F0CF
:101DD000010068B1E08F58B12068C068A16B08802D
:101DE000A06B801CA063E08F401EE0870120029062
:101DF000FFF7DEF8C01BB04207D3701C28B10320E8
:101E00000190012084F8510075E0E08E0028C5D1D2
:101E1000E08F0028C2D14DE0606810B1BAF1010F27
:101E200009D1206B007821680873206B401C206367
:101E3000E08E401EE08637E02068806800F00200F7
:101E4000022810D1E08E70B1029801280BD1206BCE
:101E5000007821680873206B401C2063E08E401ED0
:101E6000E086002002902068806800F0010068B1E0
:101E7000E08F58B12068C068A16B0870A06B401C4F
:101E8000A063E08F401EE08701200290FFF790F8EA
:101E9000C01BB04201D3701C00B92EB903200190C1
:101EA000012084F8510026E0E08E0028C4D1E08FA4
:101EB0000028C1D13A463146204600F095FF20B1B6
:101EC000012001902020606515E0A06850B900BF96
:101ED000002000902068C068009020688068009012
:101EE00000BF00BF606D10B10120019002E0012031
:101EF00084F8510000BF00BF002084F8500000BFEC
:101F00000198F0E670B504462546681EB0F1807F62
:101F100001D301200FE0681E4FF0E02148610F213E
:101F20004FF0FF3001F03CFA00204FF0E0218861D3
:101F300007200861002070BD10B50346002200BFD5
:101F400093F83C00012801D1022010BD012083F844
:101F50003C0000BF22F0FF00CC6840EA040222F4FB
:101F600040708C6840EA040222F480604C6840EAC9
:101F7000040222F400600C6840EA040222F480505B
:101F80000C6940EA040222F400504C6940EA040261
:101F900022F48040CC6940EA04021868426400BF21
:101FA000002083F83C0000BF00BFCEE730B50246FA
:101FB0000B4600BF92F83C00012801D1022030BD41
:101FC000012082F83C0000BF022082F83D0010682A
:101FD00044681068816824F070041868044310682D
:101FE0004460104D1068A8420BD01068B0F1804FCB
:101FF00007D00D4D1068A84203D00C4D1068A842C0
:1020000005D121F0800158680143106881600120EA
:1020100082F83D0000BF002082F83C0000BF00BFF6
:10202000CDE70000002C0140000400400008004003
:1020300010B504460CB9012010BD94F83D0028B934
:10204000002084F83C00204600F026F8022084F8A6
:102050003D00211D206800F08FFF012084F846001C
:1020600000BF84F83E0001213F200155402001556A
:102070004120015500BF00BF012084F842004320E9
:102080000155442001554520015500BF012084F829
:102090003D000020D0E7000008B5244A01689142C5
:1020A0000DD100BF2249896941F40061204A916144
:1020B0001146896901F40061009100BF35E00168B3
:1020C000B1F1804F0DD100BF1949C96941F001013B
:1020D000174AD1611146C96901F00101009100BFA1
:1020E00023E0144A016891420DD100BF1049C9692B
:1020F00041F002010E4AD1611146C96901F00201A5
:10210000009100BF11E00C4A016891420DD100BF5F
:102110000749C96941F00401054AD1611146C969FD
:1021200001F00401009100BF00BF08BD002C014078
:102130000010024000040040000800402DE9F0417A
:1021400004460D46002700BF94F83C00012802D148
:102150000220BDE8F081012084F83C0000BF02208D
:1021600084F83D002068866826F0770626F47F46CE
:10217000206886602868502833D00CDC202850D096
:1021800004DC00284BD0102851D149E0302849D038
:1021900040284CD139E060282DD0702807D0B0F508
:1021A000805F03D0B0F5005F41D10DE041E0D5E99B
:1021B00002136A68206800F019FF2068866846F0FC
:1021C00077062068866034E0D5E902136A682068E3
:1021D00000F00CFF2068806840F48040216888602F
:1021E00027E0EA686968206800F0D0FF5021206885
:1021F00000F007FF1DE0EA686968206800F0D9FF79
:102200006021206800F0FDFE13E0EA68696820683C
:1022100000F0BCFF4021206800F0F3FE09E000BFA1
:1022200000BF00BF2968206800F0EBFE01E0012735
:1022300000BF00BF012084F83D0000BF002084F8EB
:102240003C0000BF384684E710B586B00446002045
:1022500002900390049005903C492068884217D171
:1022600000BF3B48806940F0040039498861084656
:10227000806900F00400019000BF00BF08150290C3
:1022800002200390059002A93248FEF7FBFC5BE0B8
:102290002068B0F1804F16D100BF2D48806940F012
:1022A00004002B4988610846806900F00400019011
:1022B00000BF00BF022002900390059002A92548AC
:1022C000FEF7E0FC40E024492068884221D100BFAD
:1022D0001F48806940F008001D49886108468069F0
:1022E00000F00800019000BF00BF10200290022003
:1022F0000390059002A91948FEF7C4FC00BF1849D5
:10230000486820F4406040F0E06040F400604860BD
:102310001AE014492068884216D100BF0C48806931
:1023200040F008000A4988610846806900F008000A
:10233000019000BF00BF4815029002200390059055
:1023400002A90648FEF79EFC06B010BD002C014015
:10235000001002400008014000040040000C014051
:1023600000000140000800402DE9F04104460D4600
:102370001646002700BF94F83C00012802D1022035
:10238000BDE8F081012084F83C0000BF36B1042E86
:102390001BD0082E31D00C2E5ED145E02946206896
:1023A00000F038FE2068806940F0080021688861EC
:1023B0002068806920F004002168886120688069B5
:1023C000296908432168886148E02946206800F0AF
:1023D00051FE2068806940F40060216888612068AF
:1023E000806920F48060216888612068806929699B
:1023F00040EA01202168886130E02946206800F029
:102400006DFE2068C06940F008002168C86120683E
:10241000C06920F004002168C8612068C06929698A
:1024200008432168C86119E02946206800F08AFE47
:102430002068C06940F400602168C8612068C069F4
:1024400020F480602168C8612068C069296940EA79
:1024500001202168C86101E0012700BF00BF00BF63
:10246000002084F83C0000BF384689E710B50446D8
:102470000CB9012010BD94F83D0028B9002084F863
:102480003C00204600F025F8022084F83D00211D84
:10249000206800F071FD012084F8460000BF84F838
:1024A0003E0001213F2001554020015541200155AA
:1024B00000BF00BF012084F84200432001554420A2
:1024C00001554520015500BF012084F83D00002042
:1024D000D0E7704710B504460CB9012010BDA069C3
:1024E00000B100E000BF94F8410028B9002084F852
:1024F0004000204600F02AF8242084F8410020689B
:10250000C06820F400502168C860204600F066FED4
:102510002068006920F490402168086120684069C3
:1025200020F02A00216848612068C06840F400500B
:102530002168C86000206064202084F8410084F88D
:1025400042000020606300BFC8E7000010B586B0FD
:1025500004460020029003900490059019492068D9
:1025600088422DD100BF1848C06940F40030164998
:10257000C8610846C06900F40030019000BF00BF88
:1025800000BF0846806940F0040088610846806901
:1025900000F00400019000BF00BF04200290022060
:1025A00003900320059002A90848FEF76BFB082062
:1025B000029000200390049002A90448FEF762FBF9
:1025C00006B010BD00440040001002400008014069
:1025D0002DE9F84F04460E46174699464FF0000A7B
:1025E00094F8410020284AD106B117B90120BDE86E
:1025F000F88F00206064212084F84100FEF7D8FCA9
:102600008246A784E784A068B0F5805F04D1206982
:1026100010B90025B04602E035464FF000081BE037
:102620005346002280212046CDF8009000F054FE51
:1026300008B10320DBE745B9B8F80000C0F3080093
:102640002168486008F1020803E0287821684860A2
:102650006D1CE08C401EE084E08C0028E0D15346E5
:10266000002240212046CDF8009000F035FE08B150
:102670000320BCE7202084F841000020B7E70220B7
:10268000B5E700BFFEE700001FB510A103C9CDE903
:102690000201002000900190052202A9102000F004
:1026A000C5F805226946102000F042F8002108E034
:1026B00002A8405C804202D0012004B010BD481C3A
:1026C000C1B20529F4DB0020F7E70000A5A5A5A508
:1026D000A500000010B500224FF480711248FEF7EB
:1026E00061FC052211492A2000F0A0F801212120D7
:1026F00000F0C2F80121222000F0BEF82821252098
:1027000000F0BAF80521312000F0B6F80F2126209C
:1027100000F0B2F80F21202000F0AEF801221102E3
:102720000148FEF73FFC10BD0008014015000020E5
:1027300037B582B00C461546002210210D48FEF731
:1027400031FC002001906420012301AA02A900901D
:102750000948FFF7B7FA64202B46224601A90090EA
:102760000548FFF7AFFA012210210248FEF71AFCD4
:1027700005B030BD00080140E800002001B582B07E
:10278000002210210E48FEF70DFC0020019064206D
:10279000012301AA02A900900A48FFF793FA6420D6
:1027A000012301AA02A900900648FFF78BFA012233
:1027B00010210348FEF7F6FB9DF804000EBD000053
:1027C00000080140E800002070B50546FFF782FFD1
:1027D00000260720FFF7D2FF06463146272000F0EB
:1027E0004BF806F04000A8B1052229466120FFF70A
:1027F0009FFFFF21E22000F03FF8002406E02A5D61
:10280000214605A000F0B4FD601CC4B2052CF6DB27
:10281000002070BD0120FCE7726563656976655B29
:1028200025645D3D253032780D0A000037B582B051
:102830000D461446002210210D48FEF7B3FB002080
:1028400001906420012301AA02A900900948FFF722
:1028500039FA6420234601AA294600900548FFF76B
:1028600031FA012210210248FEF79CFB05B030BD71
:1028700000080140E800002003B583B000221021C9
:102880000D48FEF78FFB002002906420012302AA6E
:1028900003A900900948FFF715FA6420012302AA52
:1028A00004A900900548FFF70DFA01221021024803
:1028B000FEF778FB05B000BD00080140E8000020ED
:1028C0000EB5002000900190029012481249086055
:1028D00000211148816001210173002101754FF42D
:1028E0006021C16100200C49486001210A48016152
:1028F000FDF7B8FF08B1FDF702FF092000900120A5
:102900000190029069460448FDF7FCFE08B1FDF70E
:10291000F6FE0EBD002401402000002008B500BFD7
:102920000A48406940F0010008494861084640698A
:1029300000F00100009000BF00BF002207210B2023
:10294000FEF7DEFC0B20FEF7CBFC08BD00100240BA
:1029500000B585B00020019002900390049000BF64
:102960003348806940F01000314988610846806929
:1029700000F01000009000BF00BF00BF0846806953
:1029800040F0200088610846806900F02000009037
:1029900000BF00BF00BF0846806940F004008861A6
:1029A0000846806900F00400009000BF00BF00BF2F
:1029B0000846806940F0080088610846806900F098
:1029C0000800009000BF00BF012241F61011194815
:1029D000FEF7E8FA01224FF440411748FEF7E2FA09
:1029E00041F6101001900120029000200390032076
:1029F000049001A90F48FEF745F94FF440400190BB
:102A000001200290002003900320049001A90A48AD
:102A1000FEF738F94FF40070019000200290012079
:102A2000039001A90348FEF72DF905B000BD000091
:102A30000010024000080140000C014010B50B4896
:102A40000B4908600B484860002109488160C1605B
:102A50004FF480410161002141618161C1610162E6
:102A6000FEF7ACFA08B1FDF74AFE10BD0054004075
:102A700094000020A086010010B50E480E490860A1
:102A80004FF48270486000210B488160C160016191
:102A900041614FF4007181611021C1610021016227
:102AA000416281620A21C162FFF76AF808B1FDF74D
:102AB00026FE10BD00300140E800002000B595B0B2
:102AC000002011901290139014900F9010901C21E0
:102AD00008A8FDF740FB20216846FDF73CFB2B488A
:102AE0002B4908600320486000212948816040F29A
:102AF000E731C1600021016141618161FFF798FA0E
:102B000008B1FDF7FCFD4FF48050119011A9204849
:102B1000FFF714FB08B1FDF7F2FD1D48FFF7A6FC17
:102B200008B1FDF7ECFD00200F9010900FA9184898
:102B3000FFF73CFA08B1FDF7E2FD602008900020A5
:102B400009900A900B900C900D900E90082208A905
:102B50000F48FFF709FC08B1FDF7D1FD00200090F8
:102B600001900290039004904FF4005005900020D3
:102B7000079069460648FFF7DFF908B1FDF7BFFD8A
:102B80000348FFF761FB15B000BD0000002C0140B9
:102B90004001002000B58DB0002009900A900B90F4
:102BA0000C90079008901C216846FDF7D4FA4FF06E
:102BB00080401F4908600320486000211C48816054
:102BC00040F2E731C160002101618161FFF730FA15
:102BD00008B1FDF794FD4FF48050099009A91448FD
:102BE000FFF7ACFA08B1FDF78AFD1148FFF73EFC8C
:102BF00008B1FDF784FD00200790089007A90C4854
:102C0000FFF7D4F908B1FDF77AFD602000900020AD
:102C1000019002900490042269460548FFF7A4FB46
:102C200008B1FDF76CFD0248FFF70EFB0DB000BDCB
:102C30008801002000B58DB0002009900A900B900B
:102C40000C90079008901C216846FDF784FA2048F4
:102C5000204908600320486000211E48816040F23E
:102C6000E731C160002101618161FFF7E1F908B13D
:102C7000FDF745FD4FF48050099009A91548FFF76D
:102C80005DFA08B1FDF73BFD1248FFF7EFFB08B115
:102C9000FDF735FD00200790089007A90D48FFF7C4
:102CA00085F908B1FDF72BFD602000900020019010
:102CB00002900490002269460648FFF755FB08B1D0
:102CC000FDF71DFD0348FFF7BFFA0DB000BD000082
:102CD00000040040D001002000B58DB00020099014
:102CE0000A900B900C90079008901C216846FDF705
:102CF00032FA2048204908600320486000211E481D
:102D0000816040F2E731C160002101618161FFF71C
:102D10008FF908B1FDF7F3FC4FF48050099009A931
:102D20001548FFF70BFA08B1FDF7E9FC1248FFF769
:102D30009DFB08B1FDF7E3FC00200790089007A970
:102D40000D48FFF733F908B1FDF7D9FC602000907A
:102D500000200190029004900C2269460648FFF77B
:102D600003FB08B1FDF7CBFC0348FFF76DFA0DB08C
:102D700000BD0000000800401802002010B50B48FC
:102D80000B4908604FF4E130486000210848816039
:102D9000C16001610C21416100218161C161FFF7C6
:102DA00099FB08B1FDF7ABFC10BD000000440040EA
:102DB0006002002000BFFEE700BFFEE77047000092
:102DC00008B508490968C9084FF47A72B1FBF2F1F5
:102DD0004143009100BF00BF00994A1E00920029A4
:102DE000F9D108BD0C000020F8B504460D46164682
:102DF0002B46002280212046009600F009F828B1D9
:102E0000606D40F0200060650320F8BD0020FCE705
:102E10002DE9F84F04460D4690461E46DDF82890F1
:102E2000FEF7C6F8A0EB0900371AFEF7C1F8824694
:102E30002C480068C0F3CB307843009045E0701C0C
:102E4000002842D0FEF7B4F8A0EB0A00B84200D246
:102E5000A7BB2068406820F0E000216848606068F7
:102E6000B0F5827F0DD1A068B0F5004F03D0A06807
:102E7000B0F5806F05D12068006820F0400021681F
:102E80000860A06AB0F5005F0DD100BF206800683F
:102E900020F40050216808602068006840F4005069
:102EA0002168086000BF012084F8510000BF0020A5
:102EB00084F8500000BF0320BDE8F88FFFE70098BA
:102EC00000B900270098401E0090206880682840C4
:102ED000A84201D1012000E000204045AFD10020F0
:102EE000EAE700000C000020704710B5FEF788F9F3
:102EF00010BD00B593B0282109A8FDF72CF91421C5
:102F000004A8FDF728F9002000900190029003909A
:102F10000120099000040A9000200B9001200D90E0
:102F200002201090C10311914FF4E011129109A8F1
:102F3000FEF7F4FB08B1FDF7E2FB0F20049002203E
:102F40000590002006904FF48060079000200890C4
:102F5000022104A8FEF7BEFA08B1FDF7D0FB02205B
:102F60000090800302906846FEF71CFA08B1FDF756
:102F7000C6FB13B000BD704710B50268184B9842ED
:102F800008D0B0F1804F05D0164B984202D0164BB6
:102F9000984203D122F070024B681A43104B9842BA
:102FA00008D0B0F1804F05D00E4B984202D00E4BA6
:102FB000984203D122F44072CB681A4322F0800376
:102FC0004C6943EA040202608B68C3620B68836247
:102FD000034B984201D10B6903630123436110BD88
:102FE000002C0140000400400008004030B50C46B1
:102FF000816821F47F4142EA03252543294381600A
:1030000030BD0A46816821F0700142F00703194380
:103010008160704730B5026A056A25F001050562D6
:103020004368846924F0700424F003040D682C4381
:1030300022F002028D682A430D4DA84206D100BF3E
:1030400022F00802CD682A4322F00402084DA8426B
:1030500007D123F4807323F400734D692B438D69EA
:103060002B43436084614D684563026230BD0000BC
:10307000002C014030B5026A056A25F01005056292
:103080004368846924F4E04424F440740D6844EAFD
:10309000052422F020028D6842EA05120E4DA84256
:1030A00007D100BF22F08002CD6842EA051222F06B
:1030B0004002094DA84209D123F4806323F4006340
:1030C0004D6943EA85038D6943EA85034360846162
:1030D0004D688563026230BD002C014030B5026A44
:1030E000056A25F4807505624368C46924F070049C
:1030F00024F003040D682C4322F400728D6842EA28
:1031000005220F4DA84207D100BF22F40062CD680E
:1031100042EA052222F48062094DA84209D123F433
:10312000805323F400534D6943EA05138D6943EA44
:1031300005134360C4614D68C563026230BD000081
:10314000002C014030B5036A056A25F480550562FC
:103150004468C26922F4E04222F440720D6842EAF7
:10316000052223F400538D6843EA0533064DA84237
:1031700004D124F480444D6944EA85144460C2615A
:103180004D680564036230BD002C014030B50B462C
:103190001446026A056A25F001050562816921F07D
:1031A000F00141EA041122F00A021A43816102622D
:1031B00030BD30B50B461446026A056A25F010058D
:1031C0000562816921F4704141EA043122F0A002D4
:1031D00042EA03128161026230BD000070B504460C
:1031E0002168096921F44051E268114322681161A4
:1031F0002269A1681143626941EA02052168C96830
:1032000041F20C62914329432268D16021684969E7
:1032100021F44071A2691143226851612D4A21684D
:10322000914202D1FEF732FA01E0FEF71FFA00EBFD
:10323000C00101EB001162689200B1FBF2F100EBFA
:10324000C00202EB001263689B00B2FBF3F264233E
:10325000B2FBF3F202EBC20303EB0212A1EB820119
:10326000322202EB01116422B1FBF2F101F0F00114
:1032700000EBC00202EB001263689B00B2FBF3F2AA
:103280006423B2FBF3F201EB021200EBC00101EB8D
:10329000001163689B00B1FBF3F100EBC00303EB8B
:1032A00000136668B600B3FBF6F36426B3FBF6F3CF
:1032B00003EBC30606EB0313A1EB8301322303EBFD
:1032C00001116423B1FBF3F101F00F0111442268F5
:1032D000916070BD003801402DE9F04104460D4673
:1032E00017469846069E34E0701C88B32EB1FDF751
:1032F0005FFEA0EB0800B0422BD900BF00BF2168E1
:103300000C3151E8001F21F4D07021680C3141E8E4
:103310000002002AF3D100BF00BF00BF21681431B2
:1033200051E8001F21F001002168143141E800023A
:10333000002AF3D100BF202084F8410084F8420025
:1033400000BF002084F8400000BF0320BDE8F081EA
:10335000FFE7206800682840A84201D1012000E072
:103360000020B842C0D00020F0E700BFFEE7000018
:103370000FB4054B10B503A9044A029800F0F6F803
:1033800010BC5DF814FB0000753C00081C00002018
:1033900002480068C0F30220704700000CED00E016
:1033A00010B5002804DB0A07130E054A135406E083
:1033B0000A07140E034A00F00F031B1FD45410BD5C
:1033C00000E400E018ED00E002E008C8121F08C1A8
:1033D000002AFAD170477047002001E001C1121F96
:1033E000002AFBD1704700002DE9FF5F82B0002169
:1033F000DDE90430020DDDF840B0034318D044F697
:103400001050A2F2FF3242431514119801281FD028
:10341000A5EB0B00401C5FEA000A4FF000064E4F80
:10342000DFF83891B046504615D5CAF1000413E0D4
:10343000119801244AA3012801D16FEA0B010298D7
:10344000119AC0E90031C0E9024206B0BDE8F09F20
:10345000CBF10000DFE704460021404A491842EB67
:103460000450CDE9001012E0E00707D032463B4699
:1034700040464946FCF721FF8046894632463B4696
:1034800010461946FCF719FF06460F466410002C3B
:10349000EAD1DDE90401DDE90023BAF1000F06DA23
:1034A000FCF70BFF42464B46FCF707FF05E0FCF735
:1034B00076FF42464B46FCF772FF04460E4600225A
:1034C000284BFDF7B9F803D84FF0FF30014607E06D
:1034D0000022254B20463146FCF748FEFDF793F8C5
:1034E000102409E0002C0ADB0A220023FCF7DCFF91
:1034F000039B30321A55641E50EA0102F2D1641C5B
:10350000039AC4F111031444119A012A03D0012231
:1035100008430DD10AE0084304D000204FF0110BFE
:10352000119072E7A3EB0B056D1E0DE05B4504DD0A
:103530004FF0000205F1010504E003DA4FF000024C
:10354000A5F10105002AECD002981199C0E90231D9
:10355000C0E9004579E70000000014400000F03F9A
:10356000300000000000F0430000E03F2DE9FF4F75
:1035700095B09A46884606460025EEE1252877D183
:1035800000242746F94A0121039400E0044316F879
:10359000013F203B01FA03F01042F7D130782A288E
:1035A00011D06FF02F033078A0F13002092A16D81D
:1035B000039A44F0020402EB820203EB420210443D
:1035C000761C0390EFE758F8042B0392002A03DAE5
:1035D000504244F40054039044F00204761C3078C6
:1035E0002E2816D116F8010F44F004042A280DD015
:1035F0006FF02F023078A0F13003092B09D807EBC8
:10360000870302EB4303C718761CF3E758F8047BE3
:10361000761C30786C280FD006DC4C2817D0682830
:103620000DD06A2814D104E0742810D07A280FD164
:103630000DE044F400140AE044F4801401E044F482
:1036400040147278824202D104F58014761C761CF4
:10365000307866280BD013DC582877D009DC002896
:1036600075D04528F6D04628F4D047281AD193E1E2
:1036700018E0632835D0642879D0652812D18BE111
:10368000702873D008DC6728F1D069286FD06E28C5
:103690000DD06F2806D1ACE073282CD0752874D0DB
:1036A000782853D05246179990476D1C54E1C4F3C3
:1036B0000250022809D003280DD0D8F800100428A1
:1036C0000DD00D6008F1040846E1D8F80010EA17A3
:1036D000C1E90052F6E7D8F800100D80F2E70D704E
:1036E000F0E718F8041B8DF8001000208DF8010099
:1036F000EB46012003E058F804BB4FF0FF306107B0
:103700004FF0000102D40DE009F101018946B942F0
:103710000FDA8145F8DB1BF809100029F4D108E025
:1037200009F1010189468142FADB1BF809100029E1
:10373000F6D103985346A0EB090721463846179A5D
:1037400000F080FA284400EB090507E044E008E1B6
:103750000DE01BF8010B524617999047B9F101098A
:10376000F7D2534621463846179AF2E039E00A214B
:10377000C4F302524FF0000B0091022A06D058F811
:10378000040BC117032A09D00AE023E008F107005F
:1037900020F00702F2E80201904605E000B2C117EE
:1037A000042A01D140B2C117002906DA0A460021D5
:1037B000404261EB02012D2202E0220504D52B22BA
:1037C0008DF80420012203E0E20701D02022F7E770
:1037D000914657E00A2100E010214FF0000B0091C4
:1037E0000BE010214FF0000B44F004040827009177
:1037F00003E008204FF0000B0090C4F30252022AAD
:1038000005D058F8040B0021032A08D008E008F17D
:10381000070020F00702F2E80201904603E080B2C0
:10382000042A00D1C0B24FF0000922072AD532780D
:10383000702A07D0DDF800C08CF0100C5CEA0B0C8D
:1038400005D00EE040228DF80420012208E050EA65
:10385000010306D030238DF804308DF805200222B4
:103860009146009B83F0080353EA0B030AD150EA08
:10387000010201D1620705D530228DF804204FF0F6
:1038800001097F1E3278582A04D039A20C920CAA62
:1038900002920BE03BA2F9E75B46009AFCF704FEBC
:1038A0000C9B9B5C029A521E0292137050EA01021A
:1038B000F2D1029804A9081A00F1200B600702D582
:1038C00024F4803400E001275F4502DDA7EB0B0004
:1038D00000E0002000EB0B01009003984944401ADF
:1038E0000390E00306D453462146179A039800F04C
:1038F000A9F90544002706E001A85246C05D1799C2
:1039000090476D1C7F1C4F45F6DBE0030CD55346FA
:103910002146179A039800F095F9054404E03020F9
:103920005246179990476D1C0099481E0090002937
:10393000F5DC08E00298029952460078491C029191
:10394000179990476D1CBBF10001ABF1010BF1DC45
:103950005BE100F065F90544761C307800287FF4BF
:103960000DAE19B02846BDE8F08F0000092801000F
:1039700030313233343536373839616263646566E5
:1039800000000000303132333435363738394142A7
:103990004344454600000000600700D4062708F1B4
:1039A000070020F00700F0E80223804603F0004CF7
:1039B0005FEA0C0001D097A009E0200501D596A090
:1039C00005E0E00701D095A001E0AFF24C001390B4
:1039D000307823F0004365280CD006DC452809D058
:1039E00046281DD047287FD13BE0662818D067289D
:1039F0007AD136E00021112F01DB112000E0781C84
:103A0000CDE9000104A90CA8FFF7EEFCDDE90D01EA
:103A10000C9A4FF0000B07F10109109200914EE053
:103A20004FF000400097CDE9011004A90CA8FFF762
:103A3000DBFCDDE90D020C9B0F994FF0000B91466A
:103A40001093009211B9791C00EB0109B7EB090042
:103A500003D4C0F1FF3B07F10109A9EB0700019076
:103A600042E0012F00DA01270021112F01DD112092
:103A700000E03846CDE9000104A90CA8FFF7B4FC2A
:103A8000DDE90D010C9A00914FF0000BB946109240
:103A900021070FD4009A4A4503DA914601E0A9F1C3
:103AA0000109B9F1010F05DD109AA9F10101515C7D
:103AB0003029F4D0B84202DA10F1040F03DA012100
:103AC000CDE9011010E0002803DC8344A9EB0001DC
:103AD00002E0411C494500DD8946A0EB0B00401C7B
:103AE00001904FF000400290200705D4019848450E
:103AF00002DB4FF0FF30019000208DF84B00029860
:103B00000DF14B07B0F1004F25D002200C902B2077
:103B10000D90029800280CDA404202902D200D9062
:103B200007E00A210298FCF7A9FC3031029007F85F
:103B3000011D0C99481E0C900029F2DC0298002807
:103B4000EFD1791E0D980870307800F0200040F019
:103B5000450007F8020D11A8C01BC01D0290139864
:103B6000007800B1012000EB0901019801EBE07140
:103B7000029801440398401A401E0390E00306D4C3
:103B800053462146179A039800F05CF805441398B1
:103B9000007818B15246179990476D1CE00323D561
:103BA00053462146179A039800F04CF805441BE051
:103BB000BBF1000F07DB0098584504DD10981799FA
:103BC00010F80B0001E017993020524690470198F9
:103BD0000BF1010B401E05F10105019004D12E20CF
:103BE0005246179990476D1CB9F10001A9F10109DE
:103BF000DEDC05E017F8010B5246179990476D1C63
:103C00000299481E02900029F4DC53462146179A77
:103C100003989EE62D0000002B000000200000000D
:103C20002DE9F041044600251E461746880404D4B9
:103C300005E039462020B0476D1C641EF9D52846A2
:103C4000BDE8F0812DE9F041044600251E4690466E
:103C5000C80301D5302700E02027880404D505E0FB
:103C600041463846B0476D1C641EF9D52846BDE86C
:103C7000F081000013B50C464FF47A7301226946B7
:103C80000248FEF7A5FC00981CBD00006002002061
:103C90001CB5FDF7C1FAFFF72CF9FEF759FEFEF748
:103CA0003DFEFFF76BF8FEF7C9FEFEF707FFFEF7D4
:103CB00071FFFEF7BFFFFFF70FF8FEF701FEFEF7FB
:103CC000DBFE0CA0FFF754FBFEF7DEFC18B90CA0DE
:103CD000FFF74EFB02E00DA0FFF74AFB002000902B
:103CE000019005E06846FEF76FFD0420FCF7B6FF83
:103CF000F8E70000626567696E2E2E2E0D0A00003F
:103D0000D0A3D1E9B3C9B9A6210D0A00D0A3D1E946
:103D1000CAA7B0DC2E2E2E0D0A00000002030405F7
:103D2000060708090A0B0C0D0E0F10100102000007
:103D3000000000000000010203040607080900005B
:103D40000000010203040000683D0008000000209C
:103D500020000000C8330008883D00082000002033
:103D600088060000D83300080000000010000000A2
:103D7000010000000024F4000A03060E010A0306F5
:083D80000E010000000000002C
:04000005080000ED02
:00000001FF
