:020000040800F2
:100000005808002005010008A1500008A34100087D
:100010009D500008C91400085D570008000000004A
:100020000000000000000000000000004D52000829
:100030005515000800000000A55000084F520008A8
:100040001F0100081F0100081F0100081F01000810
:100050001F0100081F0100081F0100081F01000800
:100060001F0100081F0100081F01000845150008B6
:100070001F0100081F0100081F0100081F010008E0
:100080001F0100081F0100081F0100081F010008D0
:100090001F0100081F0100081F0100081F010008C0
:1000A0001F0100081F0100081F0100081F010008B0
:1000B0001F0100081F0100081F0100081F010008A0
:1000C0001F0100081F0100081F0100081F01000890
:1000D0001F0100081F0100081F0100081F01000880
:1000E0001F0100081F0100081F010008DFF810D0E1
:1000F00000F018FC00480047AD5F0008AFF3008037
:10010000580800200648804706480047FEE7FEE7FB
:10011000FEE7FEE7FEE7FEE7FEE7FEE7FEE7FEE7B7
:10012000DB520008ED000008202A04DB203A21FA07
:1001300002F00021704721FA02F3D040C2F1200200
:100140009140084319467047D2B201E000F8012BF4
:10015000491EFBD270470022F6E710B513460A4647
:1001600004461946FFF7F0FF204610BDF0B480EAC0
:100170000102D40F4200B2EB410F02D20246084600
:1001800011464A0042D0C30DDDB2C1F3C752AD1AC9
:10019000202D35DAC1F3160141F4000204B15242B8
:1001A000C5F1200602FA06F12A411044B3EBD05FF4
:1001B00023D0C4B1012DA0EBC35009DCF0BC4FF03B
:1001C000004202EAC352DBB200F5000000F098BA28
:1001D000400000F1807000EBC350A0F1807040EA55
:1001E000D170490009E0490841EAC071A0EBC35051
:1001F00000F50000400800EBC350F0BC00F077BAF7
:100200006142012202EB4101001BF6E7F0BC70479E
:1002100081F00041AAE780F00040A7E780EA0102F0
:1002200010B502F00043400022D04A001FD0010E5A
:1002300001EB1261C0F35600C2F3560240F4000015
:1002400042F40002A0FB022000047F39140400D015
:10025000401C50EA124001D44000491EC2B20C06B4
:1002600004EBD010401C4008802A02D003E000209C
:1002700010BD20F00100002900DA0020184310BD55
:1002800030B480EA010202F0004530F0004221F073
:10029000004013D090B1C30DD40DC2F31601C0F3CA
:1002A0001600E41A41F4000140F400027D3491424A
:1002B00001D3641C00E04900002C02DA30BC0020AD
:1002C00070474FF400000023914201D3891A034381
:1002D00040084FEA4101F7D151B1914202D14FF0AC
:1002E000004105E002D24FF0010101E06FF0010191
:1002F00003EBC450284430BC00F0F9B92DE9FE4F9F
:10030000804681EA0300C00F0C46009021F00041B6
:1003100023F00045B8EB0200A94105D24046214632
:1003200090461C460B46024623F00040104347D03F
:10033000270DC7F30A00C3F30A510290401A019037
:1003400040286BDAC3F3130040F4801B00989246F8
:1003500020B10023D2EB030A63EB0B0B0198594643
:10036000C0F14002504600F0A1F906460D46504645
:100370005946019A00F0A9F910EB080061410024E8
:1003800087EA115284EAE7731A4340D0009A62B3B5
:10039000019A012A4FEA075215DC001B61EB0201AA
:1003A0004FF0004202EA0752CDE90042001C41F53D
:1003B000801132462B4600F0E0F903B0BDE8F08F23
:1003C00040462146F9E7001B61EB0201001C41F5A4
:1003D000801300185B412018A2F5001747EB0301BA
:1003E00040EAD570B6196D4111E06D084FEA360646
:1003F00045EAC0754FEA0752001B61EB0201001C81
:1004000041F5801149084FEA300000195141324648
:100410002B4603B0BDE8F04F00F0A0B900980122D0
:1004200040000023D0EB020263EBE073009821460A
:100430004FEAE074B8EB000061EB0401E9E783F0F8
:1004400000435BE781F0004158E72DE9FE4F81EA68
:10045000030404F0004421F0004100944FF0000B2D
:1004600023F0004350EA01045ED052EA03045BD05B
:10047000C3F30A54C1F30A552C44A4F2F334019493
:10048000A0FB0254C1F3130141F48011C3F3130321
:1004900043F4801301FB024400FB034E840A970AD5
:1004A00044EA815447EA8357A4FB076802958D0A02
:1004B00005FB07854FEA932C04FB0C542705029D8E
:1004C0004FEA065847EA1637B5EB08056EEB070CFE
:1004D000870E920E47EA811742EA8312A7FB0201B8
:1004E000B6EB0B0164EB00042B0D43EA0C335E18F2
:1004F00044EB1C50DA465146E7FB0201C5F31304F6
:100500004FEA0B3343EA14534FEA0432019C43EAA7
:100510000603A4F10C040294009CCDE900B400F0A1
:100520002CF903B0BDE8F08F00200146F9E7C10FB8
:1005300080EAE0700844CA079623002100F0E0B882
:100540000EB5C10F80EAE0700844CA07002140F2EE
:1005500033438DE80E000A460B4600F00EF903B057
:1005600000BD00F0004220F00040C10DC0F31600B5
:1005700040F400007F2901DA00207047962903DC4F
:10058000C1F19601C84001E096398840002AF4D0B4
:100590004042704720F00040C10DC0F3160040F407
:1005A00000007F2901DA00207047962903DCC1F1A1
:1005B0009601C840704796398840704770B5C1F3BE
:1005C0000A5201F000450024C1F3130140F2FF3349
:1005D00041F480119A4201DA002070BD40F23343A9
:1005E0009A42A2F2334203DC5242FFF79DFD00E043
:1005F00090402C43F1D0404270BD00F0004230F0FA
:1006000000400AD0C10D01F56071C0F3160042EA46
:100610000151C2084007114370470020014670474E
:1006200001F0004330B421F0004150EA010206D04D
:100630000A0DA2F56072C1F31301002A02DC30BC7E
:1006400000207047440F44EAC104C100E01830BCE8
:1006500000EBC25000F04BB8002801DBC0F10040B5
:10066000002901DBC1F1004181427047002801DB14
:10067000C0F10040002901DBC1F100418842704710
:1006800030B50B46014600202022012409E021FA62
:1006900002F59D4205D303FA02F5491B04FA02F55F
:1006A0002844151EA2F10102F1DC30BD202A04DB32
:1006B000203A00FA02F1002070479140C2F1200375
:1006C00020FA03F3194390407047202A06DBCB172A
:1006D000203A41FA02F043EAE07306E041FA02F3FD
:1006E000D040C2F1200291400843194670470029CA
:1006F000A8BF7047401C490008BF20F001007047A8
:1007000010B4B0FA80FC00FA0CF050EA010404BF07
:1007100010BC704749B1CCF1200421FA04F411FA5D
:100720000CF118BF012121430843A3EB0C01CB1DA1
:100730004FEA00614FEA102042BF002010BC704712
:1007400000EBC35010440029A4BF10BC7047401CEC
:10075000490008BF20F0010010BC704710B5141EFE
:1007600073F1000408DA401C41F1000192185B416A
:100770001A4301D120F0010010BD2DE9F04D924641
:100780009B4611B1B1FA81F202E0B0FA80F2203258
:100790009046FFF78BFF04460F4640EA0A0041EA05
:1007A0000B0153465A46084313D0114653EA010041
:1007B00019D0C8F140025046FFF7B6FC05460E4678
:1007C000504659464246FFF771FF084305D00120C5
:1007D00004E020463946BDE8F08D0020054346EA96
:1007E000E0762C4337430A986305E40AA0EB08003F
:1007F0000022FD0A44EA47540A3002D5002001468F
:10080000E9E7010510196941DDE908450019694169
:10081000BDE8F04DA2E72DE9F04D81EA030404F0B4
:10082000004B21F0004514464FF0000A23F0004130
:1008300050EA050220D054EA01021DD0C5F30A5740
:100840000246C5F31303C1F31300C1F30A5640F483
:10085000801543F48013A7EB0608101BD64608F258
:10086000FD3873EB050002D308F1010801E092188E
:100870005B41B8F1000F03DA00200146BDE8F08DBE
:1008800000204FF48011064684460EE0171B73EBE0
:10089000050705D3121B63EB050306434CEA010C65
:1008A00049084FEA300092185B4150EA0107EDD148
:1008B00052EA030012D082EA040083EA05010843E9
:1008C00005D0101BAB4106D20122002306E0002216
:1008D0004FF0004302E06FF0010253101AEB0600E4
:1008E0004CEB085110EB0A0041EB0B01BDE8F04D59
:1008F000FFF734BF70B521F0004303430CD0C1F3C0
:100900000A550024D5EB040564EB0403D617AD1A91
:10091000B34102DB0020014670BD201841EB0251BB
:1009200070BD0000064C074D06E0E06840F0010392
:1009300094E8070098471034AC42F6D3FFF7DAFB8F
:10094000F060000810610008420005D0C0F3C752F3
:100950005242914201DC0020704700EBC1507047C9
:100960002DE9F04D00231A461B1A8A4103DB0020B3
:100970000146BDE8F08DC1F30A52C1F3130141F401
:1009800080154FF0000BD10702D100186D41521EA7
:100990000027044640F2FF11384601EB620A3E464A
:1009A0008046024600204FF48011FFF7BDFBC219BC
:1009B0007141BB1846EB0100B4EB030C75EB000C66
:1009C00004D3E41A65EB000517460E46241908F116
:1009D00001006D4180463428E3DDF91946EB06003D
:1009E000091BA84103D24FF0FF32134601E0002259
:1009F00013461BEB070046EB0A51BDE8F04DFFF72D
:100A0000ADBE70B5044600252068806800F0010086
:100A100018B32068806820F001002168886001F028
:100A200089FD054613E001F085FD401B02280ED923
:100A30002068806800F0010048B1A06A40F0100012
:100A4000A062E06A40F00100E062012070BD206811
:100A5000806800F001000028E5D10020F6E70000E2
:100A600010B5044600F026F8044A0549054800F090
:100A700075FD034A07CA84E8070010BDA69BC43B66
:100A8000640300205803002010B503F096FE03A075
:100A900004F066FE00F008F910BD0000D0A3D7BC3A
:100AA000D6D0A3ACA3ACC7EBB5C8B4FD2E2E2E0D8B
:100AB0000A0000002DE9F05F754A911E881E03F0C0
:100AC00038FE734A921D911E881E03F054FE704832
:100AD000001F00886F490988401A00B26C49091F3D
:100AE0000880084640886B494988401A00B2684926
:100AF000091F48800846808866498988401A00B2E4
:100B00006349091F88800846C0886249C988401A1D
:100B100000B25F49091FC880084600895D490989FC
:100B2000401A00B25A49091F0881084640895949AC
:100B30004989401A00B25649091F4881B1F900009D
:100B4000FFF7F5FC04462146534800F0CEFC52491D
:100B50008868FFF71FFD00B24D49091F0880B1F9F1
:100B60000200FFF7E4FC044621464B48183000F031
:100B7000BCFC4949086AFFF70DFD00B24449091F52
:100B80004880B1F90400FFF7D2FC044621464248F0
:100B9000303000F0AAFC3E49091FB1F90600FFF70A
:100BA000CFFC06464FF033323C4BFFF74EFC8046FD
:100BB00089463B49B1F90000FFF7C2FC06464FF0F9
:100BC0003332384BFFF741FC824642464B46FFF733
:100BD00095FB0446FFF7F2FC00B22D49091FC880BF
:100BE0000846C0882E4908802949091FB1F9080024
:100BF000FFF7A6FC06464FF03332284BFFF725FCE3
:100C000004460D462649B1F90200FFF799FC064655
:100C10004FF03332234BFFF718FC804622462B4619
:100C2000FFF76CFB8246FFF7C9FC00B21849091FA9
:100C30000881084600891A4948801549091FB1F9F9
:100C40000A00FFF77DFC06464FF03332134BFFF7E7
:100C5000FCFB04460D461249B1F90400FFF770FC95
:100C600006464FF033320F4BFFF7EFFB804622462C
:100C70002B46FFF743FB8246FFF7A0FC00B2044976
:100C8000091F48810846408905498880BDE8F09FD2
:100C90005C030020700300202C0000203333C33F8E
:100CA000740000203333EB3F1FB500200290039007
:100CB000009001901E2458E053E0414A911E881E86
:100CC00003F059FD3E480A380088BDF80810401A64
:100CD00000B2ADF800003A480A384088BDF80A1062
:100CE000401A00B2ADF8020035480A388088BDF8D5
:100CF0000C10401A00B2ADF80400BDF90430BDF983
:100D00000220BDF900102FA004F02AFD2C480A385B
:100D1000C088ADF808002A480A380089ADF80A00F2
:100D200027480A384089ADF80C00BDF9000010F1E1
:100D3000140F16DDBDF90000142812DABDF9020007
:100D400010F1140F0DDDBDF90200142809DABDF908
:100D5000040010F1140F04DDBDF90400142800DABA
:100D600000E0AAE700BF601E44B2002CA4DC144AD5
:100D7000921F911E881E03F0DCFC114A911E881EF2
:100D800003F0F9FC0E480A380088134908800C4823
:100D90000A38408848800A480A388088A0F5804090
:100DA00000B2888006480A38C088C88004480A38DB
:100DB0000089088102480A38408948811FBD000027
:100DC00062030020CEF3B2EEA3BA256409092564BC
:100DD000090925640D0A00007003002010B503F016
:100DE000B1FE10BD2DE9F0410020AC490880AC49AE
:100DF0000880AC490880AC490880AC4800780528D8
:100E00007ED1AB480088A0F57A7000B2A349088073
:100E1000A3490880A3490880A3490880A448B0F9E1
:100E2000000040F21A41884208DA00209B490880FD
:100E30009B4908809B4908809B4908809A48B0F9E3
:100E40000000002801DA00200BE09748B0F900000C
:100E5000B0F5617F02DD4FF4617002E09248B0F9B5
:100E60000000914908808F48B0F90000002801DA9D
:100E700000200BE08B48B0F90000B0F5617F02DD87
:100E80004FF4617002E08748B0F90000854908809E
:100E90008348B0F90000002801DA00200BE0804808
:100EA000B0F90000B0F5617F02DD4FF4617002E03F
:100EB0007B48B0F900007A4908807848B0F9000012
:100EC000002801DA00200BE07448B0F90000B0F50A
:100ED000617F02DD4FF4617002E07048B0F90000FC
:100EE0006E490880734AD169734AD069FFF73EF9A9
:100EF00007467248C1693846FFF738F9054600E0F1
:100F0000BCE06948B0F90000FFF711FB064629462E
:100F1000FFF72CF90446FFF724FB00B26249088072
:100F2000644AD169644AD069FFF772F90746634899
:100F3000C1693846FFF76CF905465A48B0F9000018
:100F4000FFF7F5FA06462946FFF710F90446FFF7C2
:100F500008FB00B2534908805748C06980F0004739
:100F60005448C1693846FFF753F906465348C169EA
:100F70003046FFF7FBF805464948B0F90000FFF797
:100F8000D6FA80462946FFF7F1F80446FFF7E9FA5A
:100F900000B2434908804848C06980F0004745488E
:100FA000C1693846FFF7E2F806464448C169304651
:100FB000FFF72EF905463948B0F90000FFF7B7FAF8
:100FC00080462946FFF7D2F80446FFF7CAFA00B276
:100FD000324908803448B0F90000002801DA0020C6
:100FE0000BE03148B0F90000B0F57A7F02DD4FF434
:100FF0007A7002E02C48B0F900002B49088029489B
:10100000B0F90000002801DA00200BE02548B0F913
:101010000000B0F57A7F02DD4FF47A7002E02148DB
:10102000B0F900001F4908801D48B0F900000028F1
:1010300001DA00200BE01A48B0F90000B0F57A7F21
:1010400002DD4FF47A7002E01548B0F9000014494F
:1010500008801248B0F90000002801DA00200BE0F7
:101060000E48B0F90000B0F57A7F02DD4FF47A70D7
:1010700002E00A48B0F90000084908800A48B0F9BF
:1010800000300848B0F900200448B0F900100448C6
:10109000B0F9000000F014F8BDE8F08180000020F5
:1010A0007E0000207C0000207A000020A7000020A5
:1010B0009C000020FC030020DC0300201C04002016
:1010C0002DE9F04107460C4615461E46384603F00A
:1010D00053FD204603F056FD284603F059FD3046E7
:1010E00003F05CFDBDE8F08170B50446062125489B
:1010F00004F016F824480078052841D123480068F8
:101100002349886121484068224988611F488068D6
:10111000214988612149B1F90600FFF708FA05461F
:101120001F4801682846FFF779F81E4988611B4966
:10113000B1F90800FFF7FBF9054619480168284690
:10114000FFF76CF8184988611449B1F90A00FFF7F4
:10115000EEF90546124801682846FFF75FF8134983
:101160008861224610490A4800F0B0F922460D492C
:10117000084800F0ABF922460C49074800F0A6F9F0
:1011800070BD000084000020A70000206403002040
:101190007C0300209C030020BC0300205803002097
:1011A00094600008DC030020FC0300201C040020E5
:1011B00010B525480088012802D100F04BF841E025
:1011C00021480088B0F5967F3CDD40F2DC501F4995
:1011D000C880888048800846B0F90000B0F5966F56
:1011E00008DA4FF47A70088000BF03F09FFB0028F4
:1011F000FBD110E0164801880088401C144A10807A
:10120000642908DD11480088323800B20F4908808F
:101210000020114608800D48B0F90000B0F57A7F33
:1012200002DA4FF47A700BE00848B0F90000B0F52C
:10123000FA6F02DD4FF4FA6002E00448B0F90000F2
:101240000249088010BD0000B80000209C0000206A
:10125000AC00002010B54548007810B9142043496F
:10126000087042480078042842D006DC012809D0E2
:10127000022815D0032872D12CE0052842D014286A
:101280006DD15FE03AA004F06BFA3E48B0F900007F
:1012900040F20641884202DA02203449087062E0D6
:1012A00039A004F05DFA3748B0F9000040F26C71E3
:1012B00088420EDD39480068401C384908600846FD
:1012C0000068322805D903202849087000203349D6
:1012D000086048E032A004F043FA2A48B0F9000060
:1012E00040F20641884202DA0420204908703AE0C0
:1012F00030A004F035FA01203149087005201B495F
:10130000087030E02FA004F02BFA1E48B0F900005E
:1013100040F20641884214DA204801680068401C07
:101320001E4A1060B1F57A7F0BD92AA004F018FA92
:1013300000202349087014200C4908700020174928
:10134000086010E027A004F00BFA00201C49087088
:101350001249086001200549087004E0FFE71420E5
:101360000249087000BF00BF10BD0000A7000020A8
:101370006C6576656C3120746573742E2E2E0D0AA3
:10138000000000009C0000206C6576656C322074C3
:101390006573742E2E2E0D0A00000000A800002098
:1013A0006C6576656C3320746573742E2E2E0D0A71
:1013B00000000000756E6C6F636B2E2E2E0D0A0000
:1013C000A600002070726F636573732E2E2E0D0AB7
:1013D00000000000746573745F6162632E2E2E0D31
:1013E0000A000000657869742E2E2E0D0A00000098
:1013F00010B5044803F03AFB1C21024800F004F841
:1014000010BD00003C04002030B52D4A1288521C4B
:101410002B4B1A801A461288012A46D10378AC2B2E
:1014200002D14378AF2B00D030BD431813F8043CF1
:101430001B06451815F8035C43EA0543451815F8E3
:10144000025C43EA0523451815F8015C43EA0504EC
:101450000022042303E0C55C2A445D1CEBB20D1F8F
:101460009D42F8DCA24200D0DEE78378032B1BD13B
:101470004379057943EA05231BB2124D2B80C379CA
:10148000857943EA05231BB20E4D6B80437A057ABA
:1014900043EA05231BB20B4DAB80C37A857A43EA3E
:1014A00005231BB2074DEB8000BF054A1288B2F539
:1014B0007A7F03DD4FF49B72014B1A8000BFB3E7C4
:1014C000B80000209C00002000BFFEE770B5054674
:1014D0000C4616463146284604F00BF9E8692060B0
:1014E0003146204604F005F970BD2DE9F04104466F
:1014F0000D4621692068FEF739FE60606169606809
:10150000FEF734FE064631466068FEF7B9FEE0603D
:101510002846A168FEF77CFE0746E168FEF77EFEDE
:101520000646A168FEF722FEA0604FF07E50E168FB
:10153000FEF76EFE06466168FEF770FE2060BDE8AD
:10154000F081000010B5024800F05CFD10BD000005
:10155000F4000020704772B600BFFEE707B59CB0EC
:101560004FF07C511E98FEF759FE0A90FE488068A5
:101570000690FD48006805900699FEF74FFE08901A
:10158000F948C0680690F848406805900699FEF74B
:1015900045FE07900899FEF73BFE4FF08041099009
:1015A000FEF73CFE1990F048C0680690EE4880684F
:1015B00005900699FEF732FE0890EB4840680690C9
:1015C000E948006805900699FEF728FE07900899FB
:1015D000FEF7CCFD4FF080410990FEF71FFE1A90F8
:1015E000E14880680590E048806804900599FEF71E
:1015F00015FE0790DC4840680590DB484068049081
:101600000599FEF70BFE06900799FEF7AFFD4FF028
:1016100080410890FEF702FE4FF07E510990FEF7E0
:10162000FAFD1B90D148B0F904000490FEF77FFF4B
:101630000690CE48B0F904000490FEF778FF0590BC
:101640000699FEF7EBFD0890C848B0F90200029039
:10165000FEF76DFF0490C548B0F902000290FEF756
:1016600066FF03900499FEF7D9FD0690BF48B0F9D4
:1016700000000290FEF75BFF0490BC48B0F9000048
:101680000290FEF754FF03900499FEF7C7FD059002
:101690000699FEF76BFD07900899FEF767FD099024
:1016A00003F002FD0B901C98B0F900000890FEF7C3
:1016B0003EFF09900B99FEF7B1FD16901C98B0F90A
:1016C00002000890FEF733FF09900B99FEF7A6FD84
:1016D00017901C98B0F904000890FEF728FF0990B5
:1016E0000B99FEF79BFD18901A9807901898069092
:1016F0000799FEF793FD09901B980790179806909D
:101700000799FEF78BFD08900999FEF781FD10906F
:101710001B980790169806900799FEF77FFD099091
:1017200019980790189806900799FEF777FD08908A
:101730000999FEF76DFD119019980790179806907A
:101740000799FEF76BFD09901A9807901698069076
:101750000799FEF763FD08900999FEF759FD12906D
:1017600010980890824801680898FEF757FD099084
:1017700080480068014608900998FEF7F7FC7D490B
:101780000860119808907A4801680898FEF746FDAD
:10179000099078484068014608900998FEF7E6FCF1
:1017A0007449486012980890714801680898FEF7DB
:1017B00035FD09906F488068014608900998FEF74A
:1017C000D5FC6C4988601098014606906A4800680C
:1017D000FEF724FD08901C98B0F906000590FEF76E
:1017E000A6FE66490690FEF719FD07900899FEF7D8
:1017F000BDFC09905F480068014608900998FEF713
:10180000B5FC13901198014606905B480068FEF7FE
:1018100005FD08901C98B0F908000590FEF787FEBA
:1018200056490690FEF7FAFC07900899FEF79EFCD1
:10183000099050484068014608900998FEF796FCC8
:1018400014901298014606904B480068FEF7E6FC9B
:1018500008901C98B0F90A000590FEF768FE474909
:101860000690FEF7DBFC07900899FEF77FFC0990D5
:1018700040488068014608900998FEF777FC15906B
:10188000159806903848C06805900699FEF7C6FC82
:101890000890149804903448806803900499FEF7E7
:1018A000BDFC06903048406880F0004004901398DA
:1018B000014603900498FEF7B1FC05900699FEF7E7
:1018C000A7FC07900899FEF7A3FC09900A99FEF778
:1018D000A5FC0F90159806902348806805900699FE
:1018E000FEF79CFC0890149804901F48C068039071
:1018F0000499FEF793FC0690139804901A48006828
:1019000003900499FEF78AFC05900699FEF780FC87
:1019100007900899FEF72AFC09900A99FEF77EFCC9
:101920000E90159806901048406805900699FEF7AD
:1019300075FC0890149804900B4800680390049973
:10194000FEF76CFC0690139804900748C06803905B
:101950000499FEF763FC05900699FEF707FC0790D3
:101960000899FEF755FC0BE01C00002058030020EE
:10197000180000204C030020140000202E9E8B3AFB
:1019800009900A99FEF74AFC0D9015980690C248F6
:10199000006805900699FEF741FC089014980490A1
:1019A000BD48406803900499FEF738FC0690BA4899
:1019B000806880F0004004901398014603900498DA
:1019C000FEF72CFC05900699FEF7D0FB07900899CE
:1019D000FEF7CCFB09900A99FEF720FC0C90AE486C
:1019E000006809900F99FEF7C1FBAB4908600846F3
:1019F000406809900E99FEF7B9FBA7494860084670
:101A0000806809900D99FEF7B1FBA34988600846EC
:101A1000C06809900C99FEF7A9FB9F49C860084669
:101A2000C06806900846C06805900699FEF7F6FB68
:101A300008909948806804909748806803900499BA
:101A4000FEF7ECFB0690944840680290924840688C
:101A500001900299FEF7E2FB04908F480068029023
:101A60008D48006801900299FEF7D8FB0390049915
:101A7000FEF77CFB05900699FEF778FB0790089926
:101A8000FEF774FB099003F00FFB0B90824800688F
:101A900009900B99FEF7C2FB7F4908600846406831
:101AA00009900B99FEF7BAFB7B49486008468068AD
:101AB00009900B99FEF7B2FB774988600846C06829
:101AC00009900B99FEF7AAFB7349C8600846406865
:101AD000014602904FF08040FEF7A0FB03906E4855
:101AE000C068014602900398FEF798FB05906A488B
:101AF0000068014602904FF08040FEF78FFB039094
:101B000065488068014602900398FEF787FB0490C1
:101B10000599FEF77DFB09905F4800680146029039
:101B20004FF08040FEF77AFB03905B484068014627
:101B300002900398FEF772FB0590574880680146B3
:101B400002904FF08040FEF769FB03905248C06856
:101B5000014602900398FEF761FB04900599FEF799
:101B600005FB08904C488068014602904FF0804089
:101B7000FEF754FB039048488068014602900398A2
:101B8000FEF74CFB059044484068014601904FF039
:101B90008040FEF743FB02903F48406801460190B9
:101BA0000298FEF73BFB4FF07E510390FEF733FBAC
:101BB00004900599FEF72CFB07901C98B0F90A00D9
:101BC0000490FEF7B4FC35490590FEF727FB06901C
:101BD0004FF07E510698FEF749FD04D33049069830
:101BE000FEF73AFD0DD21E990698FEF717FB0590F9
:101BF0001D988068014604900598FEF7B7FA1D9974
:101C000088600998FEF7F9FCCDE9000103F028FF90
:101C10004FF00052234BCDE90201FEF716FCCDE94F
:101C20000401FEF7FDFC1D990860DDE9071004F0D2
:101C30004FF81D490590FEF7F1FA1D9948601C9870
:101C4000B0F904000290FEF772FC03900799FEF7CA
:101C5000E5FA05901C98B0F902000090FEF767FCC9
:101C600001900899FEF7DAFA03901C98B0F9000089
:101C70000090FEF75CFC01900999FEF7CFFA029004
:101C80000399FEF773FA04900599FEF76FFA074976
:101C900008601FB000BD00001C000020F6FF793D69
:101CA000000080BFDCA54C40E12E65421000002002
:101CB00038B5024600230020009000BF92F82400AF
:101CC000012801D1022038BD012082F8240000BF84
:101CD0004868072812D21068406B0C79641E04EB28
:101CE00084051F24AC40A0430D796D1E05EB8505CE
:101CF0000C68AC4020431468606327E048680D28F6
:101D000012D21068006B0C79E41F04EB84051F24C9
:101D1000AC40A0430D79ED1F05EB85050C68AC4088
:101D200020431468206311E01068C06A0C790D3CF0
:101D300004EB84051F24AC40A0430D790D3D05EB59
:101D400085050C68AC4020431468E06208680A28E6
:101D500012D31068C0680C780A3C04EB44050724D1
:101D6000AC40A0430D780A3D05EB45058C68AC40BE
:101D700020431468E0600FE0106800690C7804EB01
:101D800044050724AC40A0430D7805EB45058C685D
:101D9000AC402043146820610868102802D008680D
:101DA000112827D1174C1068A0421ED110688068F6
:101DB00000F40000F0B91068806840F40000146876
:101DC000A0600868102815D10F4800680F4CB0FBC0
:101DD000F4F000EB80004000009002E00098401E0C
:101DE000009000980028F9D104E0906A40F02000AB
:101DF0009062012300BF002082F8240000BF184633
:101E000061E70000002401400C00002040420F0068
:101E10002DE9F0410446002700250026A84614B904
:101E20000120BDE8F081A06810B1207D00B100BFA5
:101E3000A06A30B90020E06284F82400204600F057
:101E400089F82046FEF7DDFD0746A06A00F0100085
:101E5000002873D1002F71D1A06A20F4885040F07F
:101E60000200A062E16960680843217B40EA41000A
:101E70000643A068B0F5807F02D0A068012802D197
:101E80004FF4807000E000200543207D012811D12F
:101E9000207B38B9A069401E4FF4006141EA403010
:101EA000054307E0A06A40F02000A062E06A40F02D
:101EB0000100E0622068406820F4694028432168FE
:101EC0004860206880682149084030432168886064
:101ED000A068B0F5807F02D0A068012802D14FF43D
:101EE000807000E00020B0F5807F03D1208A401E82
:101EF0004FEA00582068C06A20F4700040EA0800E9
:101F00002168C8622068806811490840B04208D141
:101F10000020E062A06A20F0020040F00100A06210
:101F200011E0A06A20F0020040F01000A062E06A18
:101F300040F00100E062012705E0FFE7A06A40F001
:101F40001000A062012738466BE70000FDF7E1FFB3
:101F5000FE0E1FFF10B586B00446002002900390CD
:101F6000049005902249206888423ED100BF214854
:101F7000806940F400701F4988610846806900F458
:101F80000070019000BF00BF00BF0846806940F0AC
:101F9000080088610846806900F00800019000BFD1
:101FA00000BF022002900320039002A9124800F013
:101FB0002BF912481249086000204860002110489F
:101FC00081608021C1604900016189004161202157
:101FD00081610902C16100F0E3F808B1FFF7BBFAC3
:101FE00000BF07482062446200BF06B010BD000079
:101FF0000024014000100240000C01400800024093
:10200000F400002070B50446E06B0568206806689F
:1020100094F84010042088402840002846D006F05C
:102020000400002842D02068006800F0200028B991
:102030002068006820F00400216808605749206883
:10204000884201D1042027E0544914312068884295
:1020500001D1402020E0514928312068884201D137
:10206000001519E04D493C312068884202D14FF4F7
:10207000804011E0494950312068884202D14FF434
:10208000802009E0454964312068884202D14FF43C
:10209000800001E04FF08060404908394860E06A04
:1020A00000287AD02046E16A884776E094F840100C
:1020B000022088402840A0B306F0020088B32068C0
:1020C000006800F0200040B92068006820F00A0095
:1020D00021680860012084F8210030492068884286
:1020E00001D1022028E02D4914312068884201D115
:1020F000202021E0294928312068884201D140155B
:102100001AE026493C312068884202D14FF4005041
:1021100012E0224950312068884203D14FF4003048
:102120000AE017E01D4964312068884202D14FF46B
:10213000001001E04FF0007018490839486000BFF6
:10214000002084F8200000BFA06A30B32046A16AB6
:10215000884722E094F84010082088402840E0B1E9
:1021600006F00800C8B12068006820F00E00216861
:10217000086094F8401001208840E16B486001201D
:10218000A06384F8210000BF002084F8200000BF75
:10219000206B10B12046216B884770BD08000240BB
:1021A0000146002209B901207047164B0868C01A81
:1021B0001423B0FBF3F08000086412480838C863A9
:1021C000022081F821000868026843F6F07082431B
:1021D000D1E901031843CB6818430B6918434B69D5
:1021E00018438B691843CB6918430243086802609F
:1021F00000208863012081F82100002081F8200060
:1022000000BFD1E7080002402DE9F847034600224D
:1022100094466EE14FF0010808FA02F4D1F800800C
:1022200008EA0400A0427DD1DFF8DCA2D1F80480E6
:10223000A8EB0A09D0453AD014DCB8F1030F50D00E
:1022400009DCB8F1000F31D0B8F1010F1CD0B8F1A2
:10225000020F49D120E0B8F1110F18D0B8F1120FD8
:1022600042D11EE0B9F5881F25D006DCB9F5803FC4
:1022700020D0B9F5801F37D11AE0B9F5001F18D06A
:10228000B9F5041F30D117E0D1F80CC02DE0D1F81A
:102290000C8008F1040C28E0D1F80C8008F1080C3F
:1022A00023E0D1F80C8008F10C0C1EE000BF00BF49
:1022B00000BF00BF00BF00BFD1F80880B8F1000F19
:1022C00002D14FF0040C0BE0D1F80880B8F1010FF7
:1022D00003D14FF0080C1C6102E04FF0080C5C6168
:1022E00003E04FF0000C00E000BF00BFFF2801D862
:1022F000984601E003F104084646FF2802D84FEA59
:10230000820803E0A2F108084FEA88084746D6F899
:1023100000804FF00F0909FA07F928EA09080CFABA
:1023200007F900E088E048EA0908C6F80080D1F81B
:10233000048008F08058B8F1805F7DD100BFDFF8DD
:10234000CC81D8F8188048F00108DFF8C091C9F8AE
:102350001880C846D8F8188008F00108CDF8008029
:1023600000BF00BF4FEAB9384FEA920958F8295028
:102370004FEA82784FEA18794FF00F0808FA09F807
:1023800025EA0805DFF88881434502D14FF00008AF
:1023900016E0DFF88081434502D14FF001080FE0DD
:1023A000DFF87481434502D14FF0020808E0DFF8FE
:1023B0006C81434502D14FF0030801E04FF004085F
:1023C0004FEA82794FEA197908FA09F848EA0505CF
:1023D000DFF84C814FEA920948F82950D1F804807F
:1023E00008F48018B8F5801F0AD1DFF83881D8F8D2
:1023F000008048EA0008DFF82C91C9F8008009E065
:10240000DFF82081D8F8008028EA0008DFF814916E
:10241000C9F80080D1F8048008F40018B8F5001F4E
:1024200010D1DFF8008108F10408D8F8008048EAEC
:102430000008DFF8F09000E05AE009F10409C9F85B
:1024400000800DE0DFF8DC8008F10408D8F8008097
:1024500028EA0008DFF8CC9009F10409C9F80080E7
:10246000D1F8048008F40038B8F5003F0ED1DFF849
:10247000B480A8F10408D8F8008048EA0008DFF822
:10248000A490A9F10409C9F800800DE0DFF8948058
:10249000A8F10408D8F8008028EA0008DFF8849042
:1024A000A9F10409C9F80080D1F8048008F4803843
:1024B000B8F5803F0ED1DFF86C80A8F10808D8F895
:1024C000008048EA0008DFF85C90A9F10809C9F823
:1024D00000800DE0DFF84C80A8F10808D8F80080F3
:1024E00028EA0008DFF83C90A9F10809C9F8008043
:1024F000521CD1F8008028FA02F8B8F1000F7FF4DE
:1025000089AEBDE8F88700000000111000100240FD
:1025100000080140000C014000100140001401407F
:1025200008000140080401400AB1016101E00B0408
:1025300003617047014800687047000000000020F8
:1025400070B504460CB9012070BD94F83D0028B95F
:10255000002084F83C00204600F03EFB242084F854
:102560003D002068006820F00100216808602068B4
:10257000006840F40040216808602068006820F48A
:1025800000402168086000F097FD05465C496068DE
:10259000884206D85B48854201D2012007E000202E
:1025A00005E05948854201D2012000E000200128C1
:1025B00000D1C9E75548B5FBF0F62068406820F027
:1025C0003F003043216848604D496068884201D827
:1025D000701C07E04FF4967070434FF47A71B0FBB3
:1025E000F1F0401C2168096A21F03F01084321688D
:1025F000086243496068884214D8681E61684900CF
:10260000B0FBF1F0401CC0F30B00042801D2042001
:102610003DE0681E61684900B0FBF1F0401CC0F36A
:102620000B0034E0A06838B9681E616801EB410115
:10263000B0FBF1F0401C0AE0681E616801EBC102CA
:1026400002EB0111B0FBF1F0401C40F48040C0F3FC
:102650000B0008B901201AE0A06848B9681E61683B
:1026600001EB4101B0FBF1F0401CC0F30B000CE0AA
:10267000681E616801EBC10202EB0111B0FBF1F0D1
:10268000401CC0F30B0040F4804040F4004021683F
:10269000C9694CF6FF72914308432168C861D4E9C7
:1026A000070108432168096821F0C0010843216837
:1026B0000860D4E9031008432168896848F2FF32B2
:1026C0009143084321688860D4E9050108432168E3
:1026D000C96821F0FF0108432168C86020680068CC
:1026E00040F001002168086000202064202084F868
:1026F0003D000020206384F83E0000BF24E7000076
:10270000A086010080841E0000093D0040420F00A9
:102710002DE9FE4F04460F4690469946DDE90CAB85
:102720000E9E00200290FFF705FF054694F83D003D
:10273000202872D119230122CA492046009501F0B0
:10274000A4FE10B10220BDE8FE8F00BF94F83C004B
:10275000012801D10220F6E7012084F83C0000BFE7
:102760002068006800F0010028B92068006840F087
:102770000100216808602068006820F4006021687A
:102780000860222084F83D00402084F83E000020AC
:102790002064C4F824A0A4F82AB0608D2085B24833
:1027A000E0624B46424639462046CDE9006501F0DD
:1027B00019FD08B10120C6E7208D88B900BF0020AF
:1027C000019020684069019020688069019000BFF5
:1027D00000BF2068006840F40070216808604BE08A
:1027E000208D01281AD12068006820F480602168BB
:1027F000086072B600BF0020019020684069019017
:1028000020688069019000BF00BF2068006840F424
:1028100000702168086062B62EE020E1208D022859
:1028200019D12068006840F400602168086072B621
:1028300000BF0020019020684069019020688069F5
:10284000019000BF00BF2068006820F4806021680C
:10285000086062B610E02068006840F4806021687B
:10286000086000BF00200190206840690190206846
:102870008069019000BF00BFE2E0208D03287DD871
:10288000208D012815D12A463146204601F0D9FE77
:1028900008B1012057E720680069616A0870606A22
:1028A000401C6062208D401E2085608D401E60852A
:1028B000C6E0208D02282CD1334600226B492046E9
:1028C000009501F0E2FD08B101203CE772B62068F6
:1028D000006840F400702168086020680069616A3F
:1028E0000870606A401C6062208D401E2085608DEB
:1028F000401E608562B620680069616A0870606A7F
:10290000401C6062208D401E2085608D401E6085C9
:1029100096E03346002255492046009501F0B5FD6A
:1029200008B101200FE72068006820F4806021686A
:10293000086072B620680069616A0870606A401CAD
:102940006062208D401E2085608D401E6085484855
:1029500000681921B0FBF1F04FF47A71B0FBF1F08F
:10296000C0EBC00000EB8000029000BF0298401E48
:1029700002900298A8B90020206300E039E02020EE
:1029800084F83D00002084F83E00206C40F02000D8
:10299000206462B600BF002084F83C0000BF012024
:1029A000D1E620684069C0F380000028DED02068AE
:1029B000006840F400702168086020680069616A5E
:1029C0000870606A401C6062208D401E2085608D0A
:1029D000401E608562B620680069616A0870606A9E
:1029E000401C6062208D401E2085608D401E6085E9
:1029F00026E02A463146204601F023FE08B1012098
:102A0000A1E620680069616A0870606A401C606223
:102A1000208D401E2085608D401E608520684069A5
:102A2000C0F3800060B120680069616A0870606A64
:102A3000401C6062208D401E2085608D401E608598
:102A4000208D00287FF419AF202084F83D0000205D
:102A500084F83E0000BF84F83C0000BF73E602200B
:102A600071E60000020010000000FFFF04000100FA
:102A70000C0000202DE9FC5F04460F469046994665
:102A8000DDE90CAB0E9EFFF755FD054694F83D00C1
:102A900020287DD1192301224D492046009501F0BF
:102AA000F4FC10B10220BDE8FC9F00BF94F83C008C
:102AB000012801D10220F6E7012084F83C0000BF84
:102AC0002068006800F0010028B92068006840F024
:102AD0000100216808602068006820F40060216817
:102AE0000860212084F83D00402084F83E0000204A
:102AF0002064C4F824A0A4F82AB0608D208535484D
:102B0000E0624B46424639462046CDE9006501F079
:102B100019FC08B10120C6E731E02A4631462046BB
:102B200001F0D4FD50B1206C042805D12068006864
:102B300040F40070216808600120B4E7606A007802
:102B400021680861606A401C6062208D401E2085FB
:102B5000608D401E608520684069C0F3800070B1C0
:102B6000208D60B1606A007821680861606A401C4D
:102B70006062208D401E2085608D401E6085208D06
:102B80000028CAD12A463146204601F04BFC00E01D
:102B90001CE050B1206C042805D12068006840F486
:102BA00000702168086001207DE72068006840F41B
:102BB000007021680860202084F83D00002084F81F
:102BC0003E0000BF84F83C0000BF6CE702206AE7CB
:102BD000020010000000FFFF10B586B00446002080
:102BE000029003900490059015492068884225D1F1
:102BF00000BF1448806940F0080012498861084607
:102C0000806900F00800019000BF00BFC020029062
:102C1000122003900320059002A90B48FFF7F4FA55
:102C200000BF0848C06940F400100649C861084662
:102C3000C06900F40010019000BF00BF06B010BDD5
:102C40000054004000100240000C0140034800689E
:102C500003490978084401490860704700000020D2
:102C60000800002010B50848006840F01000064930
:102C70000860032000F0A8F80F2000F007F800F02B
:102C80002BF8002010BD00000020024070B5044663
:102C90000E4800784FF47A71B1FBF0F00C490968E6
:102CA000B1FBF0F5284600F053FE08B1012070BDDD
:102CB000102C07D200222146501E00F047F805488C
:102CC000046001E00120F2E70020F0E708000020A6
:102CD0000C0000200400002008B500BF11488069E6
:102CE00040F001000F4988610846806900F001004A
:102CF000009000BF00BF00BF0846C06940F0805090
:102D0000C8610846C06900F08050009000BF00BF55
:102D100000BF0549486820F0E06040F0007048605E
:102D200000BF08BD001002400000014001460846F7
:102D3000002809DB00F01F0301229A4043099B0091
:102D400003F1E023C3F8002100BF70472DE9F05FD5
:102D500080460D461646002702F03AFD07463946E2
:102D60002A46334601F00700C0F1070ABAF1040F02
:102D700002D94FF0040A01E0C0F1070AD14600F180
:102D8000040ABAF1070F02D24FF0000A01E0A0F1E5
:102D9000030AD4464FF0010A0AFA09FAAAF1010A15
:102DA0000AEA020A0AFA0CFA4FF0010B0BFA0CFBC2
:102DB000ABF1010B0BEA030B4AEA0B042146404638
:102DC00002F00EFDBDE8F09F00BF00F00702064BC9
:102DD00019684FF6FF031940044B0B4343EA0221E5
:102DE000014B196000BF70470CED00E00000FA05D0
:102DF000F8B5044600260025207800F001000028E0
:102E00006BD000274348C06900F0805070B900BF04
:102E10004048C06940F080503E49C8610846C069DA
:102E200000F08050009000BF00BF01273A480068C2
:102E300000F48070B0B93848006840F480703649BA
:102E40000860FFF777FB064606E0FFF773FB801B81
:102E5000642801D90320F8BD2F48006800F4807071
:102E60000028F2D02B48006A00F440752DB3A088EA
:102E700000F44070A84220D02648006A20F4407533
:102E8000012026490860002008602248056205F0FC
:102E9000010090B1FFF74EFB064608E0FFF74AFB42
:102EA000801B41F28831884201D90320D3E71948B9
:102EB000006A00F002000028F0D01648006A20F4F2
:102EC00040706168084313490862012F04D1084625
:102ED000C06920F08050C86100BF207800F0020077
:102EE000022807D10B48406820F44040A1680843FD
:102EF00008494860207800F01000102807D10548E4
:102F0000406820F48000E1680843024948600020DE
:102F1000A1E700000010024000700040400442425F
:102F200070B504460D460CB9012070BD5A480068C2
:102F300000F00700A8420ED25748006820F00700B2
:102F40002843554908600846006800F00700A84279
:102F500001D00120E9E7207800F0020002281DD10D
:102F6000207800F00400042805D14C48406840F463
:102F7000E0604A494860207800F00800082805D140
:102F80004648406840F460504449486043484068BF
:102F900020F0F000A168084340494860207800F024
:102FA000010078B36068012806D13C48006800F44D
:102FB000003090B90120B8E76068022806D1374890
:102FC000006800F0007040B90120AEE733480068A7
:102FD00000F0020008B90120A7E73048406820F05F
:102FE0000300616808432D494860FFF7A3FA0646CD
:102FF00009E0FFF79FFA801B41F28831884202D92D
:10300000032092E707E02548406800F00C00616863
:10301000B0EB810FEDD12048006800F00700A84216
:103020000ED91D48006820F0070028431A4908609F
:103030000846006800F00700A84201D0012074E7AC
:10304000207800F00400042807D11448406820F4D8
:10305000E060E168084311494860207800F008000A
:10306000082808D10D48406820F46050216940EAE2
:10307000C1000A49486000F03FF808494968C1F3B7
:103080000311074A515CC8400649086006480068B9
:10309000FFF7FCFD002048E700200240001002403E
:1030A000766000080C000020040000200148006841
:1030B000704700000C00002000B5FFF7F7FF04493F
:1030C0004968C1F30221034A515CC84000BD0000B9
:1030D000001002408660000800B5FFF7E7FF0449D2
:1030E0004968C1F3C221034A515CC84000BD0000D9
:1030F000001002408660000870B500210022002404
:1031000000230020134D696801F00C05F5B1042D72
:1031100002D0082D19D101E00F4819E00F4DC1F37D
:103120008346AB5D01F4803555B10A4D6D68C5F33A
:1031300040450B4E725D084D5D43B5FBF2F402E075
:10314000084D03FB05F4204602E000BF024800BF23
:1031500000BF70BD0010024000127A0064600008D9
:103160007460000800093D00F8B504460CB9012060
:10317000F8BD207800F00100002878D0F8484068B9
:1031800000F00C0004280CD0F548406800F00C005A
:10319000082811D1F248406800F48030B0F5803F33
:1031A0000AD1EF48006800F4003000285FD0606862
:1031B00000285CD10120DBE700BF6068B0F5803FEC
:1031C00006D1E748006840F48030E549086028E00F
:1031D000606858B9E248006820F48030E04908602F
:1031E0000846006820F4802008601AE06068B0F5A6
:1031F000A02F0BD1DA48006840F48020D84908603D
:103200000846006840F4803008600AE0D44800684E
:1032100020F48030D24908600846006820F48020FD
:10322000086000BF606888B1FFF784F9054606E0D2
:10323000FFF780F9401B642801D9032098E7C848AC
:10324000006800F400300028F2D010E0FFF772F9B7
:10325000054606E0FFF76EF9401B642801D90320FC
:1032600086E7BF48006800F400300028F2D12078DB
:1032700000F00200022857D1B948406800F00C0065
:1032800050B1B748406800F00C00082818D1B44885
:10329000406800F4803098B9B148006800F002003E
:1032A00020B12069012801D0012061E7AC48006805
:1032B00020F0F800616940EAC100A949086033E0E4
:1032C0002069E8B10120A7490860FFF733F90546F6
:1032D00006E0FFF72FF9401B022801D9032047E73A
:1032E0009F48006800F002000028F2D09C48006867
:1032F00020F0F800616940EAC1009949086013E0D4
:10330000002098490860FFF715F9054606E0FFF729
:1033100011F9401B022801D9032029E790480068D1
:1033200000F002000028F2D1207800F00800082800
:103330002DD1A069B8B101208B490860FFF7FAF8D8
:10334000054606E0FFF7F6F8401B022801D90320E6
:103350000EE78348406A00F002000028F2D0012006
:1033600001F0CAFE13E000207F490860FFF7E2F891
:10337000054606E0FFF7DEF8401B022801D90320CE
:10338000F6E67748406A00F002000028F2D1207883
:1033900000F00400042873D100277148C06900F0D0
:1033A000805070B900BF6E48C06940F080506C49D1
:1033B000C8610846C06900F08050009000BF00BF9F
:1033C00001276A48006800F48070B0B96748006857
:1033D00040F4807065490860FFF7ACF8054606E0E8
:1033E000FFF7A8F8401B642801D90320C0E65F4816
:1033F000006800F480700028F2D000BFE068012867
:1034000006D15748006A40F001005549086227E09C
:10341000E06858B95248006A20F00100504908623B
:103420000846006A20F00400086219E0E0680528F8
:103430000BD14B48006A40F0040049490862084635
:10344000006A40F0010008620AE04548006A20F086
:103450000100434908620846006A20F0040008623F
:1034600000BFE068A0B1FFF765F8054609E0FFF787
:1034700061F8401B41F28831884202D9032077E687
:1034800022E03748006A00F002000028EFD012E086
:10349000FFF750F8054608E0FFF74CF8401B41F2F3
:1034A0008831884201D9032062E62D48006A00F085
:1034B00002000028F0D1012F05D12948C06920F071
:1034C00080502749C86100BFE069C8B324484068FC
:1034D00000F00C00082860D0E069022848D10020E4
:1034E00020490866FFF726F8054606E0FFF722F8B0
:1034F000401B022801D903203AE61948006800F071
:1035000000700028F2D1206AB0F5803F07D114483E
:10351000406820F40030A168084311494860D4E9AC
:10352000080108430E49496821F4741108430C4905
:10353000486001200B490866FEF7FCFF054607E0DE
:103540003DE0FEF7F7FF401B022801D903200FE6FC
:103550000348006800F000700028F2D02FE000005F
:1035600000100240000042428004424200700040CD
:10357000002014490866FEF7DDFF054606E0FEF769
:10358000D9FF401B022801D90320F1E50E4800684D
:1035900000F000700028F2D111E0E069012800D1AC
:1035A000E6E50948466806F48031206A814204D184
:1035B00006F47011606A814201D00120D8E5002034
:1035C000D6E50000000042420010024010B504465B
:1035D0000CB9012010BD606A38B96068B0F5827F0F
:1035E00000D105E00021E16102E00021216161617B
:1035F0000021A16294F8510028B9002084F85000FD
:10360000204600F043F8022084F85100206800684A
:1036100020F0400021680860A08800F482702189B1
:1036200001F404410843A18901F400610843217CAD
:1036300001F002010843217D01F001010843218BC3
:1036400001F400710843217F01F038010843202173
:10365000095D01F080010843218D01F40051084308
:10366000216808600421A06901EA104021684860CF
:103670002068C06920F400602168C861002060658E
:10368000012084F851000020A4E7000010B586B0A6
:103690000446002002900390049005901949206888
:1036A00088422DD100BF1848806940F480501649E7
:1036B00088610846806900F48050019000BF00BF17
:1036C00000BF0846806940F00400886108468069B0
:1036D00000F00400019000BF00BFA0200290022073
:1036E00003900320059002A90848FEF78DFD4020B5
:1036F000029000200390049002A90448FEF784FD84
:1037000006B010BD0030014000100240000801402A
:103710002DE9FF5F0446884691461D460E9E012016
:1037200002900020019000BF94F85000012803D1BE
:10373000022004B0BDE8F09F012084F8500000BFD3
:10374000FEF7F8FE074694F851B060680390AA4669
:10375000BBF1010F0BD00398B0F5827F04D1A068B4
:1037600010B9BBF1040F02D002200190E9E0B8F1DA
:10377000000F03D0B9F1000F00D015B9012001905E
:10378000DFE094F85100042802D0052084F85100AD
:1037900000206065C4F83890E587A587C4F83080BC
:1037A000E586A586206460642068006800F040001B
:1037B000402805D02068006840F04000216808607B
:1037C000E068B0F5006F4DD1606810B1BAF1010F3B
:1037D00009D1206B00882168C860206B801C2063A1
:1037E000E08E401EE08636E02068806800F002002F
:1037F000022810D1E08E70B1029801280BD1206B05
:1038000000882168C860206B801C2063E08E401E09
:10381000E086002002902068806800F0010068B116
:10382000E08F58B12068C068A16B0880A06B801C35
:10383000A063E08F401EE08701200290FEF77AFE31
:10384000C01BB04207D3701C28B103200190012097
:1038500084F8510075E0E08E0028C5D1E08F002883
:10386000C2D14DE0606810B1BAF1010F09D1206BEF
:10387000007821680873206B401C2063E08E401E96
:10388000E08637E02068806800F00200022810D14E
:10389000E08E70B1029801280BD1206B007821686E
:1038A0000873206B401C2063E08E401EE0860020E1
:1038B00002902068806800F0010068B1E08F58B184
:1038C0002068C068A16B0870A06B401CA063E08FEB
:1038D000401EE08701200290FEF72CFEC01BB04284
:1038E00001D3701C00B92EB903200190012084F887
:1038F000510026E0E08E0028C4D1E08F0028C1D11D
:103900003A463146204601F021FC20B101200190C9
:103910002020606515E0A06850B900BF002000902D
:103920002068C068009020688068009000BF00BFD9
:10393000606D10B10120019002E0012084F8510077
:1039400000BF00BF002084F8500000BF0198F0E6DF
:1039500070B504462546681EB0F1807F01D3012072
:103960000FE0681E4FF0E02148610F214FF0FF305B
:1039700001F036FF00204FF0E02188610720086148
:10398000002070BD10B50346002200BF93F83C0034
:10399000012801D1022010BD012083F83C0000BFA6
:1039A00022F0FF00CC6840EA040222F440708C68E8
:1039B00040EA040222F480604C6840EA040222F4E7
:1039C00000600C6840EA040222F480500C6940EA6E
:1039D000040222F400504C6940EA040222F48040C0
:1039E000CC6940EA04021868426400BF002083F8F2
:1039F0003C0000BF00BFCEE730B502460B4600BF1B
:103A000092F83C00012801D1022030BD012082F84B
:103A10003C0000BF022082F83D0010684468106836
:103A2000816824F070041868044310684460104DE5
:103A30001068A8420BD01068B0F1804F07D00D4D30
:103A40001068A84203D00C4D1068A84205D121F09F
:103A500080015868014310688160012082F83D00B0
:103A600000BF002082F83C0000BF00BFCDE700008F
:103A7000002C0140000400400008004010B504463E
:103A80000CB9012010BD94F83D0028B9002084F83D
:103A90003C00204600F026F8022084F83D00211D5D
:103AA000206801F01BFC012084F8460000BF84F868
:103AB0003E0001213F200155402001554120015584
:103AC00000BF00BF012084F842004320015544207C
:103AD00001554520015500BF012084F83D0000201C
:103AE000D0E7000008B5244A016891420DD100BF1B
:103AF0002249896941F40061204A9161114689692E
:103B000001F40061009100BF35E00168B1F1804F20
:103B10000DD100BF1949C96941F00101174AD161AE
:103B20001146C96901F00101009100BF23E0144A68
:103B3000016891420DD100BF1049C96941F00201ED
:103B40000E4AD1611146C96901F00201009100BF1E
:103B500011E00C4A016891420DD100BF0749C969C3
:103B600041F00401054AD1611146C96901F004011F
:103B7000009100BF00BF08BD002C014000100240B2
:103B800000040040000800402DE9F04104460D46C5
:103B9000002700BF94F83C00012802D10220BDE8B4
:103BA000F081012084F83C0000BF022084F83D0031
:103BB0002068866826F0770626F47F4620688660AF
:103BC0002868502833D00CDC202850D004DC002892
:103BD0004BD0102851D149E0302849D040284CD151
:103BE00039E060282DD0702807D0B0F5805F03D071
:103BF000B0F5005F41D10DE041E0D5E902136A68FC
:103C0000206801F0B6FB2068866846F077062068D9
:103C1000866034E0D5E902136A68206801F0A9FBE8
:103C20002068806840F480402168886027E0EA6866
:103C30006968206801F06EFC5021206801F0A4FB47
:103C40001DE0EA686968206801F077FC602120685F
:103C500001F09AFB13E0EA686968206801F05AFCF9
:103C60004021206801F090FB09E000BF00BF00BFC9
:103C70002968206801F088FB01E0012700BF00BF30
:103C8000012084F83D0000BF002084F83C0000BF04
:103C9000384684E710B586B00446002002900390B1
:103CA000049005903C492068884217D100BF3B48EA
:103CB000806940F00400394988610846806900F055
:103CC0000400019000BF00BF08150290022003907D
:103CD000059002A93248FEF797FA5BE02068B0F140
:103CE000804F16D100BF2D48806940F004002B4959
:103CF00088610846806900F00400019000BF00BFA1
:103D0000022002900390059002A92548FEF77CFA54
:103D100040E024492068884221D100BF1F488069C3
:103D200040F008001D4988610846806900F00800DD
:103D3000019000BF00BF1020029002200390059068
:103D400002A91948FEF760FA00BF1849486820F434
:103D5000406040F0E06040F4006048601AE01449C0
:103D60002068884216D100BF0C48806940F00800E6
:103D70000A4988610846806900F00800019000BF88
:103D800000BF4815029002200390059002A9064842
:103D9000FEF73AFA06B010BD002C014000100240B8
:103DA0000008014000040040000C014000000140F8
:103DB000000800402DE9F04104460D461646002754
:103DC00000BF94F83C00012802D10220BDE8F08138
:103DD000012084F83C0000BF36B1042E1BD0082E11
:103DE00031D00C2E5ED145E02946206801F0D6FA8C
:103DF0002068806940F00800216888612068806937
:103E000020F00400216888612068806929690843DE
:103E10002168886148E02946206801F0EFFA2068AF
:103E2000806940F40060216888612068806920F41E
:103E300080602168886120688069296940EA0120E2
:103E40002168886130E02946206801F00BFB20687A
:103E5000C06940F008002168C8612068C06920F08E
:103E600004002168C8612068C06929690843216885
:103E7000C86119E02946206801F028FB2068C06964
:103E800040F400602168C8612068C06920F4806047
:103E90002168C8612068C069296940EA0120216859
:103EA000C86101E0012700BF00BF00BF002084F807
:103EB0003C0000BF384689E710B504460CB9012024
:103EC00010BD94F83D0028B9002084F83C0020463D
:103ED00000F025F8022084F83D00211D206801F043
:103EE000FDF9012084F8460000BF84F83E0001215E
:103EF0003F200155402001554120015500BF00BF22
:103F0000012084F8420043200155442001554520FA
:103F1000015500BF012084F83D000020D0E7704724
:103F200070B504460D4615B994F83E000BE0042D1B
:103F300002D13F20005D06E0082D02D14020005D47
:103F400001E04120005D012801D0012070BD1DB9B4
:103F5000022084F83E000EE0042D03D102213F2010
:103F6000015508E0082D03D102214020015502E04F
:103F700002214120015501222946206801F0E8F97B
:103F800019492068884201D1012000E0002028B1B1
:103F90002068406C40F40040216848641249206861
:103FA00088420BD02068B0F1804F07D00F492068BD
:103FB000884203D00E49206888420CD1206880686E
:103FC00000F00706062E0CD02068006840F00100C3
:103FD0002168086005E02068006840F00100216861
:103FE00008600020B2E70000002C014000040040FF
:103FF0000008004010B504460CB9012010BDA069AE
:1040000000B100E000BF94F8410028B9002084F816
:104010004000204600F02AF8242084F8410020685F
:10402000C06820F400502168C860204601F09AFA68
:104030002068006920F49040216808612068406988
:1040400020F02A00216848612068C06840F40050D0
:104050002168C86000206064202084F8410084F852
:1040600042000020606300BFC8E7000010B586B0C2
:10407000044600200290039004900590194920689E
:1040800088422DD100BF1848C06940F4003016495D
:10409000C8610846C06900F40030019000BF00BF4D
:1040A00000BF0846806940F00400886108468069C6
:1040B00000F00400019000BF00BF04200290022025
:1040C00003900320059002A90848FEF79DF80820F8
:1040D000029000200390049002A90448FEF794F88F
:1040E00006B010BD0044004000100240000801402E
:1040F0002DE9F84F04460E46174699464FF0000A40
:1041000094F8410020284AD106B117B90120BDE832
:10411000F88F00206064212084F84100FEF70AFA3D
:104120008246A784E784A068B0F5805F04D1206947
:1041300010B90025B04602E035464FF000081BE0FC
:104140005346002280212046CDF8009001F088FAE5
:1041500008B10320DBE745B9B8F80000C0F3080058
:104160002168486008F1020803E028782168486067
:104170006D1CE08C401EE084E08C0028E0D15346AA
:10418000002240212046CDF8009001F069FA08B1E4
:104190000320BCE7202084F841000020B7E702207C
:1041A000B5E700BFFEE7014608684069C0F380201C
:1041B000B0B16FF480600A6850610020086320206D
:1041C00081F83D00002081F83E00086C40F00400BA
:1041D000086400BF002081F83C0000BF0120704748
:1041E0000020FCE72DE9F84304460F4615469946A2
:1041F000DDE908862068006840F480602168086076
:104200002068006840F480702168086043460022FE
:104210004FF001112046009600F037F960B1206898
:10422000006800F48070B0F5807F02D14FF4007018
:1042300020640320BDE8F88307F0FE0021680861D0
:10424000334642463E49204600F07EF908B101203F
:10425000F0E700BF002000902068406900902068CF
:104260008069009000BF00BF32464146204600F002
:104270002DFA50B1206C042805D12068006840F464
:104280000070216808600120D4E7B9F1010F03D163
:10429000E8B22168086117E0C5F3072021680861CA
:1042A00032464146204600F011FA50B1206C0428F5
:1042B00005D12068006840F4007021680860012082
:1042C000B8E7E8B22168086132464146204600F06E
:1042D000FDF950B1206C042805D12068006840F435
:1042E0000070216808600120A4E72068006840F49D
:1042F000807021680860434600224FF0011120467B
:10430000009600F0C2F858B12068006800F4807090
:10431000B0F5807F02D14FF400702064032089E75C
:10432000F8B240F001002168086133464246044972
:10433000204600F009F908B101207BE7002079E769
:10434000020001002DE9F8430446884615469946C7
:10435000DDE908672068006840F480702168086023
:10436000334600224FF001112046009700F08DF8EF
:1043700060B12068006800F48070B0F5807F02D1E1
:104380004FF4007020640320BDE8F88308F0FE00BD
:10439000216808613B4632462149204600F0D4F8A6
:1043A00008B10120F0E700BF0020009020684069BC
:1043B000009020688069009000BF00BF3A463146F7
:1043C000204600F083F950B1206C042805D1206804
:1043D000006840F40070216808600120D4E7B9F15A
:1043E000010F03D1E8B22168086117E0C5F3072087
:1043F000216808613A463146204600F067F950B11D
:10440000206C042805D12068006840F40070216801
:1044100008600120B8E7E8B2216808610020B3E72E
:104420000200010070B504460D46164625E0204600
:10443000FFF7B9FE08B1012070BD681CE8B1FEF7B6
:1044400079F8801BA84200D8BDB920684069C0F344
:10445000800090B900202063202084F83D000020D7
:1044600084F83E00206C40F02000206400BF002053
:1044700084F83C0000BF0120DEE720684069C0F3FB
:1044800080000028D3D00020D6E72DE9F041044673
:104490000D4617461E46DDF8188038E0701CA8B39C
:1044A000FEF748F8A0EB0800B04200D876BBC5F391
:1044B000074001280AD120684069A9B20840A9B282
:1044C000884201D101200BE0002009E020688069CA
:1044D000A9B20840A9B2884201D1012000E0002021
:1044E000B84214D100202063202084F83D00002031
:1044F00084F83E00206C40F02000206400BF0020C3
:1045000084F83C0000BF0120BDE8F081FFE7C5F35F
:10451000074001280AD120684069A9B20840A9B221
:10452000884201D101200BE0002009E02068806969
:10453000A9B20840A9B2884201D1012000E00020C0
:10454000B842ABD00020DFE72DE9F04104460D462C
:1045500016461F4658E020684069C0F38020E8B145
:104560002068006840F40070216808606FF4806083
:104570002168486100202063202084F83D0000204D
:1045800084F83E00206C40F00400206400BF00204E
:1045900084F83C0000BF0120BDE8F081701C90B39E
:1045A000FDF7C8FFC01BB04200D866BBC5F307408B
:1045B00001280AD120684069A9B20840A9B28842FE
:1045C00001D101200BE0002009E020688069A9B238
:1045D0000840A9B2884201D1012000E0002090B932
:1045E00000202063202084F83D00002084F83E0055
:1045F000206C40F02000206400BF002084F83C00C4
:1046000000BF0120C8E7FFE7C5F3074001280AD132
:1046100020684069A9B20840A9B2884201D10120AE
:104620000BE0002009E020688069A9B20840A9B227
:10463000884201D1012000E0002000288BD000201A
:10464000AAE770B504460D46164637E02068406973
:10465000C0F30010A0B16FF0100021684861002085
:104660002063202084F83D00002084F83E00206C68
:10467000206400BF002084F83C0000BF012070BD12
:10468000FDF758FF801BA84200D8BDB920684069DB
:10469000C0F3801090B900202063202084F83D00F2
:1046A000002084F83E00206C40F02000206400BF11
:1046B000002084F83C0000BF0120E0E7206840694A
:1046C000C0F380100028C1D00020D8E770B50446A0
:1046D0000D46164625E02046FFF765FD08B101208E
:1046E00070BD681CE8B1FDF725FF801BA84200D80B
:1046F000BDB920684069C0F3C01090B900202063A4
:10470000202084F83D00002084F83E00206C40F01A
:104710002000206400BF002084F83C0000BF01207E
:10472000DEE720684069C0F3C0100028D3D0002025
:10473000D6E77CB504460D461646062269463B2060
:1047400000F082F89DF801009DF8001040EA012079
:1047500000B220809DF803009DF8021040EA01207D
:1047600000B228809DF805009DF8041040EA012061
:1047700000B230807CBD7CB504460D46164606224C
:104780006946432000F060F89DF801009DF8001094
:1047900040EA012000B220809DF803009DF802103D
:1047A00040EA012000B228809DF805009DF8041021
:1047B00040EA012000B230807CBD08B500200090A6
:1047C00080216B2000F052F8642001F0D3FB00211F
:1047D0006B2000F04BF8032000F064F8002000F09C
:1047E00059F80021382000F041F80021232000F082
:1047F0003DF800216A2000F039F86946752000F084
:1048000011F89DF8000068280BD101216B2000F001
:104810002DF84FF4FA7000F06AF800216C2000F0D7
:1048200025F808BD3EB504460D464FF4FA60012157
:104830000B462246CDE900510290D0210148FDF7F8
:1048400067FF3EBD38010020FEB504460D46164602
:104850004FF4FA6001232246D021CDE900560290A0
:104860000148FDF755FFFEBD3801002013B584B0A7
:1048700004464FF4FA60012105AA0B46CDE9002158
:1048800002902246D0210248FEF7F4F806B010BD8F
:104890003801002010B50446E006010E1C20FFF789
:1048A000E5FF10BD10B50446E006010E1B20FFF722
:1048B000DDFF10BD70B504460025BC2C01DB0125D1
:1048C00010E0622C01DB02250CE02A2C01DB032521
:1048D00008E0142C01DB042504E00A2C01DB05258B
:1048E00000E0062529461A20FFF7C0FF70BD70B50D
:1048F00004460025B4F57A7F02DD4FF47A7402E0B5
:10490000042C00DA04244FF47A7090FBF4F0401E7B
:10491000C5B229461920FFF7A9FF264604EBD67138
:10492000C1F34F00FFF7C6FF70BD00001FB510A117
:1049300003C9CDE90201002000900190052202A9DF
:10494000102000F0B5F805226946102000F042F86A
:10495000002108E002A8405C804202D0012004B09F
:1049600010BD481CC1B20529F4DB0020F7E70000A8
:10497000A5A5A5A5A500000010B500224FF48071E3
:104980001248FDF7D1FD052211492A2000F090F8C8
:104990000121212000F0B2F80121222000F0AEF820
:1049A0002821252000F0AAF81C21312000F0A6F8CB
:1049B0000F21262000F0A2F80F21202000F09EF801
:1049C000012211020148FDF7AFFD10BD00080140B2
:1049D000B300002037B582B00C46154600221021E6
:1049E0000D48FDF7A1FD002001906420012301AADC
:1049F00002A900900948FEF78BFE64202B46224650
:104A000001A900900548FEF783FE0122102102480B
:104A1000FDF78AFD05B030BD000801408C01002083
:104A200001B582B0002210210E48FDF77DFD002067
:104A300001906420012301AA02A900900A48FEF710
:104A400067FE6420012301AA02A900900648FEF730
:104A50005FFE012210210348FDF766FD9DF804006A
:104A60000EBD0000000801408C01002070B5044616
:104A7000FFF782FF00250720FFF7D2FF05462946F2
:104A8000272000F03BF805F0400068B100200749FE
:104A900008801C2221466120FFF79CFFFF21E220B5
:104AA00000F02CF8002070BD0120FCE7B8000020C9
:104AB00037B582B00D461446002210210D48FDF78F
:104AC00033FD002001906420012301AA02A9009077
:104AD0000948FEF71DFE6420234601AA29460090DE
:104AE0000548FEF715FE012210210248FDF71CFDC6
:104AF00005B030BD000801408C01002003B583B033
:104B0000002210210D48FDF70FFD002002906420C7
:104B1000012302AA03A900900948FEF7F9FD6420C9
:104B2000012302AA04A900900548FEF7F1FD012225
:104B300010210248FDF7F8FC05B000BD0008014057
:104B40008C01002010B508210748FFF7E9F904217E
:104B50000648FFF7E5F900210548FFF7E1F90C21C8
:104B60000448FFF7DDF910BDE40100202C0200200D
:104B700074020020BC0200200149096848637047A4
:104B8000740200200149096808647047BC020020D3
:104B900001490968886370472C02002001490968AF
:104BA000C8637047E40100200EB50020009001901A
:104BB00002901248124908600021114881600121C9
:104BC0000173002101754FF46021C16100200C497F
:104BD000486001210A480161FDF71AF908B1FCF7A4
:104BE000BAFC092000900120019002906946044817
:104BF000FDF75EF808B1FCF7AEFC0EBD00240140E5
:104C0000C400002008B500BF0A48406940F0010018
:104C1000084948610846406900F00100009000BF63
:104C200000BF002207210B20FEF790F80B20FEF7B3
:104C30007DF808BD0010024000B585B0002001904D
:104C400002900390049000BF3348806940F0100048
:104C5000314988610846806900F01000009000BF6B
:104C600000BF00BF0846806940F020008861084608
:104C7000806900F02000009000BF00BF00BF084620
:104C8000806940F0040088610846806900F00400F3
:104C9000009000BF00BF00BF0846806940F00800D8
:104CA00088610846806900F00800009000BF00BFDE
:104CB000012241F610111948FDF736FC01224FF48C
:104CC00040411748FDF730FC41F6101001900120DB
:104CD0000290002003900320049001A90F48FDF7E3
:104CE00093FA4FF44040019001200290002003907D
:104CF0000320049001A90A48FDF786FA4FF40070DA
:104D00000190002002900120039001A90348FDF7C3
:104D10007BFA05B000BD0000001002400008014011
:104D2000000C014010B50B480B4908600B48486067
:104D3000002109488160C1604FF480410161002178
:104D400041618161C1610162FDF7FAFB08B1FCF7C5
:104D500002FC10BD0054004038010020A086010074
:104D600010B50E480E4908604FF48270486000216B
:104D70000B488160C160016141614FF40071816144
:104D80001021C16100210162416281620A21C16278
:104D9000FEF71CFC08B1FCF7DEFB10BD0030014043
:104DA0008C01002000B595B0002011901290139056
:104DB00014900F9010901C2108A8FBF7CCF920212B
:104DC0006846FBF7C8F92B482B4908600320486068
:104DD00000212948816040F2E731C1600021016172
:104DE00041618161FEF74AFE08B1FCF7B4FB4FF464
:104DF0008050119011A92048FEF7C6FE08B1FCF7BB
:104E0000AAFB1D48FFF758F808B1FCF7A4FB0020E7
:104E10000F9010900FA91848FEF7EEFD08B1FCF7AF
:104E20009AFB60200890002009900A900B900C904B
:104E30000D900E90082208A90F48FEF7BBFF08B19D
:104E4000FCF789FB002000900190029003900490F1
:104E50004FF4005005900020079069460648FEF781
:104E600091FD08B1FCF777FB0348FEF713FF15B07F
:104E700000BD0000002C0140E401002000B58DB011
:104E8000002009900A900B900C90079008901C212C
:104E90006846FBF760F94FF080401F490860032027
:104EA000486000211C48816040F2E731C160002168
:104EB00001618161FEF7E2FD08B1FCF74CFB4FF4A4
:104EC0008050099009A91448FEF75EFE08B1FCF76E
:104ED00042FB1148FEF7F0FF08B1FCF73CFB002055
:104EE0000790089007A90C48FEF786FD08B1FCF76B
:104EF00032FB602000900020019002900490042278
:104F000069460548FEF756FF08B1FCF724FB024846
:104F1000FEF7C0FE0DB000BD2C02002000B58DB024
:104F2000002009900A900B900C90079008901C218B
:104F30006846FBF710F920482049086003204860C4
:104F400000211E48816040F2E731C160002101610B
:104F50008161FEF793FD08B1FCF7FDFA4FF4805034
:104F6000099009A91548FEF70FFE08B1FCF7F3FAFE
:104F70001248FEF7A1FF08B1FCF7EDFA00200790F8
:104F8000089007A90D48FEF737FD08B1FCF7E3FAD2
:104F90006020009000200190029004900022694659
:104FA0000648FEF707FF08B1FCF7D5FA0348FEF7FD
:104FB00071FE0DB000BD000000040040740200202E
:104FC00000B58DB0002009900A900B900C900790CE
:104FD00008901C216846FBF7BEF82048204908606D
:104FE0000320486000211E48816040F2E731C16023
:104FF000002101618161FEF741FD08B1FCF7ABFAC8
:105000004FF48050099009A91548FEF7BDFD08B17D
:10501000FCF7A1FA1248FEF74FFF08B1FCF79BFA24
:1050200000200790089007A90D48FEF7E5FC08B19D
:10503000FCF791FA6020009000200190029004900B
:105040000C2269460648FEF7B5FE08B1FCF783FA64
:105050000348FEF71FFE0DB000BD00000008004031
:10506000BC02002010B50B480B4908604FF4E1303A
:105070004860002108488160C16001610C214161E4
:1050800000218161C161FEF7B5FF08B1FCF763FA49
:1050900010BD0000004400400403002000BFFEE7F4
:1050A00000BFFEE7704700002DE9F05F04464FF0B7
:1050B0007F594FF07C512046FBF7B0F882462546D9
:1050C0002E460C48A0EB6606354629465046FBF7AF
:1050D000A5F883462946FBF7A1F880464946FBF729
:1050E0009AF807462946FBF799F805462846BDE891
:1050F000F09F0000DF59375F08B508490968C90803
:105100004FF47A72B1FBF2F14143009100BF00BF4E
:1051100000994A1E00920029F9D108BD0C00002018
:1051200010B5024600200EE0002352F82040236014
:1051300052F82040636052F82040E36152F820406A
:10514000A360431CD8B28842EEDB10BDF8B504461C
:105150000D4616462B46002280212046009600F080
:1051600009F828B1606D40F0200060650320F8BDAB
:105170000020FCE72DE9F84F04460D4690461E46F8
:10518000DDF82890FDF7D6F9A0EB0900371AFDF7F6
:10519000D1F982462C480068C0F3CB3078430090A8
:1051A00045E0701C002842D0FDF7C4F9A0EB0A00CE
:1051B000B84200D2A7BB2068406820F0E000216818
:1051C00048606068B0F5827F0DD1A068B0F5004FEF
:1051D00003D0A068B0F5806F05D12068006820F08A
:1051E000400021680860A06AB0F5005F0DD100BFE3
:1051F0002068006820F4005021680860206800687A
:1052000040F400502168086000BF012084F851007C
:1052100000BF002084F8500000BF0320BDE8F88FD5
:10522000FFE7009800B900270098401E0090206812
:1052300080682840A84201D1012000E000204045BC
:10524000AFD10020EAE700000C000020704710B545
:10525000FDF7FCFC10BD00B593B0282109A8FAF7B2
:105260007AFF142104A8FAF776FF0020009001903D
:10527000029003900120099000040A9000200B90F6
:1052800001200D9002201090C10311914FF4E01104
:10529000129109A8FDF768FF08B1FCF75CF90F202F
:1052A000049002200590002006904FF48060079043
:1052B00000200890022104A8FDF732FE08B1FCF797
:1052C0004AF902200090800302906846FDF790FDA5
:1052D00008B1FCF740F913B000BD704710B5026883
:1052E000184B984208D0B0F1804F05D0164B984229
:1052F00002D0164B984203D122F070024B681A4339
:10530000104B984208D0B0F1804F05D00E4B984218
:1053100002D00E4B984203D122F44072CB681A435C
:1053200022F080034C6943EA040202608B68C36286
:105330000B688362034B984201D10B69036301231D
:10534000436110BD002C01400004004000080040F3
:1053500030B501F01F05012404FA05F3046A9C43EB
:105360000462046A01F01F0502FA05F52C43046289
:1053700030BD30B50C46816821F47F4142EA0325F7
:1053800025432943816030BD0A46816821F07001C0
:1053900042F00703194381607047000030B5026A8C
:1053A000056A25F0010505624368846924F07004EC
:1053B00024F003040D682C4322F002028D682A4376
:1053C0000D4DA84206D100BF22F00802CD682A4345
:1053D00022F00402084DA84207D123F4807323F47D
:1053E00000734D692B438D692B43436084614D6885
:1053F0004563026230BD0000002C014030B5026AF6
:10540000056A25F0100505624368846924F4E044C8
:1054100024F440740D6844EA052422F020028D68CB
:1054200042EA05120E4DA84207D100BF22F08002C9
:10543000CD6842EA051222F04002094DA84209D186
:1054400023F4806323F400634D6943EA85038D6987
:1054500043EA8503436084614D688563026230BD21
:10546000002C014030B5026A056A25F4807505629A
:105470004368C46924F0700424F003040D682C43CD
:1054800022F400728D6842EA05220F4DA84207D12E
:1054900000BF22F40062CD6842EA052222F4806255
:1054A000094DA84209D123F4805323F400534D69D8
:1054B00043EA05138D6943EA05134360C4614D68EF
:1054C000C563026230BD0000002C014030B5036AA4
:1054D000056A25F4805505624468C26922F4E042F9
:1054E00022F440720D6842EA052223F400538D68CD
:1054F00043EA0533064DA84204D124F480444D69A3
:1055000044EA85144460C2614D680564036230BD9D
:10551000002C014030B50B461446026A056A25F09E
:1055200001050562816921F0F00141EA041122F0D0
:105530000A021A438161026230BD30B50B4614463F
:10554000026A056A25F010050562816921F470413F
:1055500041EA043122F0A00242EA031281610262B0
:1055600030BD000070B504462168096921F440513E
:10557000E2681143226811612269A16811436269DE
:1055800041EA02052168C96841F20C62914329434E
:105590002268D1602168496921F44071A2691143F0
:1055A000226851612D4A2168914202D1FDF794FD94
:1055B00001E0FDF781FD00EBC00101EB0011626825
:1055C0009200B1FBF2F100EBC00202EB0012636843
:1055D0009B00B2FBF3F26423B2FBF3F202EBC203D3
:1055E00003EB0212A1EB8201322202EB01116422D1
:1055F000B1FBF2F101F0F00100EBC00202EB00128E
:1056000063689B00B2FBF3F26423B2FBF3F201EB9D
:10561000021200EBC00101EB001163689B00B1FBBB
:10562000F3F100EBC00303EB00136668B600B3FBB5
:10563000F6F36426B3FBF6F303EBC30606EB0313A2
:10564000A1EB8301322303EB01116423B1FBF3F1DE
:1056500001F00F0111442268916070BD00380140D3
:105660002DE9F04104460D4617469846069E34E063
:10567000701C88B32EB1FCF75DFFA0EB0800B042B0
:105680002BD900BF00BF21680C3151E8001F21F465
:10569000D07021680C3141E80002002AF3D100BF2C
:1056A00000BF00BF2168143151E8001F21F0010044
:1056B0002168143141E80002002AF3D100BF202004
:1056C00084F8410084F8420000BF002084F84000C4
:1056D00000BF0320BDE8F081FFE720680068284094
:1056E000A84201D1012000E00020B842C0D0002033
:1056F000F0E72DE9F05F04460E46A1692068FAF74D
:1057000087FD054631462846FAF788FD8046A168A0
:10571000FAF72CFDA06061682846FAF779FD80460B
:105720003146FAF7ADFD074660693946FAF776FD6E
:105730008146A1682069FAF771FD8246E068294632
:10574000FAF76CFD83465146FAF710FD804649464C
:10575000FAF70CFDE0616560BDE8F09F00BFFEE771
:105760000FB4054B10B503A9044A029800F0CEF817
:1057700010BC5DF814FB0000915F0008BC00002025
:10578000490050EAC12018BF04204A0D18BF40F05C
:10579000010040F2FF72B2EB515F08BF40F002001F
:1057A000012808BF052070474100080218BF0420E7
:1057B0000A0E18BF40F001004FF07F4232EA0101AB
:1057C00008BF40F00200012808BF05207047000014
:1057D00002480068C0F30220704700000CED00E0B2
:1057E00010B5002804DB0A07130E054A135406E01F
:1057F0000A07140E034A00F00F031B1FD45410BDF8
:1058000000E400E018ED00E02DE9F0414F1E00EB50
:10581000C7010446D1E9000115461E4637F00602CD
:105820000DD02A463346FAF710FE7F1E04EBC7035D
:10583000D3E90023FAF762FD37F00602F1D1022F17
:1058400025D0042F13D0062F18BFBDE8F0812A46BB
:105850003346FAF7FAFDD4E90A23FAF74FFD2A4650
:105860003346FAF7F2FDD4E90823FAF747FD2A4652
:105870003346FAF7EAFDD4E90623FAF73FFD2A4654
:105880003346FAF7E2FDD4E90423FAF737FD2A4656
:105890003346FAF7DAFDD4E90223FAF72FFD2A4658
:1058A0003346FAF7D2FDD4E90023BDE8F041FAF718
:1058B00025BD0122FBF71EB80022134610461146F3
:1058C000FAF7A9BF024A00201107FBF713B800003E
:1058D00001FDFFFFFAF74ABC6FF05E010807FBF716
:1058E00033B802E008C8121F08C1002AFAD1704775
:1058F0007047002001E001C1121F002AFBD1704750
:105900000149086070470000C00000202DE9FF4FEA
:1059100089B09B460446002506E025280BD05A4650
:105920000B999047641C6D1C20780028F5D10DB0B0
:105930002846BDE8F08F0027B8460122474900E01D
:10594000074314F8013F203B02FA03F00842F7D165
:1059500020782E2819D114F8010F47F004072A28BF
:105960000ED06FF02F022078A0F1300109290CD859
:1059700008EB880102EB410100EB0108641CF2E72F
:105980000A98641C50F8048B0A9020780028CED026
:10599000642808D0692806D075281ED05A460B996D
:1059A00090476D1C58E00A994FF00A0901C90A9105
:1059B000002802DA40422D2102E0390504D52B21CE
:1059C0008DF82010012103E0F90704D02021F7E72A
:1059D0008A4608AE0DE00021FAE70A994FF00A095D
:1059E00001C90A91F7E74946FAF74AFE303106F84D
:1059F000011D0028F7D1ADEB060000F12009780762
:105A000001D44FF00108C84502DDA8EB090000E011
:105A100000208046002706E008A85A46C05D0B9982
:105A200090476D1C7F1C5745F6DB04E030205A463A
:105A30000B9990476D1CB8F10001A8F10108F5DC45
:105A400005E016F8010B5A460B9990476D1CB9F109
:105A50000001A9F10109F4DC641C65E709280100D3
:105A60002DE9F04D8D4F21F0004A86B005460C46D9
:105A7000BA452ADBAAEB070028430AD088488245AA
:105A800001DC1AD1CDB106B02846BDE8F04DFFF7D4
:105A900010BF844A844B2846FAF7D7FC07460E46C7
:105AA000824A834B28462146FAF7CFFC06B03A4695
:105AB0003346BDE8F04DFAF721BC0120FFF720FF87
:105AC00006B0BDE8F04DFFF7F7BE7A48824542DAEE
:105AD000BAF1795F0BDA2846FFF752FE042808BFB7
